{
	"data": {
		"bytecode": {
			"linkReferences": {},
			"object": "6080604052600280546001600160a01b031990811673ba2ae424d960c26247dd6c32edc70b295c744c431790915560038054821673bb4cdb9cbd36b01bd1cbaebf2de08d9173bc095c17905560048054821661dead9081179091556005805483169055600680549092161790556200007a6009600a62000888565b6200008d9066038d7ea4c6800062000973565b600755620000ae6101906007546200055260201b62001fd11790919060201c565b60085560c8600e81905561012c600f556103206010556064601181905561057860125561271060135560196016556017819055601c91909155601d55610708601f556020805460ff199081169091556207a120602955602a8054909116600117905560075462000122906107d0906200081a565b602b55602c805461ff00191690556276a700602e55610e106032556035805460ff191690556039805463ff0000001962ff00001961ffff19909216610100179190911662010000171663010000001790553480156200018057600080fd5b50604051620052f7380380620052f7833981016040819052620001a391620007ce565b600080546001600160a01b0319908116339081178355825260016020818152604093849020805460ff1916909217909155601880546001600160a01b03868116919094161790819055835163c45a015560e01b8152935192169263c45a01559260048083019392829003018186803b1580156200021f57600080fd5b505afa15801562000234573d6000803e3d6000fd5b505050506040513d601f19601f820116820180604052508101906200025a9190620007ce565b6003546040516364e329cb60e11b81526001600160a01b039283169263c9c65396926200028f929116903090600401620007f7565b602060405180830381600087803b158015620002aa57600080fd5b505af1158015620002bf573d6000803e3d6000fd5b505050506040513d601f19601f82011682018060405250810190620002e59190620007ce565b601980546001600160a01b0319166001600160a01b03928316179055600754306000908152600a6020908152604080832060188054871685529083529281902093909355905482516315ab88c960e31b8152925193169263ad5c4648926004808201939291829003018186803b1580156200035f57600080fd5b505afa15801562000374573d6000803e3d6000fd5b505050506040513d601f19601f820116820180604052508101906200039a9190620007ce565b600360006101000a8154816001600160a01b0302191690836001600160a01b031602179055508030604051620003d090620007c0565b620003dd929190620007f7565b604051809103906000f080158015620003fa573d6000803e3d6000fd5b50602780546001600160a01b039283166001600160a01b0319918216179182905560288054821692841692909217909155336000818152600b60209081526040808320805460ff199081166001908117909255600c8452828520805482168317905560195488168552600d84528285208054821683179055308552828520805482168317905560045490971684528184208054881682179055848452602190925290912080549094161790925560148054821683179055601580549091169091179055600754620004cd90829062000567565b50601954600754620004e9916001600160a01b03169062000567565b506007543360009081526009602052604090205562000507620005d3565b4260375560075460405133916000917fddf252ad1be2c89b69c2b068fc378daa952ba7f163c4a11628f55a4df523b3ef91620005439162000811565b60405180910390a350620009d0565b60006200056082846200081a565b9392505050565b336000818152600a602090815260408083206001600160a01b038716808552925280832085905551919290917f8c5be1e5ebec7d5bd14f71427d1e84f3dd0314c0f7b2291e5b200ac8c7c3b92590620005c290869062000811565b60405180910390a350600192915050565b60015b61016d8161ffff1611620007bd578061ffff1660011415620006105761ffff81166000908152603c60205260409020610e109055620007a8565b60028161ffff16101580156200062b575060038161ffff1611155b156200064f5761ffff81166000908152603c60205260409020611c209055620007a8565b60048161ffff16101580156200066a575060078161ffff1611155b156200068e5761ffff81166000908152603c602052604090206138409055620007a8565b60088161ffff1610158015620006a95750601f8161ffff1611155b15620006cd5761ffff81166000908152603c602052604090206170809055620007a8565b60208161ffff1610158015620006e85750605a8161ffff1611155b156200070d5761ffff81166000908152603c60205260409020620151809055620007a8565b605b8161ffff161015801562000728575060b48161ffff1611155b156200074d5761ffff81166000908152603c602052604090206203f4809055620007a8565b60b58161ffff161015801562000769575061016d8161ffff1611155b156200078e5761ffff81166000908152603c60205260409020620697809055620007a8565b61ffff81166000908152603c6020526040902062278d0090555b80620007b48162000995565b915050620005d6565b50565b61121c80620040db83390190565b600060208284031215620007e0578081fd5b81516001600160a01b038116811462000560578182fd5b6001600160a01b0392831681529116602082015260400190565b90815260200190565b6000826200083657634e487b7160e01b81526012600452602481fd5b500490565b80825b60018086116200084f57506200087f565b818704821115620008645762000864620009ba565b808616156200087257918102915b9490941c9380026200083e565b94509492505050565b60006200056060001960ff851684600082620008a75750600162000560565b81620008b65750600062000560565b8160018114620008cf5760028114620008da576200090e565b600191505062000560565b60ff841115620008ee57620008ee620009ba565b6001841b915084821115620009075762000907620009ba565b5062000560565b5060208310610133831016604e8410600b841016171562000946575081810a83811115620009405762000940620009ba565b62000560565b6200095584848460016200083b565b8086048211156200096a576200096a620009ba565b02949350505050565b6000816000190483118215151615620009905762000990620009ba565b500290565b600061ffff80831681811415620009b057620009b0620009ba565b6001019392505050565b634e487b7160e01b600052601160045260246000fd5b6136fb80620009e06000396000f3fe60806040526004361061046c5760003560e01c80638dd950021161024a578063d12f24ef11610139578063f0b37c04116100b6578063f5cfec0a1161007a578063f5cfec0a14610cb1578063f708a64f14610cd1578063f84ba65d14610cf1578063f887ea4014610d11578063fe9fbb8014610d2657610473565b8063f0b37c0414610c1c578063f1f3bca314610c3c578063f2fde38b14610c5c578063f31079fb14610c7c578063f378696a14610c9157610473565b8063dd62ed3e116100fd578063dd62ed3e14610b92578063df20fd4914610bb2578063e74ef52e14610bd2578063e91f214e14610bf2578063e96fada214610c0757610473565b8063d12f24ef14610b1e578063d3cd253c14610b33578063d51ed1c814610b48578063d806d12f14610b68578063db882e0414610b7d57610473565b8063a8aa1b31116101c7578063b83f95991161018b578063b83f959914610a9f578063bf56b37114610abf578063c0f71b8014610ad4578063c6d2577d14610af4578063ca33e64c14610b0957610473565b8063a8aa1b3114610a15578063a9059cbb14610a2a578063b210b06d14610a4a578063b394982114610a5f578063b6a5d7de14610a7f57610473565b80639d1944f51161020e5780639d1944f514610989578063a2056e94146109a9578063a39fac12146109be578063a4b45c00146109e0578063a51af4c514610a0057610473565b80638dd950021461090a5780638f14fb8c1461091f5780638fe42f461461093457806395d89b4114610954578063989f06d71461096957610473565b80632d48e896116103665780635c85974f116102e3578063725ddf4a116102a7578063725ddf4a146108735780637434c1e0146108935780637d1db4a5146108b357806382723192146108c8578063893d20e8146108e857610473565b80635c85974f146107de578063606ab752146107fe578063658d4b7f1461081e5780636ddd17131461083e57806370a082311461085357610473565b80634247c00e1161032a5780634247c00e1461075457806345aecf05146107745780634be1b5e4146107945780634ed0b76d146107a9578063571ac8b0146107be57610473565b80632d48e896146106bd5780632f54bf6e146106dd578063313ce567146106fd5780633bb8a8d41461071f57806340f0a14a1461073457610473565b806318b20071116103f457806325449ac4116103b857806325449ac41461063e5780632846b9511461065e57806329d7150c146106735780632b0ea03d146106885780632b112e49146106a857610473565b806318b200711461059e5780631bbcce44146105be578063201e7991146105de5780632375ce40146105fe57806323b872dd1461061e57610473565b806306fdde031161043b57806306fdde03146104fa578063095ea7b31461051c5780631161ae391461054957806316def05e1461056957806318160ddd1461058957610473565b806301339c21146104785780630445b6671461048f578063048c7baf146104ba57806304a66b48146104da57610473565b3661047357005b600080fd5b34801561048457600080fd5b5061048d610d46565b005b34801561049b57600080fd5b506104a4610d9e565b6040516104b1919061358b565b60405180910390f35b3480156104c657600080fd5b5061048d6104d536600461318c565b610da4565b3480156104e657600080fd5b5061048d6104f536600461327b565b610df2565b34801561050657600080fd5b5061050f610e68565b6040516104b191906133b3565b34801561052857600080fd5b5061053c61053736600461306b565b610e8e565b6040516104b19190613373565b34801561055557600080fd5b5061053c610564366004613202565b610ef8565b34801561057557600080fd5b5061048d610584366004613137565b610f0c565b34801561059557600080fd5b506104a4610f4f565b3480156105aa57600080fd5b5061048d6105b93660046131c6565b610f55565b3480156105ca57600080fd5b5061048d6105d9366004613137565b610f7f565b3480156105ea57600080fd5b5061048d6105f9366004613202565b610fc0565b34801561060a57600080fd5b5061048d610619366004613223565b610ff0565b34801561062a57600080fd5b5061053c610639366004612ffe565b611045565b34801561064a57600080fd5b5061048d61065936600461306b565b611109565b34801561066a57600080fd5b5061053c6111be565b34801561067f57600080fd5b506104a46111cc565b34801561069457600080fd5b506104a46106a3366004612f63565b61122c565b3480156106b457600080fd5b506104a4611283565b3480156106c957600080fd5b5061048d6106d8366004613202565b6112cc565b3480156106e957600080fd5b5061053c6106f8366004612f63565b611359565b34801561070957600080fd5b5061071261136d565b6040516104b191906135f7565b34801561072b57600080fd5b5061053c611372565b34801561074057600080fd5b5061048d61074f366004613137565b61137b565b34801561076057600080fd5b5061048d61076f366004612f63565b6113ba565b34801561078057600080fd5b5061048d61078f366004613137565b611403565b3480156107a057600080fd5b506104a461143b565b3480156107b557600080fd5b5061053c611441565b3480156107ca57600080fd5b5061053c6107d9366004612f63565b61144a565b3480156107ea57600080fd5b5061048d6107f93660046131c6565b61145e565b34801561080a57600080fd5b506104a4610819366004612f63565b6114a4565b34801561082a57600080fd5b5061048d61083936600461303e565b6114bf565b34801561084a57600080fd5b5061053c61150f565b34801561085f57600080fd5b506104a461086e366004612f63565b611518565b34801561087f57600080fd5b5061048d61088e366004613137565b611533565b34801561089f57600080fd5b5061048d6108ae366004612f63565b611572565b3480156108bf57600080fd5b506104a46115b8565b3480156108d457600080fd5b5061048d6108e336600461306b565b6115be565b3480156108f457600080fd5b506108fd611615565b6040516104b191906132f8565b34801561091657600080fd5b506108fd611624565b34801561092b57600080fd5b506104a4611633565b34801561094057600080fd5b5061048d61094f366004612f63565b611639565b34801561096057600080fd5b5061050f611682565b34801561097557600080fd5b5061048d6109843660046131c6565b6116a2565b34801561099557600080fd5b5061048d6109a43660046131c6565b6116cc565b3480156109b557600080fd5b506104a4611716565b3480156109ca57600080fd5b506109d361171c565b6040516104b19190613360565b3480156109ec57600080fd5b5061048d6109fb366004612fc6565b61177e565b348015610a0c57600080fd5b506108fd6117d1565b348015610a2157600080fd5b506108fd6117e0565b348015610a3657600080fd5b5061053c610a4536600461306b565b6117ef565b348015610a5657600080fd5b5061048d6117fc565b348015610a6b57600080fd5b5061048d610a7a366004613202565b611828565b348015610a8b57600080fd5b5061048d610a9a366004612f63565b61185f565b348015610aab57600080fd5b5061048d610aba366004612f63565b6118ab565b348015610acb57600080fd5b506104a46118f1565b348015610ae057600080fd5b5061048d610aef366004612f9b565b6118f7565b348015610b0057600080fd5b506104a4611998565b348015610b1557600080fd5b506108fd61199e565b348015610b2a57600080fd5b5061048d6119ad565b348015610b3f57600080fd5b506104a46119de565b348015610b5457600080fd5b506104a4610b633660046131c6565b6119e2565b348015610b7457600080fd5b506104a4611a1c565b348015610b8957600080fd5b5061048d611af3565b348015610b9e57600080fd5b506104a4610bad366004612fc6565b611b1d565b348015610bbe57600080fd5b5061048d610bcd36600461316f565b611b48565b348015610bde57600080fd5b5061048d610bed3660046131c6565b611b84565b348015610bfe57600080fd5b506104a4611bd0565b348015610c1357600080fd5b506108fd611be4565b348015610c2857600080fd5b5061048d610c37366004612f63565b611bf3565b348015610c4857600080fd5b506104a4610c57366004613137565b611c39565b348015610c6857600080fd5b5061048d610c77366004612f63565b611c7b565b348015610c8857600080fd5b5061048d611d10565b348015610c9d57600080fd5b5061048d610cac3660046131c6565b611d76565b348015610cbd57600080fd5b5061048d610ccc3660046131de565b611da0565b348015610cdd57600080fd5b5061048d610cec36600461303e565b611e24565b348015610cfd57600080fd5b5061048d610d0c36600461303e565b611f54565b348015610d1d57600080fd5b506108fd611fa4565b348015610d3257600080fd5b5061053c610d41366004612f63565b611fb3565b610d4f33611fb3565b610d745760405162461bcd60e51b8152600401610d6b90613566565b60405180910390fd5b601a5415610d945760405162461bcd60e51b8152600401610d6b906134e1565b43601a5542601b55565b602b5481565b610dad33611fb3565b610dc95760405162461bcd60e51b8152600401610d6b90613566565b6020805460ff191694151594909417909355602291909155600060235560245560255543602655565b610dfb33611fb3565b610e175760405162461bcd60e51b8152600401610d6b90613566565b600e859055600f84905560108390556011829055610e4182610e3b85818989611fdd565b90611fdd565b6012556013819055610e5460048261361d565b60125410610e6157600080fd5b5050505050565b60408051808201909152600b81526a088dececa40a6e0c2c6cab60ab1b60208201525b90565b336000818152600a602090815260408083206001600160a01b038716808552925280832085905551919290917f8c5be1e5ebec7d5bd14f71427d1e84f3dd0314c0f7b2291e5b200ac8c7c3b92590610ee790869061358b565b60405180910390a350600192915050565b600082610f04836119e2565b119392505050565b610f1533611359565b610f315760405162461bcd60e51b8152600401610d6b9061350f565b6039805491151563010000000263ff00000019909216919091179055565b60075490565b610f5e33611359565b610f7a5760405162461bcd60e51b8152600401610d6b9061350f565b603a55565b610f8833611359565b610fa45760405162461bcd60e51b8152600401610d6b9061350f565b60398054911515620100000262ff000019909216919091179055565b610fc933611fb3565b610fe55760405162461bcd60e51b8152600401610d6b90613566565b601691909155601755565b610ff933611fb3565b6110155760405162461bcd60e51b8152600401610d6b90613566565b6002611021838561361d565b1115801561102e57508183115b61103757600080fd5b601c92909255601d55601f55565b6007546001600160a01b0384166000908152600a602090815260408083203384529091528120549091146110f4576040805180820182526016815275496e73756666696369656e7420416c6c6f77616e636560501b6020808301919091526001600160a01b0387166000908152600a825283812033825290915291909120546110cf918490611fe9565b6001600160a01b0385166000908152600a602090815260408083203384529091529020555b6110ff848484612015565b90505b9392505050565b61111233611fb3565b61112e5760405162461bcd60e51b8152600401610d6b90613566565b60405163a9059cbb60e01b815273bb4cdb9cbd36b01bd1cbaebf2de08d9173bc095c9063a9059cbb90611167908590859060040161330c565b602060405180830381600087803b15801561118157600080fd5b505af1158015611195573d6000803e3d6000fd5b505050506040513d601f19601f820116820180604052508101906111b99190613153565b505050565b602c54610100900460ff1690565b6000806111ea62015180603754426111e4919061365c565b90611fd1565b90506000603c816111fc846001613605565b8152602001908152602001600020549050610e1081101561122357610e1092505050610e8b565b9150610e8b9050565b6001600160a01b0381166000908152602f6020526040812054801561125d57611255814261365c565b91505061127e565b61126683611359565b1561127857603754611255904261365c565b60009150505b919050565b6005546000906112c79061129f906001600160a01b0316611518565b6004546112c1906112b8906001600160a01b0316611518565b600754906124e8565b906124e8565b905090565b6112d533611fb3565b6112f15760405162461bcd60e51b8152600401610d6b90613566565b6027546040516316a4744b60e11b81526001600160a01b0390911690632d48e8969061132390859085906004016135e9565b600060405180830381600087803b15801561133d57600080fd5b505af1158015611351573d6000803e3d6000fd5b505050505050565b6000546001600160a01b0390811691161490565b600990565b60205460ff1681565b61138433611359565b6113a05760405162461bcd60e51b8152600401610d6b9061350f565b603980549115156101000261ff0019909216919091179055565b6113c333611359565b6113df5760405162461bcd60e51b8152600401610d6b9061350f565b6001600160a01b03166000908152603b60205260409020805460ff19166001179055565b61140c33611359565b6114285760405162461bcd60e51b8152600401610d6b9061350f565b6039805460ff1916911515919091179055565b60345490565b60355460ff1690565b600061145882600754610e8e565b92915050565b61146733611fb3565b6114835760405162461bcd60e51b8152600401610d6b90613566565b6103e8600754611493919061361d565b81101561149f57600080fd5b600855565b6001600160a01b03166000908152602d602052604090205490565b6114c833611fb3565b6114e45760405162461bcd60e51b8152600401610d6b90613566565b6001600160a01b03919091166000908152600b60205260409020805460ff1916911515919091179055565b602a5460ff1681565b6001600160a01b031660009081526009602052604090205490565b61153c33611fb3565b6115585760405162461bcd60e51b8152600401610d6b90613566565b602c80549115156101000261ff0019909216919091179055565b61157b33611359565b6115975760405162461bcd60e51b8152600401610d6b9061350f565b6001600160a01b03166000908152603b60205260409020805460ff19169055565b60085481565b6115c733611359565b6115e35760405162461bcd60e51b8152600401610d6b9061350f565b60275460405163413918c960e11b81526001600160a01b0390911690638272319290611323908590859060040161330c565b6000546001600160a01b031690565b6003546001600160a01b031681565b602e5490565b61164233611fb3565b61165e5760405162461bcd60e51b8152600401610d6b90613566565b6001600160a01b03166000908152603060205260409020805460ff19166001179055565b6040805180820190915260068152650889e8e8aa6b60d31b602082015290565b6116ab33611359565b6116c75760405162461bcd60e51b8152600401610d6b9061350f565b603855565b6116d533611fb3565b6116f15760405162461bcd60e51b8152600401610d6b90613566565b60395462010000900460ff161561171157620b71b0811061171157600080fd5b602955565b60335490565b6060603180548060200260200160405190810160405280929190818152602001828054801561177457602002820191906000526020600020905b81546001600160a01b03168152600190910190602001808311611756575b5050505050905090565b61178733611fb3565b6117a35760405162461bcd60e51b8152600401610d6b90613566565b601480546001600160a01b039384166001600160a01b03199182161790915560158054929093169116179055565b6028546001600160a01b031681565b6019546001600160a01b031681565b6000611102338484612015565b61180533611fb3565b6118215760405162461bcd60e51b8152600401610d6b90613566565b6000601e55565b61183133611359565b61184d5760405162461bcd60e51b8152600401610d6b9061350f565b6000918252603c602052604090912055565b61186833611359565b6118845760405162461bcd60e51b8152600401610d6b9061350f565b6001600160a01b03166000908152600160208190526040909120805460ff19169091179055565b6118b433611fb3565b6118d05760405162461bcd60e51b8152600401610d6b90613566565b6001600160a01b03166000908152603060205260409020805460ff19169055565b601a5481565b61190033611fb3565b61191c5760405162461bcd60e51b8152600401610d6b90613566565b6000826001600160a01b03168260405161193590610e8b565b60006040518083038185875af1925050503d8060008114611972576040519150601f19603f3d011682016040523d82523d6000602084013e611977565b606091505b50509050806111b95760405162461bcd60e51b8152600401610d6b90613431565b601b5481565b6014546001600160a01b031681565b6119b633611359565b6119d25760405162461bcd60e51b8152600401610d6b9061350f565b6035805460ff19169055565b4290565b60006114586119ef611283565b6019546111e490611a1590600290611a0f906001600160a01b0316611518565b906124f4565b85906124f4565b600042601b5462015180611a309190613605565b1115611a5a57611a536013546111e46146506012546124f490919063ffffffff16565b9050610e8b565b42611a72601f54601e54611fdd90919063ffffffff16565b1115611aec576000611a95426112c1601f54601e54611fdd90919063ffffffff16565b90506000611abc6012546112c1601d546111e4601c546012546124f490919063ffffffff16565b9050611ae3611ada601f546111e485856124f490919063ffffffff16565b60125490611fdd565b92505050610e8b565b5060125490565b3360009081526009602052604090205415611b1b57336000908152602d602052604090204290555b565b6001600160a01b039182166000908152600a6020908152604080832093909416825291909152205490565b611b5133611fb3565b611b6d5760405162461bcd60e51b8152600401610d6b90613566565b602a805460ff191692151592909217909155602b55565b611b8d33611fb3565b611ba95760405162461bcd60e51b8152600401610d6b90613566565b611bb481601861363d565b611bbf90603c61363d565b611bca90603c61363d565b602e5550565b6fffffffffffffffffffffffffffffffff81565b6015546001600160a01b031681565b611bfc33611359565b611c185760405162461bcd60e51b8152600401610d6b9061350f565b6001600160a01b03166000908152600160205260409020805460ff19169055565b600043601a546001611c4b9190613605565b10611c6557601354611c5e9060016124e8565b905061127e565b8115611c7357611c5e611a1c565b505060125490565b611c8433611359565b611ca05760405162461bcd60e51b8152600401610d6b9061350f565b600080546001600160a01b0319166001600160a01b0383169081178255815260016020819052604091829020805460ff19169091179055517f04dba622d284ed0014ee4b9a6a68386be1a4c08a4913ae272de89199cc68616390611d059083906132f8565b60405180910390a150565b611d1933611359565b611d355760405162461bcd60e51b8152600401610d6b9061350f565b603654603355426034819055603854118015611d5d5750611d5742605a613605565b60385411155b15611b1b576035805460ff191660011790556000603655565b611d7f33611359565b611d9b5760405162461bcd60e51b8152600401610d6b9061350f565b603355565b611da933611fb3565b611dc55760405162461bcd60e51b8152600401610d6b90613566565b600454611ddc9083906001600160a01b0316612500565b8015611e205742601e55601f546040517f39d2389ec5c1fa77b2c0d374bc61b6d7bd97ccba280fcdeb4e9c7644898d7c3a91611e179161358b565b60405180910390a15b5050565b611e2d33611fb3565b611e495760405162461bcd60e51b8152600401610d6b90613566565b6001600160a01b0382163014801590611e7057506019546001600160a01b03838116911614155b611e7957600080fd5b6001600160a01b0382166000908152600d60205260409020805460ff19168215801591909117909155611f1057602754604051630a5b654b60e11b81526001600160a01b03909116906314b6ca9690611ed990859060009060040161330c565b600060405180830381600087803b158015611ef357600080fd5b505af1158015611f07573d6000803e3d6000fd5b50505050611e20565b6027546001600160a01b0383811660009081526009602052604090819020549051630a5b654b60e11b815291909216916314b6ca969161132391869160040161330c565b611f5d33611fb3565b611f795760405162461bcd60e51b8152600401610d6b90613566565b6001600160a01b03919091166000908152600c60205260409020805460ff1916911515919091179055565b6018546001600160a01b031681565b6001600160a01b031660009081526001602052604090205460ff1690565b6000611102828461361d565b60006111028284613605565b6000818484111561200d5760405162461bcd60e51b8152600401610d6b91906133b3565b505050900390565b6001600160a01b03831660009081526030602052604081205460ff1615801561205757506001600160a01b03831660009081526030602052604090205460ff16155b6120735760405162461bcd60e51b8152600401610d6b9061352f565b61207d8484612625565b602c5460ff161561209a5761209384848461272d565b9050611102565b6120a484836127d0565b6120ac612815565b156120b9576120b9612864565b6120c1612bfe565b156120ce576120ce612c59565b6040805180820182526014815273496e73756666696369656e742042616c616e636560601b6020808301919091526001600160a01b038716600090815260099091529190912054612120918490611fe9565b6001600160a01b03851660009081526009602052604081209190915561214585612c9f565b61214f578261215a565b61215a858585612cbe565b6019549091506001600160a01b0385811691161480159061219157506001600160a01b038416600090815260096020526040902054155b156121e257603180546001810182556000919091527fc54045fa7c6ec765e825df7f9e9bf9dec12c5cef146f93a5eee56772ee647fbc0180546001600160a01b0319166001600160a01b0386161790555b6001600160a01b0384166000908152600960205260409020546122059082611fdd565b6001600160a01b038086166000908152600960209081526040808320949094559188168152600d909152205460ff166122a9576027546001600160a01b0386811660009081526009602052604090819020549051630a5b654b60e11b815291909216916314b6ca969161227c91899160040161330c565b600060405180830381600087803b15801561229657600080fd5b505af19250505080156122a7575060015b505b6001600160a01b0384166000908152600d602052604090205460ff1661233a576027546001600160a01b0385811660009081526009602052604090819020549051630a5b654b60e11b815291909216916314b6ca969161230d91889160040161330c565b600060405180830381600087803b15801561232757600080fd5b505af1925050508015612338575060015b505b6019546001600160a01b0385811691161461239a576001600160a01b0384166000908152602d60209081526040808320429055602f909152902054612395576001600160a01b0384166000908152602f602052604090204290555b6123d4565b6001600160a01b0385166000908152600960205260409020548311156123d4576001600160a01b0385166000908152602f60205260408120555b603954610100900460ff1615612445576027546029546040516001624d3b8760e01b031981526001600160a01b039092169163ffb2c479916124189160040161358b565b600060405180830381600087803b15801561243257600080fd5b505af1925050508015612443575060015b505b60395460ff1615612492576018546000906124739067016345785d8a0000906001600160a01b031630612d77565b90506036548110806124855750603654155b156124905760368190555b505b836001600160a01b0316856001600160a01b03167fddf252ad1be2c89b69c2b068fc378daa952ba7f163c4a11628f55a4df523b3ef836040516124d5919061358b565b60405180910390a3506001949350505050565b6000611102828461365c565b6000611102828461363d565b602c805460ff19166001179055604080516002808252606082018352600092602083019080368337505060035482519293506001600160a01b03169183915060009061255c57634e487b7160e01b600052603260045260246000fd5b60200260200101906001600160a01b031690816001600160a01b031681525050308160018151811061259e57634e487b7160e01b600052603260045260246000fd5b6001600160a01b03928316602091820292909201015260185460405163b6f9de9560e01b815291169063b6f9de959085906125e49060009086908890429060040161337e565b6000604051808303818588803b1580156125fd57600080fd5b505af1158015612611573d6000803e3d6000fd5b5050602c805460ff19169055505050505050565b60355460ff161561267657600060345442612640919061365c565b9050600061264c6111cc565b905080821115612673576033546036541015612669576036546033555b4260345560006036555b50505b60355460ff16801561269557506019546001600160a01b038281169116145b80156126aa57506001600160a01b0382163014155b80156126bc57506126ba82611359565b155b80156126e157506001600160a01b0382166000908152603b602052604090205460ff16155b15611e20576018546000906127099067016345785d8a0000906001600160a01b031630612d77565b90506033548111156111b95760405162461bcd60e51b8152600401610d6b9061348e565b6040805180820182526014815273496e73756666696369656e742042616c616e636560601b6020808301919091526001600160a01b038616600090815260099091529182205461277e918490611fe9565b6001600160a01b0380861660009081526009602052604080822093909355908516815220546127ad9083611fdd565b6001600160a01b0384166000908152600960205260409020555060019392505050565b600854811115806127f957506001600160a01b0382166000908152600c602052604090205460ff165b611e205760405162461bcd60e51b8152600401610d6b90613406565b6019546000906001600160a01b031633148015906128365750602c5460ff16155b80156128445750602a5460ff165b80156112c7575050602b5430600090815260096020526040902054101590565b602c805460ff1916600117905560165460175460009161288391610ef8565b61288f57600e54612892565b60005b905060006128b660026111e46012546111e486602b546124f490919063ffffffff16565b905060006128cf82602b546124e890919063ffffffff16565b6040805160028082526060820183529293506000929091602083019080368337019050509050308160008151811061291757634e487b7160e01b600052603260045260246000fd5b6001600160a01b03928316602091820292909201015260035482519116908290600190811061295657634e487b7160e01b600052603260045260246000fd5b6001600160a01b03928316602091820292909201015260185460405163791ac94760e01b81524792919091169063791ac947906129a09086906000908790309042906004016135ad565b600060405180830381600087803b1580156129ba57600080fd5b505af11580156129ce573d6000803e3d6000fd5b5050505060006129e782476124e890919063ffffffff16565b90506000612a026129f9886002611fd1565b601254906124e8565b90506000612a1760026111e48481878d6124f4565b90506000612a34836111e4601054876124f490919063ffffffff16565b90506000612a51846111e4601154886124f490919063ffffffff16565b9050602760009054906101000a90046001600160a01b03166001600160a01b031663d0e30db0836040518263ffffffff1660e01b81526004016000604051808303818588803b158015612aa357600080fd5b505af193505050508015612ab5575060015b506015546040516001600160a01b039091169082156108fc029083906000818181858888f19350505050158015612af0573d6000803e3d6000fd5b508815612be857601860009054906101000a90046001600160a01b03166001600160a01b031663f305d71984308c600080601460009054906101000a90046001600160a01b0316426040518863ffffffff1660e01b8152600401612b5996959493929190613325565b6060604051808303818588803b158015612b7257600080fd5b505af1158015612b86573d6000803e3d6000fd5b50505050506040513d601f19601f82011682018060405250810190612bab919061324e565b5050507f424db2872186fa7e7afa7a5e902ed3b49a2ef19c2f5431e672462495dd6b4506838a604051612bdf9291906135e9565b60405180910390a15b5050602c805460ff191690555050505050505050565b6019546000906001600160a01b03163314801590612c1f5750602c5460ff16155b8015612c2d575060205460ff165b8015612c48575043602554602654612c459190613605565b11155b80156112c757505060245447101590565b602454600454612c7291906001600160a01b0316612500565b43602655602454602354612c8591611fdd565b60238190556022541015611b1b576020805460ff19169055565b6001600160a01b03166000908152600b602052604090205460ff161590565b6013546019546000918291612cf091906111e490612ce9906001600160a01b03898116911614611c39565b86906124f4565b30600090815260096020526040902054909150612d0d9082611fdd565b30600081815260096020526040908190209290925590516001600160a01b038716907fddf252ad1be2c89b69c2b068fc378daa952ba7f163c4a11628f55a4df523b3ef90612d5c90859061358b565b60405180910390a3612d6e83826124e8565b95945050505050565b604080516002808252606082018352600092859284929091602083019080368337019050509050816001600160a01b031663ad5c46486040518163ffffffff1660e01b815260040160206040518083038186803b158015612dd757600080fd5b505afa158015612deb573d6000803e3d6000fd5b505050506040513d601f19601f82011682018060405250810190612e0f9190612f7f565b81600081518110612e3057634e487b7160e01b600052603260045260246000fd5b60200260200101906001600160a01b031690816001600160a01b0316815250508381600181518110612e7257634e487b7160e01b600052603260045260246000fd5b6001600160a01b039092166020928302919091019091015260395460ff63010000009091041615612f575760405163d06ca61f60e01b81526000906001600160a01b0384169063d06ca61f90612ece908a908690600401613594565b60006040518083038186803b158015612ee657600080fd5b505afa158015612efa573d6000803e3d6000fd5b505050506040513d6000823e601f3d908101601f19168201604052612f22919081019061307d565b905080600181518110612f4557634e487b7160e01b600052603260045260246000fd5b60200260200101519350505050611102565b603a5492505050611102565b600060208284031215612f74578081fd5b81356111028161369f565b600060208284031215612f90578081fd5b81516111028161369f565b60008060408385031215612fad578081fd5b8235612fb88161369f565b946020939093013593505050565b60008060408385031215612fd8578182fd5b8235612fe38161369f565b91506020830135612ff38161369f565b809150509250929050565b600080600060608486031215613012578081fd5b833561301d8161369f565b9250602084013561302d8161369f565b929592945050506040919091013590565b60008060408385031215613050578182fd5b823561305b8161369f565b91506020830135612ff3816136b7565b60008060408385031215612fad578182fd5b6000602080838503121561308f578182fd5b825167ffffffffffffffff808211156130a6578384fd5b818501915085601f8301126130b9578384fd5b8151818111156130cb576130cb613689565b838102604051858282010181811085821117156130ea576130ea613689565b604052828152858101935084860182860187018a1015613108578788fd5b8795505b8386101561312a57805185526001959095019493860193860161310c565b5098975050505050505050565b600060208284031215613148578081fd5b8135611102816136b7565b600060208284031215613164578081fd5b8151611102816136b7565b60008060408385031215613181578182fd5b8235612fb8816136b7565b600080600080608085870312156131a1578081fd5b84356131ac816136b7565b966020860135965060408601359560600135945092505050565b6000602082840312156131d7578081fd5b5035919050565b600080604083850312156131f0578182fd5b823591506020830135612ff3816136b7565b60008060408385031215613214578182fd5b50508035926020909101359150565b600080600060608486031215613237578081fd5b505081359360208301359350604090920135919050565b600080600060608486031215613262578081fd5b8351925060208401519150604084015190509250925092565b600080600080600060a08688031215613292578283fd5b505083359560208501359550604085013594606081013594506080013592509050565b6000815180845260208085019450808401835b838110156132ed5781516001600160a01b0316875295820195908201906001016132c8565b509495945050505050565b6001600160a01b0391909116815260200190565b6001600160a01b03929092168252602082015260400190565b6001600160a01b039687168152602081019590955260408501939093526060840191909152909216608082015260a081019190915260c00190565b60006020825261110260208301846132b5565b901515815260200190565b60008582526080602083015261339760808301866132b5565b6001600160a01b03949094166040830152506060015292915050565b6000602080835283518082850152825b818110156133df578581018301518582016040015282016133c3565b818111156133f05783604083870101525b50601f01601f1916929092016040019392505050565b602080825260119082015270151608131a5b5a5d08115e18d959591959607a1b604082015260600190565b60208082526038908201527f416464726573733a20756e61626c6520746f2073656e642076616c75652c206360408201527f686172697479206d617920686176652072657665727465640000000000000000606082015260800190565b60208082526033908201527f5472616e73616374696f6e2072656a65637465643a205275672050726f6f662060408201527220b633b7b934ba34369025b4b1b5b2b21034b760691b606082015260800190565b602080825260149082015273416c7265616479206c61756e6368656420626f6960601b604082015260600190565b60208082526006908201526510a7aba722a960d11b604082015260600190565b6020808252601c908201527f5472616e73666572206465636c696e656420666f722077616c6c657400000000604082015260600190565b6020808252600b908201526a085055551213d49256915160aa1b604082015260600190565b90815260200190565b6000838252604060208301526110ff60408301846132b5565b600086825285602083015260a060408301526135cc60a08301866132b5565b6001600160a01b0394909416606083015250608001529392505050565b918252602082015260400190565b60ff91909116815260200190565b6000821982111561361857613618613673565b500190565b60008261363857634e487b7160e01b81526012600452602481fd5b500490565b600081600019048311821515161561365757613657613673565b500290565b60008282101561366e5761366e613673565b500390565b634e487b7160e01b600052601160045260246000fd5b634e487b7160e01b600052604160045260246000fd5b6001600160a01b03811681146136b457600080fd5b50565b80151581146136b457600080fdfea2646970667358221220802ce1d0b356bf1d114b8d1ede2fbf0b9a3a93eb09522ef051bb98261a0ca9c564736f6c634300080000336080604052600180546001600160a01b031990811673ba2ae424d960c26247dd6c32edc70b295c744c43179091556002805490911673bb4cdb9cbd36b01bd1cbaebf2de08d9173bc095c1790556ec097ce7bc90715b34b9f1000000000600d55610e10600e55670de0b6b3a7640000600f5534801561007d57600080fd5b5060405161121c38038061121c83398101604081905261009c91610121565b6001600160a01b0382166100c4577310ed43c718714eb63d5aa57b78b54704e256024e6100c6565b815b600380546001600160a01b039283166001600160a01b031991821617909155600080548216331790556004805493909216921691909117905550610153565b80516001600160a01b038116811461011c57600080fd5b919050565b60008060408385031215610133578182fd5b61013c83610105565b915061014a60208401610105565b90509250929050565b6110ba806101626000396000f3fe6080604052600436106100e85760003560e01c8063997664d71161008a578063efca2eed11610059578063efca2eed14610225578063f0fc6bca1461023a578063ffb2c4791461024f578063ffd49c841461026f576100e8565b8063997664d7146101c4578063ce7c2ac2146101d9578063d0e30db014610208578063e2d2e21914610210576100e8565b80632d48e896116100c65780632d48e8961461015a5780633a98ef391461017a5780634fab0ae81461018f57806382723192146101a4576100e8565b806311ce023d146100ed57806314b6ca961461011857806328fd31981461013a575b600080fd5b3480156100f957600080fd5b50610102610284565b60405161010f9190610fc6565b60405180910390f35b34801561012457600080fd5b50610138610133366004610e96565b61028a565b005b34801561014657600080fd5b50610102610155366004610e7c565b6103af565b34801561016657600080fd5b50610138610175366004610f0f565b61043b565b34801561018657600080fd5b5061010261045d565b34801561019b57600080fd5b50610102610463565b3480156101b057600080fd5b506101386101bf366004610e96565b610469565b3480156101d057600080fd5b50610102610509565b3480156101e557600080fd5b506101f96101f4366004610e7c565b61050f565b60405161010f93929190610fcf565b610138610530565b34801561021c57600080fd5b506101026107a3565b34801561023157600080fd5b506101026107a9565b34801561024657600080fd5b506101386107af565b34801561025b57600080fd5b5061013861026a366004610edf565b6107ba565b34801561027b57600080fd5b506101026108d9565b600d5481565b6000546001600160a01b031633146102a157600080fd5b6001600160a01b038216600090815260086020526040902054156102c8576102c8826108df565b6000811180156102ee57506001600160a01b038216600090815260086020526040902054155b15610301576102fc82610a0a565b610334565b8015801561032657506001600160a01b03821660009081526008602052604090205415155b156103345761033482610a6b565b6001600160a01b03821660009081526008602052604090205460095461036591839161035f91610bb8565b90610bcb565b6009556001600160a01b038216600090815260086020526040902081905561038c81610bd7565b6001600160a01b0390921660009081526008602052604090206001019190915550565b6001600160a01b0381166000908152600860205260408120546103d457506000610436565b6001600160a01b0382166000908152600860205260408120546103f690610bd7565b6001600160a01b03841660009081526008602052604090206001015490915080821161042757600092505050610436565b6104318282610bb8565b925050505b919050565b6000546001600160a01b0316331461045257600080fd5b600e91909155600f55565b60095481565b600f5481565b6000546001600160a01b0316331461048057600080fd5b60015460405163a9059cbb60e01b81526001600160a01b039091169063a9059cbb906104b29085908590600401610f44565b602060405180830381600087803b1580156104cc57600080fd5b505af11580156104e0573d6000803e3d6000fd5b505050506040513d601f19601f820116820180604052508101906105049190610ebf565b505050565b600a5481565b60086020526000908152604090208054600182015460029092015490919083565b6000546001600160a01b0316331461054757600080fd5b6001546040516370a0823160e01b81526000916001600160a01b0316906370a0823190610578903090600401610f30565b60206040518083038186803b15801561059057600080fd5b505afa1580156105a4573d6000803e3d6000fd5b505050506040513d601f19601f820116820180604052508101906105c89190610ef7565b6040805160028082526060820183529293506000929091602083019080368337505060025482519293506001600160a01b03169183915060009061061c57634e487b7160e01b600052603260045260246000fd5b6001600160a01b039283166020918202929092010152600180548351921691839190811061065a57634e487b7160e01b600052603260045260246000fd5b6001600160a01b03928316602091820292909201015260035460405163b6f9de9560e01b815291169063b6f9de959034906106a090600090869030904290600401610f5d565b6000604051808303818588803b1580156106b957600080fd5b505af11580156106cd573d6000803e3d6000fd5b50506001546040516370a0823160e01b81526000945061076193508692506001600160a01b03909116906370a082319061070b903090600401610f30565b60206040518083038186803b15801561072357600080fd5b505afa158015610737573d6000803e3d6000fd5b505050506040513d601f19601f8201168201806040525081019061075b9190610ef7565b90610bb8565b600a549091506107719082610bcb565b600a55600954600d5461079b916107929161078c9085610bfa565b90610c06565b600c5490610bcb565b600c55505050565b600c5481565b600b5481565b6107b8336108df565b565b6000546001600160a01b031633146107d157600080fd5b600554806107df57506108d6565b6000805a905060005b84831080156107f657508381105b156108d157836010541061080a5760006010555b61084a60056010548154811061083057634e487b7160e01b600052603260045260246000fd5b6000918252602090912001546001600160a01b0316610c12565b1561088f5761088f60056010548154811061087557634e487b7160e01b600052603260045260246000fd5b6000918252602090912001546001600160a01b03166108df565b6108a461089d5a8490610bb8565b8490610bcb565b92505a6010805491935060006108b983611053565b919050555080806108c990611053565b9150506107e8565b505050505b50565b600e5481565b6001600160a01b038116600090815260086020526040902054610901576108d6565b600061090c826103af565b90508015610a0657600b546109219082610bcb565b600b5560015460405163a9059cbb60e01b81526001600160a01b039091169063a9059cbb906109569085908590600401610f44565b602060405180830381600087803b15801561097057600080fd5b505af1158015610984573d6000803e3d6000fd5b505050506040513d601f19601f820116820180604052508101906109a89190610ebf565b506001600160a01b038216600090815260076020908152604080832042905560089091529020600201546109dc9082610bcb565b6001600160a01b038316600090815260086020526040902060028101919091555461038c90610bd7565b5050565b600580546001600160a01b039092166000818152600660205260408120849055600184018355919091527f036b6384b5eca791c62761152d0c79bb0604c104a5fb6f4eb0703f3154bb3db090910180546001600160a01b0319169091179055565b60058054610a7b9060019061103c565b81548110610a9957634e487b7160e01b600052603260045260246000fd5b60009182526020808320909101546001600160a01b0384811684526006909252604090922054600580549290931692918110610ae557634e487b7160e01b600052603260045260246000fd5b600091825260208083209190910180546001600160a01b0319166001600160a01b03948516179055918316815260069182905260408120546005805491939291610b319060019061103c565b81548110610b4f57634e487b7160e01b600052603260045260246000fd5b60009182526020808320909101546001600160a01b031683528201929092526040019020556005805480610b9357634e487b7160e01b600052603160045260246000fd5b600082815260209020810160001990810180546001600160a01b031916905501905550565b6000610bc4828461103c565b9392505050565b6000610bc48284610fe5565b6000610bf4600d5461078c600c5485610bfa90919063ffffffff16565b92915050565b6000610bc4828461101d565b6000610bc48284610ffd565b600e546001600160a01b03821660009081526007602052604081205490914291610c3c9190610fe5565b108015610c525750600f54610c50836103af565b115b8015610bf457506004805460408051632846b95160e01b815290516001600160a01b0390921692632846b951928282019260209290829003018186803b158015610c9b57600080fd5b505afa158015610caf573d6000803e3d6000fd5b505050506040513d601f19601f82011682018060405250810190610cd39190610ebf565b1580610bf457506004805460408051632846b95160e01b815290516001600160a01b0390921692632846b951928282019260209290829003018186803b158015610d1c57600080fd5b505afa158015610d30573d6000803e3d6000fd5b505050506040513d601f19601f82011682018060405250810190610d549190610ebf565b8015610bf4575060048054604080516323c53ee360e21b815290516001600160a01b0390921692638f14fb8c928282019260209290829003018186803b158015610d9d57600080fd5b505afa158015610db1573d6000803e3d6000fd5b505050506040513d601f19601f82011682018060405250810190610dd59190610ef7565b600480546040516330355ba960e11b81526001600160a01b039091169163606ab75291610e0491879101610f30565b60206040518083038186803b158015610e1c57600080fd5b505afa158015610e30573d6000803e3d6000fd5b505050506040513d601f19601f82011682018060405250810190610e549190610ef7565b610e5e904261103c565b1092915050565b80356001600160a01b038116811461043657600080fd5b600060208284031215610e8d578081fd5b610bc482610e65565b60008060408385031215610ea8578081fd5b610eb183610e65565b946020939093013593505050565b600060208284031215610ed0578081fd5b81518015158114610bc4578182fd5b600060208284031215610ef0578081fd5b5035919050565b600060208284031215610f08578081fd5b5051919050565b60008060408385031215610f21578182fd5b50508035926020909101359150565b6001600160a01b0391909116815260200190565b6001600160a01b03929092168252602082015260400190565b600060808201868352602060808185015281875180845260a0860191508289019350845b81811015610fa65784516001600160a01b031683529383019391830191600101610f81565b50506001600160a01b039690961660408501525050506060015292915050565b90815260200190565b9283526020830191909152604082015260600190565b60008219821115610ff857610ff861106e565b500190565b60008261101857634e487b7160e01b81526012600452602481fd5b500490565b60008160001904831182151516156110375761103761106e565b500290565b60008282101561104e5761104e61106e565b500390565b60006000198214156110675761106761106e565b5060010190565b634e487b7160e01b600052601160045260246000fdfea26469706673582212203ed48bf215dcc8712fc5d14bddefd66cc6bee9a3ba7c2eb7ae3a0ab98760d66564736f6c63430008000033",
			"opcodes": "PUSH1 0x80 PUSH1 0x40 MSTORE PUSH1 0x2 DUP1 SLOAD PUSH1 0x1 PUSH1 0x1 PUSH1 0xA0 SHL SUB NOT SWAP1 DUP2 AND PUSH20 0xBA2AE424D960C26247DD6C32EDC70B295C744C43 OR SWAP1 SWAP2 SSTORE PUSH1 0x3 DUP1 SLOAD DUP3 AND PUSH20 0xBB4CDB9CBD36B01BD1CBAEBF2DE08D9173BC095C OR SWAP1 SSTORE PUSH1 0x4 DUP1 SLOAD DUP3 AND PUSH2 0xDEAD SWAP1 DUP2 OR SWAP1 SWAP2 SSTORE PUSH1 0x5 DUP1 SLOAD DUP4 AND SWAP1 SSTORE PUSH1 0x6 DUP1 SLOAD SWAP1 SWAP3 AND OR SWAP1 SSTORE PUSH3 0x7A PUSH1 0x9 PUSH1 0xA PUSH3 0x888 JUMP JUMPDEST PUSH3 0x8D SWAP1 PUSH7 0x38D7EA4C68000 PUSH3 0x973 JUMP JUMPDEST PUSH1 0x7 SSTORE PUSH3 0xAE PUSH2 0x190 PUSH1 0x7 SLOAD PUSH3 0x552 PUSH1 0x20 SHL PUSH3 0x1FD1 OR SWAP1 SWAP2 SWAP1 PUSH1 0x20 SHR JUMP JUMPDEST PUSH1 0x8 SSTORE PUSH1 0xC8 PUSH1 0xE DUP2 SWAP1 SSTORE PUSH2 0x12C PUSH1 0xF SSTORE PUSH2 0x320 PUSH1 0x10 SSTORE PUSH1 0x64 PUSH1 0x11 DUP2 SWAP1 SSTORE PUSH2 0x578 PUSH1 0x12 SSTORE PUSH2 0x2710 PUSH1 0x13 SSTORE PUSH1 0x19 PUSH1 0x16 SSTORE PUSH1 0x17 DUP2 SWAP1 SSTORE PUSH1 0x1C SWAP2 SWAP1 SWAP2 SSTORE PUSH1 0x1D SSTORE PUSH2 0x708 PUSH1 0x1F SSTORE PUSH1 0x20 DUP1 SLOAD PUSH1 0xFF NOT SWAP1 DUP2 AND SWAP1 SWAP2 SSTORE PUSH3 0x7A120 PUSH1 0x29 SSTORE PUSH1 0x2A DUP1 SLOAD SWAP1 SWAP2 AND PUSH1 0x1 OR SWAP1 SSTORE PUSH1 0x7 SLOAD PUSH3 0x122 SWAP1 PUSH2 0x7D0 SWAP1 PUSH3 0x81A JUMP JUMPDEST PUSH1 0x2B SSTORE PUSH1 0x2C DUP1 SLOAD PUSH2 0xFF00 NOT AND SWAP1 SSTORE PUSH3 0x76A700 PUSH1 0x2E SSTORE PUSH2 0xE10 PUSH1 0x32 SSTORE PUSH1 0x35 DUP1 SLOAD PUSH1 0xFF NOT AND SWAP1 SSTORE PUSH1 0x39 DUP1 SLOAD PUSH4 0xFF000000 NOT PUSH3 0xFF0000 NOT PUSH2 0xFFFF NOT SWAP1 SWAP3 AND PUSH2 0x100 OR SWAP2 SWAP1 SWAP2 AND PUSH3 0x10000 OR AND PUSH4 0x1000000 OR SWAP1 SSTORE CALLVALUE DUP1 ISZERO PUSH3 0x180 JUMPI PUSH1 0x0 DUP1 REVERT JUMPDEST POP PUSH1 0x40 MLOAD PUSH3 0x52F7 CODESIZE SUB DUP1 PUSH3 0x52F7 DUP4 CODECOPY DUP2 ADD PUSH1 0x40 DUP2 SWAP1 MSTORE PUSH3 0x1A3 SWAP2 PUSH3 0x7CE JUMP JUMPDEST PUSH1 0x0 DUP1 SLOAD PUSH1 0x1 PUSH1 0x1 PUSH1 0xA0 SHL SUB NOT SWAP1 DUP2 AND CALLER SWAP1 DUP2 OR DUP4 SSTORE DUP3 MSTORE PUSH1 0x1 PUSH1 0x20 DUP2 DUP2 MSTORE PUSH1 0x40 SWAP4 DUP5 SWAP1 KECCAK256 DUP1 SLOAD PUSH1 0xFF NOT AND SWAP1 SWAP3 OR SWAP1 SWAP2 SSTORE PUSH1 0x18 DUP1 SLOAD PUSH1 0x1 PUSH1 0x1 PUSH1 0xA0 SHL SUB DUP7 DUP2 AND SWAP2 SWAP1 SWAP5 AND OR SWAP1 DUP2 SWAP1 SSTORE DUP4 MLOAD PUSH4 0xC45A0155 PUSH1 0xE0 SHL DUP2 MSTORE SWAP4 MLOAD SWAP3 AND SWAP3 PUSH4 0xC45A0155 SWAP3 PUSH1 0x4 DUP1 DUP4 ADD SWAP4 SWAP3 DUP3 SWAP1 SUB ADD DUP2 DUP7 DUP1 EXTCODESIZE ISZERO DUP1 ISZERO PUSH3 0x21F JUMPI PUSH1 0x0 DUP1 REVERT JUMPDEST POP GAS STATICCALL ISZERO DUP1 ISZERO PUSH3 0x234 JUMPI RETURNDATASIZE PUSH1 0x0 DUP1 RETURNDATACOPY RETURNDATASIZE PUSH1 0x0 REVERT JUMPDEST POP POP POP POP PUSH1 0x40 MLOAD RETURNDATASIZE PUSH1 0x1F NOT PUSH1 0x1F DUP3 ADD AND DUP3 ADD DUP1 PUSH1 0x40 MSTORE POP DUP2 ADD SWAP1 PUSH3 0x25A SWAP2 SWAP1 PUSH3 0x7CE JUMP JUMPDEST PUSH1 0x3 SLOAD PUSH1 0x40 MLOAD PUSH4 0x64E329CB PUSH1 0xE1 SHL DUP2 MSTORE PUSH1 0x1 PUSH1 0x1 PUSH1 0xA0 SHL SUB SWAP3 DUP4 AND SWAP3 PUSH4 0xC9C65396 SWAP3 PUSH3 0x28F SWAP3 SWAP2 AND SWAP1 ADDRESS SWAP1 PUSH1 0x4 ADD PUSH3 0x7F7 JUMP JUMPDEST PUSH1 0x20 PUSH1 0x40 MLOAD DUP1 DUP4 SUB DUP2 PUSH1 0x0 DUP8 DUP1 EXTCODESIZE ISZERO DUP1 ISZERO PUSH3 0x2AA JUMPI PUSH1 0x0 DUP1 REVERT JUMPDEST POP GAS CALL ISZERO DUP1 ISZERO PUSH3 0x2BF JUMPI RETURNDATASIZE PUSH1 0x0 DUP1 RETURNDATACOPY RETURNDATASIZE PUSH1 0x0 REVERT JUMPDEST POP POP POP POP PUSH1 0x40 MLOAD RETURNDATASIZE PUSH1 0x1F NOT PUSH1 0x1F DUP3 ADD AND DUP3 ADD DUP1 PUSH1 0x40 MSTORE POP DUP2 ADD SWAP1 PUSH3 0x2E5 SWAP2 SWAP1 PUSH3 0x7CE JUMP JUMPDEST PUSH1 0x19 DUP1 SLOAD PUSH1 0x1 PUSH1 0x1 PUSH1 0xA0 SHL SUB NOT AND PUSH1 0x1 PUSH1 0x1 PUSH1 0xA0 SHL SUB SWAP3 DUP4 AND OR SWAP1 SSTORE PUSH1 0x7 SLOAD ADDRESS PUSH1 0x0 SWAP1 DUP2 MSTORE PUSH1 0xA PUSH1 0x20 SWAP1 DUP2 MSTORE PUSH1 0x40 DUP1 DUP4 KECCAK256 PUSH1 0x18 DUP1 SLOAD DUP8 AND DUP6 MSTORE SWAP1 DUP4 MSTORE SWAP3 DUP2 SWAP1 KECCAK256 SWAP4 SWAP1 SWAP4 SSTORE SWAP1 SLOAD DUP3 MLOAD PUSH4 0x15AB88C9 PUSH1 0xE3 SHL DUP2 MSTORE SWAP3 MLOAD SWAP4 AND SWAP3 PUSH4 0xAD5C4648 SWAP3 PUSH1 0x4 DUP1 DUP3 ADD SWAP4 SWAP3 SWAP2 DUP3 SWAP1 SUB ADD DUP2 DUP7 DUP1 EXTCODESIZE ISZERO DUP1 ISZERO PUSH3 0x35F JUMPI PUSH1 0x0 DUP1 REVERT JUMPDEST POP GAS STATICCALL ISZERO DUP1 ISZERO PUSH3 0x374 JUMPI RETURNDATASIZE PUSH1 0x0 DUP1 RETURNDATACOPY RETURNDATASIZE PUSH1 0x0 REVERT JUMPDEST POP POP POP POP PUSH1 0x40 MLOAD RETURNDATASIZE PUSH1 0x1F NOT PUSH1 0x1F DUP3 ADD AND DUP3 ADD DUP1 PUSH1 0x40 MSTORE POP DUP2 ADD SWAP1 PUSH3 0x39A SWAP2 SWAP1 PUSH3 0x7CE JUMP JUMPDEST PUSH1 0x3 PUSH1 0x0 PUSH2 0x100 EXP DUP2 SLOAD DUP2 PUSH1 0x1 PUSH1 0x1 PUSH1 0xA0 SHL SUB MUL NOT AND SWAP1 DUP4 PUSH1 0x1 PUSH1 0x1 PUSH1 0xA0 SHL SUB AND MUL OR SWAP1 SSTORE POP DUP1 ADDRESS PUSH1 0x40 MLOAD PUSH3 0x3D0 SWAP1 PUSH3 0x7C0 JUMP JUMPDEST PUSH3 0x3DD SWAP3 SWAP2 SWAP1 PUSH3 0x7F7 JUMP JUMPDEST PUSH1 0x40 MLOAD DUP1 SWAP2 SUB SWAP1 PUSH1 0x0 CREATE DUP1 ISZERO DUP1 ISZERO PUSH3 0x3FA JUMPI RETURNDATASIZE PUSH1 0x0 DUP1 RETURNDATACOPY RETURNDATASIZE PUSH1 0x0 REVERT JUMPDEST POP PUSH1 0x27 DUP1 SLOAD PUSH1 0x1 PUSH1 0x1 PUSH1 0xA0 SHL SUB SWAP3 DUP4 AND PUSH1 0x1 PUSH1 0x1 PUSH1 0xA0 SHL SUB NOT SWAP2 DUP3 AND OR SWAP2 DUP3 SWAP1 SSTORE PUSH1 0x28 DUP1 SLOAD DUP3 AND SWAP3 DUP5 AND SWAP3 SWAP1 SWAP3 OR SWAP1 SWAP2 SSTORE CALLER PUSH1 0x0 DUP2 DUP2 MSTORE PUSH1 0xB PUSH1 0x20 SWAP1 DUP2 MSTORE PUSH1 0x40 DUP1 DUP4 KECCAK256 DUP1 SLOAD PUSH1 0xFF NOT SWAP1 DUP2 AND PUSH1 0x1 SWAP1 DUP2 OR SWAP1 SWAP3 SSTORE PUSH1 0xC DUP5 MSTORE DUP3 DUP6 KECCAK256 DUP1 SLOAD DUP3 AND DUP4 OR SWAP1 SSTORE PUSH1 0x19 SLOAD DUP9 AND DUP6 MSTORE PUSH1 0xD DUP5 MSTORE DUP3 DUP6 KECCAK256 DUP1 SLOAD DUP3 AND DUP4 OR SWAP1 SSTORE ADDRESS DUP6 MSTORE DUP3 DUP6 KECCAK256 DUP1 SLOAD DUP3 AND DUP4 OR SWAP1 SSTORE PUSH1 0x4 SLOAD SWAP1 SWAP8 AND DUP5 MSTORE DUP2 DUP5 KECCAK256 DUP1 SLOAD DUP9 AND DUP3 OR SWAP1 SSTORE DUP5 DUP5 MSTORE PUSH1 0x21 SWAP1 SWAP3 MSTORE SWAP1 SWAP2 KECCAK256 DUP1 SLOAD SWAP1 SWAP5 AND OR SWAP1 SWAP3 SSTORE PUSH1 0x14 DUP1 SLOAD DUP3 AND DUP4 OR SWAP1 SSTORE PUSH1 0x15 DUP1 SLOAD SWAP1 SWAP2 AND SWAP1 SWAP2 OR SWAP1 SSTORE PUSH1 0x7 SLOAD PUSH3 0x4CD SWAP1 DUP3 SWAP1 PUSH3 0x567 JUMP JUMPDEST POP PUSH1 0x19 SLOAD PUSH1 0x7 SLOAD PUSH3 0x4E9 SWAP2 PUSH1 0x1 PUSH1 0x1 PUSH1 0xA0 SHL SUB AND SWAP1 PUSH3 0x567 JUMP JUMPDEST POP PUSH1 0x7 SLOAD CALLER PUSH1 0x0 SWAP1 DUP2 MSTORE PUSH1 0x9 PUSH1 0x20 MSTORE PUSH1 0x40 SWAP1 KECCAK256 SSTORE PUSH3 0x507 PUSH3 0x5D3 JUMP JUMPDEST TIMESTAMP PUSH1 0x37 SSTORE PUSH1 0x7 SLOAD PUSH1 0x40 MLOAD CALLER SWAP2 PUSH1 0x0 SWAP2 PUSH32 0xDDF252AD1BE2C89B69C2B068FC378DAA952BA7F163C4A11628F55A4DF523B3EF SWAP2 PUSH3 0x543 SWAP2 PUSH3 0x811 JUMP JUMPDEST PUSH1 0x40 MLOAD DUP1 SWAP2 SUB SWAP1 LOG3 POP PUSH3 0x9D0 JUMP JUMPDEST PUSH1 0x0 PUSH3 0x560 DUP3 DUP5 PUSH3 0x81A JUMP JUMPDEST SWAP4 SWAP3 POP POP POP JUMP JUMPDEST CALLER PUSH1 0x0 DUP2 DUP2 MSTORE PUSH1 0xA PUSH1 0x20 SWAP1 DUP2 MSTORE PUSH1 0x40 DUP1 DUP4 KECCAK256 PUSH1 0x1 PUSH1 0x1 PUSH1 0xA0 SHL SUB DUP8 AND DUP1 DUP6 MSTORE SWAP3 MSTORE DUP1 DUP4 KECCAK256 DUP6 SWAP1 SSTORE MLOAD SWAP2 SWAP3 SWAP1 SWAP2 PUSH32 0x8C5BE1E5EBEC7D5BD14F71427D1E84F3DD0314C0F7B2291E5B200AC8C7C3B925 SWAP1 PUSH3 0x5C2 SWAP1 DUP7 SWAP1 PUSH3 0x811 JUMP JUMPDEST PUSH1 0x40 MLOAD DUP1 SWAP2 SUB SWAP1 LOG3 POP PUSH1 0x1 SWAP3 SWAP2 POP POP JUMP JUMPDEST PUSH1 0x1 JUMPDEST PUSH2 0x16D DUP2 PUSH2 0xFFFF AND GT PUSH3 0x7BD JUMPI DUP1 PUSH2 0xFFFF AND PUSH1 0x1 EQ ISZERO PUSH3 0x610 JUMPI PUSH2 0xFFFF DUP2 AND PUSH1 0x0 SWAP1 DUP2 MSTORE PUSH1 0x3C PUSH1 0x20 MSTORE PUSH1 0x40 SWAP1 KECCAK256 PUSH2 0xE10 SWAP1 SSTORE PUSH3 0x7A8 JUMP JUMPDEST PUSH1 0x2 DUP2 PUSH2 0xFFFF AND LT ISZERO DUP1 ISZERO PUSH3 0x62B JUMPI POP PUSH1 0x3 DUP2 PUSH2 0xFFFF AND GT ISZERO JUMPDEST ISZERO PUSH3 0x64F JUMPI PUSH2 0xFFFF DUP2 AND PUSH1 0x0 SWAP1 DUP2 MSTORE PUSH1 0x3C PUSH1 0x20 MSTORE PUSH1 0x40 SWAP1 KECCAK256 PUSH2 0x1C20 SWAP1 SSTORE PUSH3 0x7A8 JUMP JUMPDEST PUSH1 0x4 DUP2 PUSH2 0xFFFF AND LT ISZERO DUP1 ISZERO PUSH3 0x66A JUMPI POP PUSH1 0x7 DUP2 PUSH2 0xFFFF AND GT ISZERO JUMPDEST ISZERO PUSH3 0x68E JUMPI PUSH2 0xFFFF DUP2 AND PUSH1 0x0 SWAP1 DUP2 MSTORE PUSH1 0x3C PUSH1 0x20 MSTORE PUSH1 0x40 SWAP1 KECCAK256 PUSH2 0x3840 SWAP1 SSTORE PUSH3 0x7A8 JUMP JUMPDEST PUSH1 0x8 DUP2 PUSH2 0xFFFF AND LT ISZERO DUP1 ISZERO PUSH3 0x6A9 JUMPI POP PUSH1 0x1F DUP2 PUSH2 0xFFFF AND GT ISZERO JUMPDEST ISZERO PUSH3 0x6CD JUMPI PUSH2 0xFFFF DUP2 AND PUSH1 0x0 SWAP1 DUP2 MSTORE PUSH1 0x3C PUSH1 0x20 MSTORE PUSH1 0x40 SWAP1 KECCAK256 PUSH2 0x7080 SWAP1 SSTORE PUSH3 0x7A8 JUMP JUMPDEST PUSH1 0x20 DUP2 PUSH2 0xFFFF AND LT ISZERO DUP1 ISZERO PUSH3 0x6E8 JUMPI POP PUSH1 0x5A DUP2 PUSH2 0xFFFF AND GT ISZERO JUMPDEST ISZERO PUSH3 0x70D JUMPI PUSH2 0xFFFF DUP2 AND PUSH1 0x0 SWAP1 DUP2 MSTORE PUSH1 0x3C PUSH1 0x20 MSTORE PUSH1 0x40 SWAP1 KECCAK256 PUSH3 0x15180 SWAP1 SSTORE PUSH3 0x7A8 JUMP JUMPDEST PUSH1 0x5B DUP2 PUSH2 0xFFFF AND LT ISZERO DUP1 ISZERO PUSH3 0x728 JUMPI POP PUSH1 0xB4 DUP2 PUSH2 0xFFFF AND GT ISZERO JUMPDEST ISZERO PUSH3 0x74D JUMPI PUSH2 0xFFFF DUP2 AND PUSH1 0x0 SWAP1 DUP2 MSTORE PUSH1 0x3C PUSH1 0x20 MSTORE PUSH1 0x40 SWAP1 KECCAK256 PUSH3 0x3F480 SWAP1 SSTORE PUSH3 0x7A8 JUMP JUMPDEST PUSH1 0xB5 DUP2 PUSH2 0xFFFF AND LT ISZERO DUP1 ISZERO PUSH3 0x769 JUMPI POP PUSH2 0x16D DUP2 PUSH2 0xFFFF AND GT ISZERO JUMPDEST ISZERO PUSH3 0x78E JUMPI PUSH2 0xFFFF DUP2 AND PUSH1 0x0 SWAP1 DUP2 MSTORE PUSH1 0x3C PUSH1 0x20 MSTORE PUSH1 0x40 SWAP1 KECCAK256 PUSH3 0x69780 SWAP1 SSTORE PUSH3 0x7A8 JUMP JUMPDEST PUSH2 0xFFFF DUP2 AND PUSH1 0x0 SWAP1 DUP2 MSTORE PUSH1 0x3C PUSH1 0x20 MSTORE PUSH1 0x40 SWAP1 KECCAK256 PUSH3 0x278D00 SWAP1 SSTORE JUMPDEST DUP1 PUSH3 0x7B4 DUP2 PUSH3 0x995 JUMP JUMPDEST SWAP2 POP POP PUSH3 0x5D6 JUMP JUMPDEST POP JUMP JUMPDEST PUSH2 0x121C DUP1 PUSH3 0x40DB DUP4 CODECOPY ADD SWAP1 JUMP JUMPDEST PUSH1 0x0 PUSH1 0x20 DUP3 DUP5 SUB SLT ISZERO PUSH3 0x7E0 JUMPI DUP1 DUP2 REVERT JUMPDEST DUP2 MLOAD PUSH1 0x1 PUSH1 0x1 PUSH1 0xA0 SHL SUB DUP2 AND DUP2 EQ PUSH3 0x560 JUMPI DUP2 DUP3 REVERT JUMPDEST PUSH1 0x1 PUSH1 0x1 PUSH1 0xA0 SHL SUB SWAP3 DUP4 AND DUP2 MSTORE SWAP2 AND PUSH1 0x20 DUP3 ADD MSTORE PUSH1 0x40 ADD SWAP1 JUMP JUMPDEST SWAP1 DUP2 MSTORE PUSH1 0x20 ADD SWAP1 JUMP JUMPDEST PUSH1 0x0 DUP3 PUSH3 0x836 JUMPI PUSH4 0x4E487B71 PUSH1 0xE0 SHL DUP2 MSTORE PUSH1 0x12 PUSH1 0x4 MSTORE PUSH1 0x24 DUP2 REVERT JUMPDEST POP DIV SWAP1 JUMP JUMPDEST DUP1 DUP3 JUMPDEST PUSH1 0x1 DUP1 DUP7 GT PUSH3 0x84F JUMPI POP PUSH3 0x87F JUMP JUMPDEST DUP2 DUP8 DIV DUP3 GT ISZERO PUSH3 0x864 JUMPI PUSH3 0x864 PUSH3 0x9BA JUMP JUMPDEST DUP1 DUP7 AND ISZERO PUSH3 0x872 JUMPI SWAP2 DUP2 MUL SWAP2 JUMPDEST SWAP5 SWAP1 SWAP5 SHR SWAP4 DUP1 MUL PUSH3 0x83E JUMP JUMPDEST SWAP5 POP SWAP5 SWAP3 POP POP POP JUMP JUMPDEST PUSH1 0x0 PUSH3 0x560 PUSH1 0x0 NOT PUSH1 0xFF DUP6 AND DUP5 PUSH1 0x0 DUP3 PUSH3 0x8A7 JUMPI POP PUSH1 0x1 PUSH3 0x560 JUMP JUMPDEST DUP2 PUSH3 0x8B6 JUMPI POP PUSH1 0x0 PUSH3 0x560 JUMP JUMPDEST DUP2 PUSH1 0x1 DUP2 EQ PUSH3 0x8CF JUMPI PUSH1 0x2 DUP2 EQ PUSH3 0x8DA JUMPI PUSH3 0x90E JUMP JUMPDEST PUSH1 0x1 SWAP2 POP POP PUSH3 0x560 JUMP JUMPDEST PUSH1 0xFF DUP5 GT ISZERO PUSH3 0x8EE JUMPI PUSH3 0x8EE PUSH3 0x9BA JUMP JUMPDEST PUSH1 0x1 DUP5 SHL SWAP2 POP DUP5 DUP3 GT ISZERO PUSH3 0x907 JUMPI PUSH3 0x907 PUSH3 0x9BA JUMP JUMPDEST POP PUSH3 0x560 JUMP JUMPDEST POP PUSH1 0x20 DUP4 LT PUSH2 0x133 DUP4 LT AND PUSH1 0x4E DUP5 LT PUSH1 0xB DUP5 LT AND OR ISZERO PUSH3 0x946 JUMPI POP DUP2 DUP2 EXP DUP4 DUP2 GT ISZERO PUSH3 0x940 JUMPI PUSH3 0x940 PUSH3 0x9BA JUMP JUMPDEST PUSH3 0x560 JUMP JUMPDEST PUSH3 0x955 DUP5 DUP5 DUP5 PUSH1 0x1 PUSH3 0x83B JUMP JUMPDEST DUP1 DUP7 DIV DUP3 GT ISZERO PUSH3 0x96A JUMPI PUSH3 0x96A PUSH3 0x9BA JUMP JUMPDEST MUL SWAP5 SWAP4 POP POP POP POP JUMP JUMPDEST PUSH1 0x0 DUP2 PUSH1 0x0 NOT DIV DUP4 GT DUP3 ISZERO ISZERO AND ISZERO PUSH3 0x990 JUMPI PUSH3 0x990 PUSH3 0x9BA JUMP JUMPDEST POP MUL SWAP1 JUMP JUMPDEST PUSH1 0x0 PUSH2 0xFFFF DUP1 DUP4 AND DUP2 DUP2 EQ ISZERO PUSH3 0x9B0 JUMPI PUSH3 0x9B0 PUSH3 0x9BA JUMP JUMPDEST PUSH1 0x1 ADD SWAP4 SWAP3 POP POP POP JUMP JUMPDEST PUSH4 0x4E487B71 PUSH1 0xE0 SHL PUSH1 0x0 MSTORE PUSH1 0x11 PUSH1 0x4 MSTORE PUSH1 0x24 PUSH1 0x0 REVERT JUMPDEST PUSH2 0x36FB DUP1 PUSH3 0x9E0 PUSH1 0x0 CODECOPY PUSH1 0x0 RETURN INVALID PUSH1 0x80 PUSH1 0x40 MSTORE PUSH1 0x4 CALLDATASIZE LT PUSH2 0x46C JUMPI PUSH1 0x0 CALLDATALOAD PUSH1 0xE0 SHR DUP1 PUSH4 0x8DD95002 GT PUSH2 0x24A JUMPI DUP1 PUSH4 0xD12F24EF GT PUSH2 0x139 JUMPI DUP1 PUSH4 0xF0B37C04 GT PUSH2 0xB6 JUMPI DUP1 PUSH4 0xF5CFEC0A GT PUSH2 0x7A JUMPI DUP1 PUSH4 0xF5CFEC0A EQ PUSH2 0xCB1 JUMPI DUP1 PUSH4 0xF708A64F EQ PUSH2 0xCD1 JUMPI DUP1 PUSH4 0xF84BA65D EQ PUSH2 0xCF1 JUMPI DUP1 PUSH4 0xF887EA40 EQ PUSH2 0xD11 JUMPI DUP1 PUSH4 0xFE9FBB80 EQ PUSH2 0xD26 JUMPI PUSH2 0x473 JUMP JUMPDEST DUP1 PUSH4 0xF0B37C04 EQ PUSH2 0xC1C JUMPI DUP1 PUSH4 0xF1F3BCA3 EQ PUSH2 0xC3C JUMPI DUP1 PUSH4 0xF2FDE38B EQ PUSH2 0xC5C JUMPI DUP1 PUSH4 0xF31079FB EQ PUSH2 0xC7C JUMPI DUP1 PUSH4 0xF378696A EQ PUSH2 0xC91 JUMPI PUSH2 0x473 JUMP JUMPDEST DUP1 PUSH4 0xDD62ED3E GT PUSH2 0xFD JUMPI DUP1 PUSH4 0xDD62ED3E EQ PUSH2 0xB92 JUMPI DUP1 PUSH4 0xDF20FD49 EQ PUSH2 0xBB2 JUMPI DUP1 PUSH4 0xE74EF52E EQ PUSH2 0xBD2 JUMPI DUP1 PUSH4 0xE91F214E EQ PUSH2 0xBF2 JUMPI DUP1 PUSH4 0xE96FADA2 EQ PUSH2 0xC07 JUMPI PUSH2 0x473 JUMP JUMPDEST DUP1 PUSH4 0xD12F24EF EQ PUSH2 0xB1E JUMPI DUP1 PUSH4 0xD3CD253C EQ PUSH2 0xB33 JUMPI DUP1 PUSH4 0xD51ED1C8 EQ PUSH2 0xB48 JUMPI DUP1 PUSH4 0xD806D12F EQ PUSH2 0xB68 JUMPI DUP1 PUSH4 0xDB882E04 EQ PUSH2 0xB7D JUMPI PUSH2 0x473 JUMP JUMPDEST DUP1 PUSH4 0xA8AA1B31 GT PUSH2 0x1C7 JUMPI DUP1 PUSH4 0xB83F9599 GT PUSH2 0x18B JUMPI DUP1 PUSH4 0xB83F9599 EQ PUSH2 0xA9F JUMPI DUP1 PUSH4 0xBF56B371 EQ PUSH2 0xABF JUMPI DUP1 PUSH4 0xC0F71B80 EQ PUSH2 0xAD4 JUMPI DUP1 PUSH4 0xC6D2577D EQ PUSH2 0xAF4 JUMPI DUP1 PUSH4 0xCA33E64C EQ PUSH2 0xB09 JUMPI PUSH2 0x473 JUMP JUMPDEST DUP1 PUSH4 0xA8AA1B31 EQ PUSH2 0xA15 JUMPI DUP1 PUSH4 0xA9059CBB EQ PUSH2 0xA2A JUMPI DUP1 PUSH4 0xB210B06D EQ PUSH2 0xA4A JUMPI DUP1 PUSH4 0xB3949821 EQ PUSH2 0xA5F JUMPI DUP1 PUSH4 0xB6A5D7DE EQ PUSH2 0xA7F JUMPI PUSH2 0x473 JUMP JUMPDEST DUP1 PUSH4 0x9D1944F5 GT PUSH2 0x20E JUMPI DUP1 PUSH4 0x9D1944F5 EQ PUSH2 0x989 JUMPI DUP1 PUSH4 0xA2056E94 EQ PUSH2 0x9A9 JUMPI DUP1 PUSH4 0xA39FAC12 EQ PUSH2 0x9BE JUMPI DUP1 PUSH4 0xA4B45C00 EQ PUSH2 0x9E0 JUMPI DUP1 PUSH4 0xA51AF4C5 EQ PUSH2 0xA00 JUMPI PUSH2 0x473 JUMP JUMPDEST DUP1 PUSH4 0x8DD95002 EQ PUSH2 0x90A JUMPI DUP1 PUSH4 0x8F14FB8C EQ PUSH2 0x91F JUMPI DUP1 PUSH4 0x8FE42F46 EQ PUSH2 0x934 JUMPI DUP1 PUSH4 0x95D89B41 EQ PUSH2 0x954 JUMPI DUP1 PUSH4 0x989F06D7 EQ PUSH2 0x969 JUMPI PUSH2 0x473 JUMP JUMPDEST DUP1 PUSH4 0x2D48E896 GT PUSH2 0x366 JUMPI DUP1 PUSH4 0x5C85974F GT PUSH2 0x2E3 JUMPI DUP1 PUSH4 0x725DDF4A GT PUSH2 0x2A7 JUMPI DUP1 PUSH4 0x725DDF4A EQ PUSH2 0x873 JUMPI DUP1 PUSH4 0x7434C1E0 EQ PUSH2 0x893 JUMPI DUP1 PUSH4 0x7D1DB4A5 EQ PUSH2 0x8B3 JUMPI DUP1 PUSH4 0x82723192 EQ PUSH2 0x8C8 JUMPI DUP1 PUSH4 0x893D20E8 EQ PUSH2 0x8E8 JUMPI PUSH2 0x473 JUMP JUMPDEST DUP1 PUSH4 0x5C85974F EQ PUSH2 0x7DE JUMPI DUP1 PUSH4 0x606AB752 EQ PUSH2 0x7FE JUMPI DUP1 PUSH4 0x658D4B7F EQ PUSH2 0x81E JUMPI DUP1 PUSH4 0x6DDD1713 EQ PUSH2 0x83E JUMPI DUP1 PUSH4 0x70A08231 EQ PUSH2 0x853 JUMPI PUSH2 0x473 JUMP JUMPDEST DUP1 PUSH4 0x4247C00E GT PUSH2 0x32A JUMPI DUP1 PUSH4 0x4247C00E EQ PUSH2 0x754 JUMPI DUP1 PUSH4 0x45AECF05 EQ PUSH2 0x774 JUMPI DUP1 PUSH4 0x4BE1B5E4 EQ PUSH2 0x794 JUMPI DUP1 PUSH4 0x4ED0B76D EQ PUSH2 0x7A9 JUMPI DUP1 PUSH4 0x571AC8B0 EQ PUSH2 0x7BE JUMPI PUSH2 0x473 JUMP JUMPDEST DUP1 PUSH4 0x2D48E896 EQ PUSH2 0x6BD JUMPI DUP1 PUSH4 0x2F54BF6E EQ PUSH2 0x6DD JUMPI DUP1 PUSH4 0x313CE567 EQ PUSH2 0x6FD JUMPI DUP1 PUSH4 0x3BB8A8D4 EQ PUSH2 0x71F JUMPI DUP1 PUSH4 0x40F0A14A EQ PUSH2 0x734 JUMPI PUSH2 0x473 JUMP JUMPDEST DUP1 PUSH4 0x18B20071 GT PUSH2 0x3F4 JUMPI DUP1 PUSH4 0x25449AC4 GT PUSH2 0x3B8 JUMPI DUP1 PUSH4 0x25449AC4 EQ PUSH2 0x63E JUMPI DUP1 PUSH4 0x2846B951 EQ PUSH2 0x65E JUMPI DUP1 PUSH4 0x29D7150C EQ PUSH2 0x673 JUMPI DUP1 PUSH4 0x2B0EA03D EQ PUSH2 0x688 JUMPI DUP1 PUSH4 0x2B112E49 EQ PUSH2 0x6A8 JUMPI PUSH2 0x473 JUMP JUMPDEST DUP1 PUSH4 0x18B20071 EQ PUSH2 0x59E JUMPI DUP1 PUSH4 0x1BBCCE44 EQ PUSH2 0x5BE JUMPI DUP1 PUSH4 0x201E7991 EQ PUSH2 0x5DE JUMPI DUP1 PUSH4 0x2375CE40 EQ PUSH2 0x5FE JUMPI DUP1 PUSH4 0x23B872DD EQ PUSH2 0x61E JUMPI PUSH2 0x473 JUMP JUMPDEST DUP1 PUSH4 0x6FDDE03 GT PUSH2 0x43B JUMPI DUP1 PUSH4 0x6FDDE03 EQ PUSH2 0x4FA JUMPI DUP1 PUSH4 0x95EA7B3 EQ PUSH2 0x51C JUMPI DUP1 PUSH4 0x1161AE39 EQ PUSH2 0x549 JUMPI DUP1 PUSH4 0x16DEF05E EQ PUSH2 0x569 JUMPI DUP1 PUSH4 0x18160DDD EQ PUSH2 0x589 JUMPI PUSH2 0x473 JUMP JUMPDEST DUP1 PUSH4 0x1339C21 EQ PUSH2 0x478 JUMPI DUP1 PUSH4 0x445B667 EQ PUSH2 0x48F JUMPI DUP1 PUSH4 0x48C7BAF EQ PUSH2 0x4BA JUMPI DUP1 PUSH4 0x4A66B48 EQ PUSH2 0x4DA JUMPI PUSH2 0x473 JUMP JUMPDEST CALLDATASIZE PUSH2 0x473 JUMPI STOP JUMPDEST PUSH1 0x0 DUP1 REVERT JUMPDEST CALLVALUE DUP1 ISZERO PUSH2 0x484 JUMPI PUSH1 0x0 DUP1 REVERT JUMPDEST POP PUSH2 0x48D PUSH2 0xD46 JUMP JUMPDEST STOP JUMPDEST CALLVALUE DUP1 ISZERO PUSH2 0x49B JUMPI PUSH1 0x0 DUP1 REVERT JUMPDEST POP PUSH2 0x4A4 PUSH2 0xD9E JUMP JUMPDEST PUSH1 0x40 MLOAD PUSH2 0x4B1 SWAP2 SWAP1 PUSH2 0x358B JUMP JUMPDEST PUSH1 0x40 MLOAD DUP1 SWAP2 SUB SWAP1 RETURN JUMPDEST CALLVALUE DUP1 ISZERO PUSH2 0x4C6 JUMPI PUSH1 0x0 DUP1 REVERT JUMPDEST POP PUSH2 0x48D PUSH2 0x4D5 CALLDATASIZE PUSH1 0x4 PUSH2 0x318C JUMP JUMPDEST PUSH2 0xDA4 JUMP JUMPDEST CALLVALUE DUP1 ISZERO PUSH2 0x4E6 JUMPI PUSH1 0x0 DUP1 REVERT JUMPDEST POP PUSH2 0x48D PUSH2 0x4F5 CALLDATASIZE PUSH1 0x4 PUSH2 0x327B JUMP JUMPDEST PUSH2 0xDF2 JUMP JUMPDEST CALLVALUE DUP1 ISZERO PUSH2 0x506 JUMPI PUSH1 0x0 DUP1 REVERT JUMPDEST POP PUSH2 0x50F PUSH2 0xE68 JUMP JUMPDEST PUSH1 0x40 MLOAD PUSH2 0x4B1 SWAP2 SWAP1 PUSH2 0x33B3 JUMP JUMPDEST CALLVALUE DUP1 ISZERO PUSH2 0x528 JUMPI PUSH1 0x0 DUP1 REVERT JUMPDEST POP PUSH2 0x53C PUSH2 0x537 CALLDATASIZE PUSH1 0x4 PUSH2 0x306B JUMP JUMPDEST PUSH2 0xE8E JUMP JUMPDEST PUSH1 0x40 MLOAD PUSH2 0x4B1 SWAP2 SWAP1 PUSH2 0x3373 JUMP JUMPDEST CALLVALUE DUP1 ISZERO PUSH2 0x555 JUMPI PUSH1 0x0 DUP1 REVERT JUMPDEST POP PUSH2 0x53C PUSH2 0x564 CALLDATASIZE PUSH1 0x4 PUSH2 0x3202 JUMP JUMPDEST PUSH2 0xEF8 JUMP JUMPDEST CALLVALUE DUP1 ISZERO PUSH2 0x575 JUMPI PUSH1 0x0 DUP1 REVERT JUMPDEST POP PUSH2 0x48D PUSH2 0x584 CALLDATASIZE PUSH1 0x4 PUSH2 0x3137 JUMP JUMPDEST PUSH2 0xF0C JUMP JUMPDEST CALLVALUE DUP1 ISZERO PUSH2 0x595 JUMPI PUSH1 0x0 DUP1 REVERT JUMPDEST POP PUSH2 0x4A4 PUSH2 0xF4F JUMP JUMPDEST CALLVALUE DUP1 ISZERO PUSH2 0x5AA JUMPI PUSH1 0x0 DUP1 REVERT JUMPDEST POP PUSH2 0x48D PUSH2 0x5B9 CALLDATASIZE PUSH1 0x4 PUSH2 0x31C6 JUMP JUMPDEST PUSH2 0xF55 JUMP JUMPDEST CALLVALUE DUP1 ISZERO PUSH2 0x5CA JUMPI PUSH1 0x0 DUP1 REVERT JUMPDEST POP PUSH2 0x48D PUSH2 0x5D9 CALLDATASIZE PUSH1 0x4 PUSH2 0x3137 JUMP JUMPDEST PUSH2 0xF7F JUMP JUMPDEST CALLVALUE DUP1 ISZERO PUSH2 0x5EA JUMPI PUSH1 0x0 DUP1 REVERT JUMPDEST POP PUSH2 0x48D PUSH2 0x5F9 CALLDATASIZE PUSH1 0x4 PUSH2 0x3202 JUMP JUMPDEST PUSH2 0xFC0 JUMP JUMPDEST CALLVALUE DUP1 ISZERO PUSH2 0x60A JUMPI PUSH1 0x0 DUP1 REVERT JUMPDEST POP PUSH2 0x48D PUSH2 0x619 CALLDATASIZE PUSH1 0x4 PUSH2 0x3223 JUMP JUMPDEST PUSH2 0xFF0 JUMP JUMPDEST CALLVALUE DUP1 ISZERO PUSH2 0x62A JUMPI PUSH1 0x0 DUP1 REVERT JUMPDEST POP PUSH2 0x53C PUSH2 0x639 CALLDATASIZE PUSH1 0x4 PUSH2 0x2FFE JUMP JUMPDEST PUSH2 0x1045 JUMP JUMPDEST CALLVALUE DUP1 ISZERO PUSH2 0x64A JUMPI PUSH1 0x0 DUP1 REVERT JUMPDEST POP PUSH2 0x48D PUSH2 0x659 CALLDATASIZE PUSH1 0x4 PUSH2 0x306B JUMP JUMPDEST PUSH2 0x1109 JUMP JUMPDEST CALLVALUE DUP1 ISZERO PUSH2 0x66A JUMPI PUSH1 0x0 DUP1 REVERT JUMPDEST POP PUSH2 0x53C PUSH2 0x11BE JUMP JUMPDEST CALLVALUE DUP1 ISZERO PUSH2 0x67F JUMPI PUSH1 0x0 DUP1 REVERT JUMPDEST POP PUSH2 0x4A4 PUSH2 0x11CC JUMP JUMPDEST CALLVALUE DUP1 ISZERO PUSH2 0x694 JUMPI PUSH1 0x0 DUP1 REVERT JUMPDEST POP PUSH2 0x4A4 PUSH2 0x6A3 CALLDATASIZE PUSH1 0x4 PUSH2 0x2F63 JUMP JUMPDEST PUSH2 0x122C JUMP JUMPDEST CALLVALUE DUP1 ISZERO PUSH2 0x6B4 JUMPI PUSH1 0x0 DUP1 REVERT JUMPDEST POP PUSH2 0x4A4 PUSH2 0x1283 JUMP JUMPDEST CALLVALUE DUP1 ISZERO PUSH2 0x6C9 JUMPI PUSH1 0x0 DUP1 REVERT JUMPDEST POP PUSH2 0x48D PUSH2 0x6D8 CALLDATASIZE PUSH1 0x4 PUSH2 0x3202 JUMP JUMPDEST PUSH2 0x12CC JUMP JUMPDEST CALLVALUE DUP1 ISZERO PUSH2 0x6E9 JUMPI PUSH1 0x0 DUP1 REVERT JUMPDEST POP PUSH2 0x53C PUSH2 0x6F8 CALLDATASIZE PUSH1 0x4 PUSH2 0x2F63 JUMP JUMPDEST PUSH2 0x1359 JUMP JUMPDEST CALLVALUE DUP1 ISZERO PUSH2 0x709 JUMPI PUSH1 0x0 DUP1 REVERT JUMPDEST POP PUSH2 0x712 PUSH2 0x136D JUMP JUMPDEST PUSH1 0x40 MLOAD PUSH2 0x4B1 SWAP2 SWAP1 PUSH2 0x35F7 JUMP JUMPDEST CALLVALUE DUP1 ISZERO PUSH2 0x72B JUMPI PUSH1 0x0 DUP1 REVERT JUMPDEST POP PUSH2 0x53C PUSH2 0x1372 JUMP JUMPDEST CALLVALUE DUP1 ISZERO PUSH2 0x740 JUMPI PUSH1 0x0 DUP1 REVERT JUMPDEST POP PUSH2 0x48D PUSH2 0x74F CALLDATASIZE PUSH1 0x4 PUSH2 0x3137 JUMP JUMPDEST PUSH2 0x137B JUMP JUMPDEST CALLVALUE DUP1 ISZERO PUSH2 0x760 JUMPI PUSH1 0x0 DUP1 REVERT JUMPDEST POP PUSH2 0x48D PUSH2 0x76F CALLDATASIZE PUSH1 0x4 PUSH2 0x2F63 JUMP JUMPDEST PUSH2 0x13BA JUMP JUMPDEST CALLVALUE DUP1 ISZERO PUSH2 0x780 JUMPI PUSH1 0x0 DUP1 REVERT JUMPDEST POP PUSH2 0x48D PUSH2 0x78F CALLDATASIZE PUSH1 0x4 PUSH2 0x3137 JUMP JUMPDEST PUSH2 0x1403 JUMP JUMPDEST CALLVALUE DUP1 ISZERO PUSH2 0x7A0 JUMPI PUSH1 0x0 DUP1 REVERT JUMPDEST POP PUSH2 0x4A4 PUSH2 0x143B JUMP JUMPDEST CALLVALUE DUP1 ISZERO PUSH2 0x7B5 JUMPI PUSH1 0x0 DUP1 REVERT JUMPDEST POP PUSH2 0x53C PUSH2 0x1441 JUMP JUMPDEST CALLVALUE DUP1 ISZERO PUSH2 0x7CA JUMPI PUSH1 0x0 DUP1 REVERT JUMPDEST POP PUSH2 0x53C PUSH2 0x7D9 CALLDATASIZE PUSH1 0x4 PUSH2 0x2F63 JUMP JUMPDEST PUSH2 0x144A JUMP JUMPDEST CALLVALUE DUP1 ISZERO PUSH2 0x7EA JUMPI PUSH1 0x0 DUP1 REVERT JUMPDEST POP PUSH2 0x48D PUSH2 0x7F9 CALLDATASIZE PUSH1 0x4 PUSH2 0x31C6 JUMP JUMPDEST PUSH2 0x145E JUMP JUMPDEST CALLVALUE DUP1 ISZERO PUSH2 0x80A JUMPI PUSH1 0x0 DUP1 REVERT JUMPDEST POP PUSH2 0x4A4 PUSH2 0x819 CALLDATASIZE PUSH1 0x4 PUSH2 0x2F63 JUMP JUMPDEST PUSH2 0x14A4 JUMP JUMPDEST CALLVALUE DUP1 ISZERO PUSH2 0x82A JUMPI PUSH1 0x0 DUP1 REVERT JUMPDEST POP PUSH2 0x48D PUSH2 0x839 CALLDATASIZE PUSH1 0x4 PUSH2 0x303E JUMP JUMPDEST PUSH2 0x14BF JUMP JUMPDEST CALLVALUE DUP1 ISZERO PUSH2 0x84A JUMPI PUSH1 0x0 DUP1 REVERT JUMPDEST POP PUSH2 0x53C PUSH2 0x150F JUMP JUMPDEST CALLVALUE DUP1 ISZERO PUSH2 0x85F JUMPI PUSH1 0x0 DUP1 REVERT JUMPDEST POP PUSH2 0x4A4 PUSH2 0x86E CALLDATASIZE PUSH1 0x4 PUSH2 0x2F63 JUMP JUMPDEST PUSH2 0x1518 JUMP JUMPDEST CALLVALUE DUP1 ISZERO PUSH2 0x87F JUMPI PUSH1 0x0 DUP1 REVERT JUMPDEST POP PUSH2 0x48D PUSH2 0x88E CALLDATASIZE PUSH1 0x4 PUSH2 0x3137 JUMP JUMPDEST PUSH2 0x1533 JUMP JUMPDEST CALLVALUE DUP1 ISZERO PUSH2 0x89F JUMPI PUSH1 0x0 DUP1 REVERT JUMPDEST POP PUSH2 0x48D PUSH2 0x8AE CALLDATASIZE PUSH1 0x4 PUSH2 0x2F63 JUMP JUMPDEST PUSH2 0x1572 JUMP JUMPDEST CALLVALUE DUP1 ISZERO PUSH2 0x8BF JUMPI PUSH1 0x0 DUP1 REVERT JUMPDEST POP PUSH2 0x4A4 PUSH2 0x15B8 JUMP JUMPDEST CALLVALUE DUP1 ISZERO PUSH2 0x8D4 JUMPI PUSH1 0x0 DUP1 REVERT JUMPDEST POP PUSH2 0x48D PUSH2 0x8E3 CALLDATASIZE PUSH1 0x4 PUSH2 0x306B JUMP JUMPDEST PUSH2 0x15BE JUMP JUMPDEST CALLVALUE DUP1 ISZERO PUSH2 0x8F4 JUMPI PUSH1 0x0 DUP1 REVERT JUMPDEST POP PUSH2 0x8FD PUSH2 0x1615 JUMP JUMPDEST PUSH1 0x40 MLOAD PUSH2 0x4B1 SWAP2 SWAP1 PUSH2 0x32F8 JUMP JUMPDEST CALLVALUE DUP1 ISZERO PUSH2 0x916 JUMPI PUSH1 0x0 DUP1 REVERT JUMPDEST POP PUSH2 0x8FD PUSH2 0x1624 JUMP JUMPDEST CALLVALUE DUP1 ISZERO PUSH2 0x92B JUMPI PUSH1 0x0 DUP1 REVERT JUMPDEST POP PUSH2 0x4A4 PUSH2 0x1633 JUMP JUMPDEST CALLVALUE DUP1 ISZERO PUSH2 0x940 JUMPI PUSH1 0x0 DUP1 REVERT JUMPDEST POP PUSH2 0x48D PUSH2 0x94F CALLDATASIZE PUSH1 0x4 PUSH2 0x2F63 JUMP JUMPDEST PUSH2 0x1639 JUMP JUMPDEST CALLVALUE DUP1 ISZERO PUSH2 0x960 JUMPI PUSH1 0x0 DUP1 REVERT JUMPDEST POP PUSH2 0x50F PUSH2 0x1682 JUMP JUMPDEST CALLVALUE DUP1 ISZERO PUSH2 0x975 JUMPI PUSH1 0x0 DUP1 REVERT JUMPDEST POP PUSH2 0x48D PUSH2 0x984 CALLDATASIZE PUSH1 0x4 PUSH2 0x31C6 JUMP JUMPDEST PUSH2 0x16A2 JUMP JUMPDEST CALLVALUE DUP1 ISZERO PUSH2 0x995 JUMPI PUSH1 0x0 DUP1 REVERT JUMPDEST POP PUSH2 0x48D PUSH2 0x9A4 CALLDATASIZE PUSH1 0x4 PUSH2 0x31C6 JUMP JUMPDEST PUSH2 0x16CC JUMP JUMPDEST CALLVALUE DUP1 ISZERO PUSH2 0x9B5 JUMPI PUSH1 0x0 DUP1 REVERT JUMPDEST POP PUSH2 0x4A4 PUSH2 0x1716 JUMP JUMPDEST CALLVALUE DUP1 ISZERO PUSH2 0x9CA JUMPI PUSH1 0x0 DUP1 REVERT JUMPDEST POP PUSH2 0x9D3 PUSH2 0x171C JUMP JUMPDEST PUSH1 0x40 MLOAD PUSH2 0x4B1 SWAP2 SWAP1 PUSH2 0x3360 JUMP JUMPDEST CALLVALUE DUP1 ISZERO PUSH2 0x9EC JUMPI PUSH1 0x0 DUP1 REVERT JUMPDEST POP PUSH2 0x48D PUSH2 0x9FB CALLDATASIZE PUSH1 0x4 PUSH2 0x2FC6 JUMP JUMPDEST PUSH2 0x177E JUMP JUMPDEST CALLVALUE DUP1 ISZERO PUSH2 0xA0C JUMPI PUSH1 0x0 DUP1 REVERT JUMPDEST POP PUSH2 0x8FD PUSH2 0x17D1 JUMP JUMPDEST CALLVALUE DUP1 ISZERO PUSH2 0xA21 JUMPI PUSH1 0x0 DUP1 REVERT JUMPDEST POP PUSH2 0x8FD PUSH2 0x17E0 JUMP JUMPDEST CALLVALUE DUP1 ISZERO PUSH2 0xA36 JUMPI PUSH1 0x0 DUP1 REVERT JUMPDEST POP PUSH2 0x53C PUSH2 0xA45 CALLDATASIZE PUSH1 0x4 PUSH2 0x306B JUMP JUMPDEST PUSH2 0x17EF JUMP JUMPDEST CALLVALUE DUP1 ISZERO PUSH2 0xA56 JUMPI PUSH1 0x0 DUP1 REVERT JUMPDEST POP PUSH2 0x48D PUSH2 0x17FC JUMP JUMPDEST CALLVALUE DUP1 ISZERO PUSH2 0xA6B JUMPI PUSH1 0x0 DUP1 REVERT JUMPDEST POP PUSH2 0x48D PUSH2 0xA7A CALLDATASIZE PUSH1 0x4 PUSH2 0x3202 JUMP JUMPDEST PUSH2 0x1828 JUMP JUMPDEST CALLVALUE DUP1 ISZERO PUSH2 0xA8B JUMPI PUSH1 0x0 DUP1 REVERT JUMPDEST POP PUSH2 0x48D PUSH2 0xA9A CALLDATASIZE PUSH1 0x4 PUSH2 0x2F63 JUMP JUMPDEST PUSH2 0x185F JUMP JUMPDEST CALLVALUE DUP1 ISZERO PUSH2 0xAAB JUMPI PUSH1 0x0 DUP1 REVERT JUMPDEST POP PUSH2 0x48D PUSH2 0xABA CALLDATASIZE PUSH1 0x4 PUSH2 0x2F63 JUMP JUMPDEST PUSH2 0x18AB JUMP JUMPDEST CALLVALUE DUP1 ISZERO PUSH2 0xACB JUMPI PUSH1 0x0 DUP1 REVERT JUMPDEST POP PUSH2 0x4A4 PUSH2 0x18F1 JUMP JUMPDEST CALLVALUE DUP1 ISZERO PUSH2 0xAE0 JUMPI PUSH1 0x0 DUP1 REVERT JUMPDEST POP PUSH2 0x48D PUSH2 0xAEF CALLDATASIZE PUSH1 0x4 PUSH2 0x2F9B JUMP JUMPDEST PUSH2 0x18F7 JUMP JUMPDEST CALLVALUE DUP1 ISZERO PUSH2 0xB00 JUMPI PUSH1 0x0 DUP1 REVERT JUMPDEST POP PUSH2 0x4A4 PUSH2 0x1998 JUMP JUMPDEST CALLVALUE DUP1 ISZERO PUSH2 0xB15 JUMPI PUSH1 0x0 DUP1 REVERT JUMPDEST POP PUSH2 0x8FD PUSH2 0x199E JUMP JUMPDEST CALLVALUE DUP1 ISZERO PUSH2 0xB2A JUMPI PUSH1 0x0 DUP1 REVERT JUMPDEST POP PUSH2 0x48D PUSH2 0x19AD JUMP JUMPDEST CALLVALUE DUP1 ISZERO PUSH2 0xB3F JUMPI PUSH1 0x0 DUP1 REVERT JUMPDEST POP PUSH2 0x4A4 PUSH2 0x19DE JUMP JUMPDEST CALLVALUE DUP1 ISZERO PUSH2 0xB54 JUMPI PUSH1 0x0 DUP1 REVERT JUMPDEST POP PUSH2 0x4A4 PUSH2 0xB63 CALLDATASIZE PUSH1 0x4 PUSH2 0x31C6 JUMP JUMPDEST PUSH2 0x19E2 JUMP JUMPDEST CALLVALUE DUP1 ISZERO PUSH2 0xB74 JUMPI PUSH1 0x0 DUP1 REVERT JUMPDEST POP PUSH2 0x4A4 PUSH2 0x1A1C JUMP JUMPDEST CALLVALUE DUP1 ISZERO PUSH2 0xB89 JUMPI PUSH1 0x0 DUP1 REVERT JUMPDEST POP PUSH2 0x48D PUSH2 0x1AF3 JUMP JUMPDEST CALLVALUE DUP1 ISZERO PUSH2 0xB9E JUMPI PUSH1 0x0 DUP1 REVERT JUMPDEST POP PUSH2 0x4A4 PUSH2 0xBAD CALLDATASIZE PUSH1 0x4 PUSH2 0x2FC6 JUMP JUMPDEST PUSH2 0x1B1D JUMP JUMPDEST CALLVALUE DUP1 ISZERO PUSH2 0xBBE JUMPI PUSH1 0x0 DUP1 REVERT JUMPDEST POP PUSH2 0x48D PUSH2 0xBCD CALLDATASIZE PUSH1 0x4 PUSH2 0x316F JUMP JUMPDEST PUSH2 0x1B48 JUMP JUMPDEST CALLVALUE DUP1 ISZERO PUSH2 0xBDE JUMPI PUSH1 0x0 DUP1 REVERT JUMPDEST POP PUSH2 0x48D PUSH2 0xBED CALLDATASIZE PUSH1 0x4 PUSH2 0x31C6 JUMP JUMPDEST PUSH2 0x1B84 JUMP JUMPDEST CALLVALUE DUP1 ISZERO PUSH2 0xBFE JUMPI PUSH1 0x0 DUP1 REVERT JUMPDEST POP PUSH2 0x4A4 PUSH2 0x1BD0 JUMP JUMPDEST CALLVALUE DUP1 ISZERO PUSH2 0xC13 JUMPI PUSH1 0x0 DUP1 REVERT JUMPDEST POP PUSH2 0x8FD PUSH2 0x1BE4 JUMP JUMPDEST CALLVALUE DUP1 ISZERO PUSH2 0xC28 JUMPI PUSH1 0x0 DUP1 REVERT JUMPDEST POP PUSH2 0x48D PUSH2 0xC37 CALLDATASIZE PUSH1 0x4 PUSH2 0x2F63 JUMP JUMPDEST PUSH2 0x1BF3 JUMP JUMPDEST CALLVALUE DUP1 ISZERO PUSH2 0xC48 JUMPI PUSH1 0x0 DUP1 REVERT JUMPDEST POP PUSH2 0x4A4 PUSH2 0xC57 CALLDATASIZE PUSH1 0x4 PUSH2 0x3137 JUMP JUMPDEST PUSH2 0x1C39 JUMP JUMPDEST CALLVALUE DUP1 ISZERO PUSH2 0xC68 JUMPI PUSH1 0x0 DUP1 REVERT JUMPDEST POP PUSH2 0x48D PUSH2 0xC77 CALLDATASIZE PUSH1 0x4 PUSH2 0x2F63 JUMP JUMPDEST PUSH2 0x1C7B JUMP JUMPDEST CALLVALUE DUP1 ISZERO PUSH2 0xC88 JUMPI PUSH1 0x0 DUP1 REVERT JUMPDEST POP PUSH2 0x48D PUSH2 0x1D10 JUMP JUMPDEST CALLVALUE DUP1 ISZERO PUSH2 0xC9D JUMPI PUSH1 0x0 DUP1 REVERT JUMPDEST POP PUSH2 0x48D PUSH2 0xCAC CALLDATASIZE PUSH1 0x4 PUSH2 0x31C6 JUMP JUMPDEST PUSH2 0x1D76 JUMP JUMPDEST CALLVALUE DUP1 ISZERO PUSH2 0xCBD JUMPI PUSH1 0x0 DUP1 REVERT JUMPDEST POP PUSH2 0x48D PUSH2 0xCCC CALLDATASIZE PUSH1 0x4 PUSH2 0x31DE JUMP JUMPDEST PUSH2 0x1DA0 JUMP JUMPDEST CALLVALUE DUP1 ISZERO PUSH2 0xCDD JUMPI PUSH1 0x0 DUP1 REVERT JUMPDEST POP PUSH2 0x48D PUSH2 0xCEC CALLDATASIZE PUSH1 0x4 PUSH2 0x303E JUMP JUMPDEST PUSH2 0x1E24 JUMP JUMPDEST CALLVALUE DUP1 ISZERO PUSH2 0xCFD JUMPI PUSH1 0x0 DUP1 REVERT JUMPDEST POP PUSH2 0x48D PUSH2 0xD0C CALLDATASIZE PUSH1 0x4 PUSH2 0x303E JUMP JUMPDEST PUSH2 0x1F54 JUMP JUMPDEST CALLVALUE DUP1 ISZERO PUSH2 0xD1D JUMPI PUSH1 0x0 DUP1 REVERT JUMPDEST POP PUSH2 0x8FD PUSH2 0x1FA4 JUMP JUMPDEST CALLVALUE DUP1 ISZERO PUSH2 0xD32 JUMPI PUSH1 0x0 DUP1 REVERT JUMPDEST POP PUSH2 0x53C PUSH2 0xD41 CALLDATASIZE PUSH1 0x4 PUSH2 0x2F63 JUMP JUMPDEST PUSH2 0x1FB3 JUMP JUMPDEST PUSH2 0xD4F CALLER PUSH2 0x1FB3 JUMP JUMPDEST PUSH2 0xD74 JUMPI PUSH1 0x40 MLOAD PUSH3 0x461BCD PUSH1 0xE5 SHL DUP2 MSTORE PUSH1 0x4 ADD PUSH2 0xD6B SWAP1 PUSH2 0x3566 JUMP JUMPDEST PUSH1 0x40 MLOAD DUP1 SWAP2 SUB SWAP1 REVERT JUMPDEST PUSH1 0x1A SLOAD ISZERO PUSH2 0xD94 JUMPI PUSH1 0x40 MLOAD PUSH3 0x461BCD PUSH1 0xE5 SHL DUP2 MSTORE PUSH1 0x4 ADD PUSH2 0xD6B SWAP1 PUSH2 0x34E1 JUMP JUMPDEST NUMBER PUSH1 0x1A SSTORE TIMESTAMP PUSH1 0x1B SSTORE JUMP JUMPDEST PUSH1 0x2B SLOAD DUP2 JUMP JUMPDEST PUSH2 0xDAD CALLER PUSH2 0x1FB3 JUMP JUMPDEST PUSH2 0xDC9 JUMPI PUSH1 0x40 MLOAD PUSH3 0x461BCD PUSH1 0xE5 SHL DUP2 MSTORE PUSH1 0x4 ADD PUSH2 0xD6B SWAP1 PUSH2 0x3566 JUMP JUMPDEST PUSH1 0x20 DUP1 SLOAD PUSH1 0xFF NOT AND SWAP5 ISZERO ISZERO SWAP5 SWAP1 SWAP5 OR SWAP1 SWAP4 SSTORE PUSH1 0x22 SWAP2 SWAP1 SWAP2 SSTORE PUSH1 0x0 PUSH1 0x23 SSTORE PUSH1 0x24 SSTORE PUSH1 0x25 SSTORE NUMBER PUSH1 0x26 SSTORE JUMP JUMPDEST PUSH2 0xDFB CALLER PUSH2 0x1FB3 JUMP JUMPDEST PUSH2 0xE17 JUMPI PUSH1 0x40 MLOAD PUSH3 0x461BCD PUSH1 0xE5 SHL DUP2 MSTORE PUSH1 0x4 ADD PUSH2 0xD6B SWAP1 PUSH2 0x3566 JUMP JUMPDEST PUSH1 0xE DUP6 SWAP1 SSTORE PUSH1 0xF DUP5 SWAP1 SSTORE PUSH1 0x10 DUP4 SWAP1 SSTORE PUSH1 0x11 DUP3 SWAP1 SSTORE PUSH2 0xE41 DUP3 PUSH2 0xE3B DUP6 DUP2 DUP10 DUP10 PUSH2 0x1FDD JUMP JUMPDEST SWAP1 PUSH2 0x1FDD JUMP JUMPDEST PUSH1 0x12 SSTORE PUSH1 0x13 DUP2 SWAP1 SSTORE PUSH2 0xE54 PUSH1 0x4 DUP3 PUSH2 0x361D JUMP JUMPDEST PUSH1 0x12 SLOAD LT PUSH2 0xE61 JUMPI PUSH1 0x0 DUP1 REVERT JUMPDEST POP POP POP POP POP JUMP JUMPDEST PUSH1 0x40 DUP1 MLOAD DUP1 DUP3 ADD SWAP1 SWAP2 MSTORE PUSH1 0xB DUP2 MSTORE PUSH11 0x88DECECA40A6E0C2C6CAB PUSH1 0xAB SHL PUSH1 0x20 DUP3 ADD MSTORE JUMPDEST SWAP1 JUMP JUMPDEST CALLER PUSH1 0x0 DUP2 DUP2 MSTORE PUSH1 0xA PUSH1 0x20 SWAP1 DUP2 MSTORE PUSH1 0x40 DUP1 DUP4 KECCAK256 PUSH1 0x1 PUSH1 0x1 PUSH1 0xA0 SHL SUB DUP8 AND DUP1 DUP6 MSTORE SWAP3 MSTORE DUP1 DUP4 KECCAK256 DUP6 SWAP1 SSTORE MLOAD SWAP2 SWAP3 SWAP1 SWAP2 PUSH32 0x8C5BE1E5EBEC7D5BD14F71427D1E84F3DD0314C0F7B2291E5B200AC8C7C3B925 SWAP1 PUSH2 0xEE7 SWAP1 DUP7 SWAP1 PUSH2 0x358B JUMP JUMPDEST PUSH1 0x40 MLOAD DUP1 SWAP2 SUB SWAP1 LOG3 POP PUSH1 0x1 SWAP3 SWAP2 POP POP JUMP JUMPDEST PUSH1 0x0 DUP3 PUSH2 0xF04 DUP4 PUSH2 0x19E2 JUMP JUMPDEST GT SWAP4 SWAP3 POP POP POP JUMP JUMPDEST PUSH2 0xF15 CALLER PUSH2 0x1359 JUMP JUMPDEST PUSH2 0xF31 JUMPI PUSH1 0x40 MLOAD PUSH3 0x461BCD PUSH1 0xE5 SHL DUP2 MSTORE PUSH1 0x4 ADD PUSH2 0xD6B SWAP1 PUSH2 0x350F JUMP JUMPDEST PUSH1 0x39 DUP1 SLOAD SWAP2 ISZERO ISZERO PUSH4 0x1000000 MUL PUSH4 0xFF000000 NOT SWAP1 SWAP3 AND SWAP2 SWAP1 SWAP2 OR SWAP1 SSTORE JUMP JUMPDEST PUSH1 0x7 SLOAD SWAP1 JUMP JUMPDEST PUSH2 0xF5E CALLER PUSH2 0x1359 JUMP JUMPDEST PUSH2 0xF7A JUMPI PUSH1 0x40 MLOAD PUSH3 0x461BCD PUSH1 0xE5 SHL DUP2 MSTORE PUSH1 0x4 ADD PUSH2 0xD6B SWAP1 PUSH2 0x350F JUMP JUMPDEST PUSH1 0x3A SSTORE JUMP JUMPDEST PUSH2 0xF88 CALLER PUSH2 0x1359 JUMP JUMPDEST PUSH2 0xFA4 JUMPI PUSH1 0x40 MLOAD PUSH3 0x461BCD PUSH1 0xE5 SHL DUP2 MSTORE PUSH1 0x4 ADD PUSH2 0xD6B SWAP1 PUSH2 0x350F JUMP JUMPDEST PUSH1 0x39 DUP1 SLOAD SWAP2 ISZERO ISZERO PUSH3 0x10000 MUL PUSH3 0xFF0000 NOT SWAP1 SWAP3 AND SWAP2 SWAP1 SWAP2 OR SWAP1 SSTORE JUMP JUMPDEST PUSH2 0xFC9 CALLER PUSH2 0x1FB3 JUMP JUMPDEST PUSH2 0xFE5 JUMPI PUSH1 0x40 MLOAD PUSH3 0x461BCD PUSH1 0xE5 SHL DUP2 MSTORE PUSH1 0x4 ADD PUSH2 0xD6B SWAP1 PUSH2 0x3566 JUMP JUMPDEST PUSH1 0x16 SWAP2 SWAP1 SWAP2 SSTORE PUSH1 0x17 SSTORE JUMP JUMPDEST PUSH2 0xFF9 CALLER PUSH2 0x1FB3 JUMP JUMPDEST PUSH2 0x1015 JUMPI PUSH1 0x40 MLOAD PUSH3 0x461BCD PUSH1 0xE5 SHL DUP2 MSTORE PUSH1 0x4 ADD PUSH2 0xD6B SWAP1 PUSH2 0x3566 JUMP JUMPDEST PUSH1 0x2 PUSH2 0x1021 DUP4 DUP6 PUSH2 0x361D JUMP JUMPDEST GT ISZERO DUP1 ISZERO PUSH2 0x102E JUMPI POP DUP2 DUP4 GT JUMPDEST PUSH2 0x1037 JUMPI PUSH1 0x0 DUP1 REVERT JUMPDEST PUSH1 0x1C SWAP3 SWAP1 SWAP3 SSTORE PUSH1 0x1D SSTORE PUSH1 0x1F SSTORE JUMP JUMPDEST PUSH1 0x7 SLOAD PUSH1 0x1 PUSH1 0x1 PUSH1 0xA0 SHL SUB DUP5 AND PUSH1 0x0 SWAP1 DUP2 MSTORE PUSH1 0xA PUSH1 0x20 SWAP1 DUP2 MSTORE PUSH1 0x40 DUP1 DUP4 KECCAK256 CALLER DUP5 MSTORE SWAP1 SWAP2 MSTORE DUP2 KECCAK256 SLOAD SWAP1 SWAP2 EQ PUSH2 0x10F4 JUMPI PUSH1 0x40 DUP1 MLOAD DUP1 DUP3 ADD DUP3 MSTORE PUSH1 0x16 DUP2 MSTORE PUSH22 0x496E73756666696369656E7420416C6C6F77616E6365 PUSH1 0x50 SHL PUSH1 0x20 DUP1 DUP4 ADD SWAP2 SWAP1 SWAP2 MSTORE PUSH1 0x1 PUSH1 0x1 PUSH1 0xA0 SHL SUB DUP8 AND PUSH1 0x0 SWAP1 DUP2 MSTORE PUSH1 0xA DUP3 MSTORE DUP4 DUP2 KECCAK256 CALLER DUP3 MSTORE SWAP1 SWAP2 MSTORE SWAP2 SWAP1 SWAP2 KECCAK256 SLOAD PUSH2 0x10CF SWAP2 DUP5 SWAP1 PUSH2 0x1FE9 JUMP JUMPDEST PUSH1 0x1 PUSH1 0x1 PUSH1 0xA0 SHL SUB DUP6 AND PUSH1 0x0 SWAP1 DUP2 MSTORE PUSH1 0xA PUSH1 0x20 SWAP1 DUP2 MSTORE PUSH1 0x40 DUP1 DUP4 KECCAK256 CALLER DUP5 MSTORE SWAP1 SWAP2 MSTORE SWAP1 KECCAK256 SSTORE JUMPDEST PUSH2 0x10FF DUP5 DUP5 DUP5 PUSH2 0x2015 JUMP JUMPDEST SWAP1 POP JUMPDEST SWAP4 SWAP3 POP POP POP JUMP JUMPDEST PUSH2 0x1112 CALLER PUSH2 0x1FB3 JUMP JUMPDEST PUSH2 0x112E JUMPI PUSH1 0x40 MLOAD PUSH3 0x461BCD PUSH1 0xE5 SHL DUP2 MSTORE PUSH1 0x4 ADD PUSH2 0xD6B SWAP1 PUSH2 0x3566 JUMP JUMPDEST PUSH1 0x40 MLOAD PUSH4 0xA9059CBB PUSH1 0xE0 SHL DUP2 MSTORE PUSH20 0xBB4CDB9CBD36B01BD1CBAEBF2DE08D9173BC095C SWAP1 PUSH4 0xA9059CBB SWAP1 PUSH2 0x1167 SWAP1 DUP6 SWAP1 DUP6 SWAP1 PUSH1 0x4 ADD PUSH2 0x330C JUMP JUMPDEST PUSH1 0x20 PUSH1 0x40 MLOAD DUP1 DUP4 SUB DUP2 PUSH1 0x0 DUP8 DUP1 EXTCODESIZE ISZERO DUP1 ISZERO PUSH2 0x1181 JUMPI PUSH1 0x0 DUP1 REVERT JUMPDEST POP GAS CALL ISZERO DUP1 ISZERO PUSH2 0x1195 JUMPI RETURNDATASIZE PUSH1 0x0 DUP1 RETURNDATACOPY RETURNDATASIZE PUSH1 0x0 REVERT JUMPDEST POP POP POP POP PUSH1 0x40 MLOAD RETURNDATASIZE PUSH1 0x1F NOT PUSH1 0x1F DUP3 ADD AND DUP3 ADD DUP1 PUSH1 0x40 MSTORE POP DUP2 ADD SWAP1 PUSH2 0x11B9 SWAP2 SWAP1 PUSH2 0x3153 JUMP JUMPDEST POP POP POP JUMP JUMPDEST PUSH1 0x2C SLOAD PUSH2 0x100 SWAP1 DIV PUSH1 0xFF AND SWAP1 JUMP JUMPDEST PUSH1 0x0 DUP1 PUSH2 0x11EA PUSH3 0x15180 PUSH1 0x37 SLOAD TIMESTAMP PUSH2 0x11E4 SWAP2 SWAP1 PUSH2 0x365C JUMP JUMPDEST SWAP1 PUSH2 0x1FD1 JUMP JUMPDEST SWAP1 POP PUSH1 0x0 PUSH1 0x3C DUP2 PUSH2 0x11FC DUP5 PUSH1 0x1 PUSH2 0x3605 JUMP JUMPDEST DUP2 MSTORE PUSH1 0x20 ADD SWAP1 DUP2 MSTORE PUSH1 0x20 ADD PUSH1 0x0 KECCAK256 SLOAD SWAP1 POP PUSH2 0xE10 DUP2 LT ISZERO PUSH2 0x1223 JUMPI PUSH2 0xE10 SWAP3 POP POP POP PUSH2 0xE8B JUMP JUMPDEST SWAP2 POP PUSH2 0xE8B SWAP1 POP JUMP JUMPDEST PUSH1 0x1 PUSH1 0x1 PUSH1 0xA0 SHL SUB DUP2 AND PUSH1 0x0 SWAP1 DUP2 MSTORE PUSH1 0x2F PUSH1 0x20 MSTORE PUSH1 0x40 DUP2 KECCAK256 SLOAD DUP1 ISZERO PUSH2 0x125D JUMPI PUSH2 0x1255 DUP2 TIMESTAMP PUSH2 0x365C JUMP JUMPDEST SWAP2 POP POP PUSH2 0x127E JUMP JUMPDEST PUSH2 0x1266 DUP4 PUSH2 0x1359 JUMP JUMPDEST ISZERO PUSH2 0x1278 JUMPI PUSH1 0x37 SLOAD PUSH2 0x1255 SWAP1 TIMESTAMP PUSH2 0x365C JUMP JUMPDEST PUSH1 0x0 SWAP2 POP POP JUMPDEST SWAP2 SWAP1 POP JUMP JUMPDEST PUSH1 0x5 SLOAD PUSH1 0x0 SWAP1 PUSH2 0x12C7 SWAP1 PUSH2 0x129F SWAP1 PUSH1 0x1 PUSH1 0x1 PUSH1 0xA0 SHL SUB AND PUSH2 0x1518 JUMP JUMPDEST PUSH1 0x4 SLOAD PUSH2 0x12C1 SWAP1 PUSH2 0x12B8 SWAP1 PUSH1 0x1 PUSH1 0x1 PUSH1 0xA0 SHL SUB AND PUSH2 0x1518 JUMP JUMPDEST PUSH1 0x7 SLOAD SWAP1 PUSH2 0x24E8 JUMP JUMPDEST SWAP1 PUSH2 0x24E8 JUMP JUMPDEST SWAP1 POP SWAP1 JUMP JUMPDEST PUSH2 0x12D5 CALLER PUSH2 0x1FB3 JUMP JUMPDEST PUSH2 0x12F1 JUMPI PUSH1 0x40 MLOAD PUSH3 0x461BCD PUSH1 0xE5 SHL DUP2 MSTORE PUSH1 0x4 ADD PUSH2 0xD6B SWAP1 PUSH2 0x3566 JUMP JUMPDEST PUSH1 0x27 SLOAD PUSH1 0x40 MLOAD PUSH4 0x16A4744B PUSH1 0xE1 SHL DUP2 MSTORE PUSH1 0x1 PUSH1 0x1 PUSH1 0xA0 SHL SUB SWAP1 SWAP2 AND SWAP1 PUSH4 0x2D48E896 SWAP1 PUSH2 0x1323 SWAP1 DUP6 SWAP1 DUP6 SWAP1 PUSH1 0x4 ADD PUSH2 0x35E9 JUMP JUMPDEST PUSH1 0x0 PUSH1 0x40 MLOAD DUP1 DUP4 SUB DUP2 PUSH1 0x0 DUP8 DUP1 EXTCODESIZE ISZERO DUP1 ISZERO PUSH2 0x133D JUMPI PUSH1 0x0 DUP1 REVERT JUMPDEST POP GAS CALL ISZERO DUP1 ISZERO PUSH2 0x1351 JUMPI RETURNDATASIZE PUSH1 0x0 DUP1 RETURNDATACOPY RETURNDATASIZE PUSH1 0x0 REVERT JUMPDEST POP POP POP POP POP POP JUMP JUMPDEST PUSH1 0x0 SLOAD PUSH1 0x1 PUSH1 0x1 PUSH1 0xA0 SHL SUB SWAP1 DUP2 AND SWAP2 AND EQ SWAP1 JUMP JUMPDEST PUSH1 0x9 SWAP1 JUMP JUMPDEST PUSH1 0x20 SLOAD PUSH1 0xFF AND DUP2 JUMP JUMPDEST PUSH2 0x1384 CALLER PUSH2 0x1359 JUMP JUMPDEST PUSH2 0x13A0 JUMPI PUSH1 0x40 MLOAD PUSH3 0x461BCD PUSH1 0xE5 SHL DUP2 MSTORE PUSH1 0x4 ADD PUSH2 0xD6B SWAP1 PUSH2 0x350F JUMP JUMPDEST PUSH1 0x39 DUP1 SLOAD SWAP2 ISZERO ISZERO PUSH2 0x100 MUL PUSH2 0xFF00 NOT SWAP1 SWAP3 AND SWAP2 SWAP1 SWAP2 OR SWAP1 SSTORE JUMP JUMPDEST PUSH2 0x13C3 CALLER PUSH2 0x1359 JUMP JUMPDEST PUSH2 0x13DF JUMPI PUSH1 0x40 MLOAD PUSH3 0x461BCD PUSH1 0xE5 SHL DUP2 MSTORE PUSH1 0x4 ADD PUSH2 0xD6B SWAP1 PUSH2 0x350F JUMP JUMPDEST PUSH1 0x1 PUSH1 0x1 PUSH1 0xA0 SHL SUB AND PUSH1 0x0 SWAP1 DUP2 MSTORE PUSH1 0x3B PUSH1 0x20 MSTORE PUSH1 0x40 SWAP1 KECCAK256 DUP1 SLOAD PUSH1 0xFF NOT AND PUSH1 0x1 OR SWAP1 SSTORE JUMP JUMPDEST PUSH2 0x140C CALLER PUSH2 0x1359 JUMP JUMPDEST PUSH2 0x1428 JUMPI PUSH1 0x40 MLOAD PUSH3 0x461BCD PUSH1 0xE5 SHL DUP2 MSTORE PUSH1 0x4 ADD PUSH2 0xD6B SWAP1 PUSH2 0x350F JUMP JUMPDEST PUSH1 0x39 DUP1 SLOAD PUSH1 0xFF NOT AND SWAP2 ISZERO ISZERO SWAP2 SWAP1 SWAP2 OR SWAP1 SSTORE JUMP JUMPDEST PUSH1 0x34 SLOAD SWAP1 JUMP JUMPDEST PUSH1 0x35 SLOAD PUSH1 0xFF AND SWAP1 JUMP JUMPDEST PUSH1 0x0 PUSH2 0x1458 DUP3 PUSH1 0x7 SLOAD PUSH2 0xE8E JUMP JUMPDEST SWAP3 SWAP2 POP POP JUMP JUMPDEST PUSH2 0x1467 CALLER PUSH2 0x1FB3 JUMP JUMPDEST PUSH2 0x1483 JUMPI PUSH1 0x40 MLOAD PUSH3 0x461BCD PUSH1 0xE5 SHL DUP2 MSTORE PUSH1 0x4 ADD PUSH2 0xD6B SWAP1 PUSH2 0x3566 JUMP JUMPDEST PUSH2 0x3E8 PUSH1 0x7 SLOAD PUSH2 0x1493 SWAP2 SWAP1 PUSH2 0x361D JUMP JUMPDEST DUP2 LT ISZERO PUSH2 0x149F JUMPI PUSH1 0x0 DUP1 REVERT JUMPDEST PUSH1 0x8 SSTORE JUMP JUMPDEST PUSH1 0x1 PUSH1 0x1 PUSH1 0xA0 SHL SUB AND PUSH1 0x0 SWAP1 DUP2 MSTORE PUSH1 0x2D PUSH1 0x20 MSTORE PUSH1 0x40 SWAP1 KECCAK256 SLOAD SWAP1 JUMP JUMPDEST PUSH2 0x14C8 CALLER PUSH2 0x1FB3 JUMP JUMPDEST PUSH2 0x14E4 JUMPI PUSH1 0x40 MLOAD PUSH3 0x461BCD PUSH1 0xE5 SHL DUP2 MSTORE PUSH1 0x4 ADD PUSH2 0xD6B SWAP1 PUSH2 0x3566 JUMP JUMPDEST PUSH1 0x1 PUSH1 0x1 PUSH1 0xA0 SHL SUB SWAP2 SWAP1 SWAP2 AND PUSH1 0x0 SWAP1 DUP2 MSTORE PUSH1 0xB PUSH1 0x20 MSTORE PUSH1 0x40 SWAP1 KECCAK256 DUP1 SLOAD PUSH1 0xFF NOT AND SWAP2 ISZERO ISZERO SWAP2 SWAP1 SWAP2 OR SWAP1 SSTORE JUMP JUMPDEST PUSH1 0x2A SLOAD PUSH1 0xFF AND DUP2 JUMP JUMPDEST PUSH1 0x1 PUSH1 0x1 PUSH1 0xA0 SHL SUB AND PUSH1 0x0 SWAP1 DUP2 MSTORE PUSH1 0x9 PUSH1 0x20 MSTORE PUSH1 0x40 SWAP1 KECCAK256 SLOAD SWAP1 JUMP JUMPDEST PUSH2 0x153C CALLER PUSH2 0x1FB3 JUMP JUMPDEST PUSH2 0x1558 JUMPI PUSH1 0x40 MLOAD PUSH3 0x461BCD PUSH1 0xE5 SHL DUP2 MSTORE PUSH1 0x4 ADD PUSH2 0xD6B SWAP1 PUSH2 0x3566 JUMP JUMPDEST PUSH1 0x2C DUP1 SLOAD SWAP2 ISZERO ISZERO PUSH2 0x100 MUL PUSH2 0xFF00 NOT SWAP1 SWAP3 AND SWAP2 SWAP1 SWAP2 OR SWAP1 SSTORE JUMP JUMPDEST PUSH2 0x157B CALLER PUSH2 0x1359 JUMP JUMPDEST PUSH2 0x1597 JUMPI PUSH1 0x40 MLOAD PUSH3 0x461BCD PUSH1 0xE5 SHL DUP2 MSTORE PUSH1 0x4 ADD PUSH2 0xD6B SWAP1 PUSH2 0x350F JUMP JUMPDEST PUSH1 0x1 PUSH1 0x1 PUSH1 0xA0 SHL SUB AND PUSH1 0x0 SWAP1 DUP2 MSTORE PUSH1 0x3B PUSH1 0x20 MSTORE PUSH1 0x40 SWAP1 KECCAK256 DUP1 SLOAD PUSH1 0xFF NOT AND SWAP1 SSTORE JUMP JUMPDEST PUSH1 0x8 SLOAD DUP2 JUMP JUMPDEST PUSH2 0x15C7 CALLER PUSH2 0x1359 JUMP JUMPDEST PUSH2 0x15E3 JUMPI PUSH1 0x40 MLOAD PUSH3 0x461BCD PUSH1 0xE5 SHL DUP2 MSTORE PUSH1 0x4 ADD PUSH2 0xD6B SWAP1 PUSH2 0x350F JUMP JUMPDEST PUSH1 0x27 SLOAD PUSH1 0x40 MLOAD PUSH4 0x413918C9 PUSH1 0xE1 SHL DUP2 MSTORE PUSH1 0x1 PUSH1 0x1 PUSH1 0xA0 SHL SUB SWAP1 SWAP2 AND SWAP1 PUSH4 0x82723192 SWAP1 PUSH2 0x1323 SWAP1 DUP6 SWAP1 DUP6 SWAP1 PUSH1 0x4 ADD PUSH2 0x330C JUMP JUMPDEST PUSH1 0x0 SLOAD PUSH1 0x1 PUSH1 0x1 PUSH1 0xA0 SHL SUB AND SWAP1 JUMP JUMPDEST PUSH1 0x3 SLOAD PUSH1 0x1 PUSH1 0x1 PUSH1 0xA0 SHL SUB AND DUP2 JUMP JUMPDEST PUSH1 0x2E SLOAD SWAP1 JUMP JUMPDEST PUSH2 0x1642 CALLER PUSH2 0x1FB3 JUMP JUMPDEST PUSH2 0x165E JUMPI PUSH1 0x40 MLOAD PUSH3 0x461BCD PUSH1 0xE5 SHL DUP2 MSTORE PUSH1 0x4 ADD PUSH2 0xD6B SWAP1 PUSH2 0x3566 JUMP JUMPDEST PUSH1 0x1 PUSH1 0x1 PUSH1 0xA0 SHL SUB AND PUSH1 0x0 SWAP1 DUP2 MSTORE PUSH1 0x30 PUSH1 0x20 MSTORE PUSH1 0x40 SWAP1 KECCAK256 DUP1 SLOAD PUSH1 0xFF NOT AND PUSH1 0x1 OR SWAP1 SSTORE JUMP JUMPDEST PUSH1 0x40 DUP1 MLOAD DUP1 DUP3 ADD SWAP1 SWAP2 MSTORE PUSH1 0x6 DUP2 MSTORE PUSH6 0x889E8E8AA6B PUSH1 0xD3 SHL PUSH1 0x20 DUP3 ADD MSTORE SWAP1 JUMP JUMPDEST PUSH2 0x16AB CALLER PUSH2 0x1359 JUMP JUMPDEST PUSH2 0x16C7 JUMPI PUSH1 0x40 MLOAD PUSH3 0x461BCD PUSH1 0xE5 SHL DUP2 MSTORE PUSH1 0x4 ADD PUSH2 0xD6B SWAP1 PUSH2 0x350F JUMP JUMPDEST PUSH1 0x38 SSTORE JUMP JUMPDEST PUSH2 0x16D5 CALLER PUSH2 0x1FB3 JUMP JUMPDEST PUSH2 0x16F1 JUMPI PUSH1 0x40 MLOAD PUSH3 0x461BCD PUSH1 0xE5 SHL DUP2 MSTORE PUSH1 0x4 ADD PUSH2 0xD6B SWAP1 PUSH2 0x3566 JUMP JUMPDEST PUSH1 0x39 SLOAD PUSH3 0x10000 SWAP1 DIV PUSH1 0xFF AND ISZERO PUSH2 0x1711 JUMPI PUSH3 0xB71B0 DUP2 LT PUSH2 0x1711 JUMPI PUSH1 0x0 DUP1 REVERT JUMPDEST PUSH1 0x29 SSTORE JUMP JUMPDEST PUSH1 0x33 SLOAD SWAP1 JUMP JUMPDEST PUSH1 0x60 PUSH1 0x31 DUP1 SLOAD DUP1 PUSH1 0x20 MUL PUSH1 0x20 ADD PUSH1 0x40 MLOAD SWAP1 DUP2 ADD PUSH1 0x40 MSTORE DUP1 SWAP3 SWAP2 SWAP1 DUP2 DUP2 MSTORE PUSH1 0x20 ADD DUP3 DUP1 SLOAD DUP1 ISZERO PUSH2 0x1774 JUMPI PUSH1 0x20 MUL DUP3 ADD SWAP2 SWAP1 PUSH1 0x0 MSTORE PUSH1 0x20 PUSH1 0x0 KECCAK256 SWAP1 JUMPDEST DUP2 SLOAD PUSH1 0x1 PUSH1 0x1 PUSH1 0xA0 SHL SUB AND DUP2 MSTORE PUSH1 0x1 SWAP1 SWAP2 ADD SWAP1 PUSH1 0x20 ADD DUP1 DUP4 GT PUSH2 0x1756 JUMPI JUMPDEST POP POP POP POP POP SWAP1 POP SWAP1 JUMP JUMPDEST PUSH2 0x1787 CALLER PUSH2 0x1FB3 JUMP JUMPDEST PUSH2 0x17A3 JUMPI PUSH1 0x40 MLOAD PUSH3 0x461BCD PUSH1 0xE5 SHL DUP2 MSTORE PUSH1 0x4 ADD PUSH2 0xD6B SWAP1 PUSH2 0x3566 JUMP JUMPDEST PUSH1 0x14 DUP1 SLOAD PUSH1 0x1 PUSH1 0x1 PUSH1 0xA0 SHL SUB SWAP4 DUP5 AND PUSH1 0x1 PUSH1 0x1 PUSH1 0xA0 SHL SUB NOT SWAP2 DUP3 AND OR SWAP1 SWAP2 SSTORE PUSH1 0x15 DUP1 SLOAD SWAP3 SWAP1 SWAP4 AND SWAP2 AND OR SWAP1 SSTORE JUMP JUMPDEST PUSH1 0x28 SLOAD PUSH1 0x1 PUSH1 0x1 PUSH1 0xA0 SHL SUB AND DUP2 JUMP JUMPDEST PUSH1 0x19 SLOAD PUSH1 0x1 PUSH1 0x1 PUSH1 0xA0 SHL SUB AND DUP2 JUMP JUMPDEST PUSH1 0x0 PUSH2 0x1102 CALLER DUP5 DUP5 PUSH2 0x2015 JUMP JUMPDEST PUSH2 0x1805 CALLER PUSH2 0x1FB3 JUMP JUMPDEST PUSH2 0x1821 JUMPI PUSH1 0x40 MLOAD PUSH3 0x461BCD PUSH1 0xE5 SHL DUP2 MSTORE PUSH1 0x4 ADD PUSH2 0xD6B SWAP1 PUSH2 0x3566 JUMP JUMPDEST PUSH1 0x0 PUSH1 0x1E SSTORE JUMP JUMPDEST PUSH2 0x1831 CALLER PUSH2 0x1359 JUMP JUMPDEST PUSH2 0x184D JUMPI PUSH1 0x40 MLOAD PUSH3 0x461BCD PUSH1 0xE5 SHL DUP2 MSTORE PUSH1 0x4 ADD PUSH2 0xD6B SWAP1 PUSH2 0x350F JUMP JUMPDEST PUSH1 0x0 SWAP2 DUP3 MSTORE PUSH1 0x3C PUSH1 0x20 MSTORE PUSH1 0x40 SWAP1 SWAP2 KECCAK256 SSTORE JUMP JUMPDEST PUSH2 0x1868 CALLER PUSH2 0x1359 JUMP JUMPDEST PUSH2 0x1884 JUMPI PUSH1 0x40 MLOAD PUSH3 0x461BCD PUSH1 0xE5 SHL DUP2 MSTORE PUSH1 0x4 ADD PUSH2 0xD6B SWAP1 PUSH2 0x350F JUMP JUMPDEST PUSH1 0x1 PUSH1 0x1 PUSH1 0xA0 SHL SUB AND PUSH1 0x0 SWAP1 DUP2 MSTORE PUSH1 0x1 PUSH1 0x20 DUP2 SWAP1 MSTORE PUSH1 0x40 SWAP1 SWAP2 KECCAK256 DUP1 SLOAD PUSH1 0xFF NOT AND SWAP1 SWAP2 OR SWAP1 SSTORE JUMP JUMPDEST PUSH2 0x18B4 CALLER PUSH2 0x1FB3 JUMP JUMPDEST PUSH2 0x18D0 JUMPI PUSH1 0x40 MLOAD PUSH3 0x461BCD PUSH1 0xE5 SHL DUP2 MSTORE PUSH1 0x4 ADD PUSH2 0xD6B SWAP1 PUSH2 0x3566 JUMP JUMPDEST PUSH1 0x1 PUSH1 0x1 PUSH1 0xA0 SHL SUB AND PUSH1 0x0 SWAP1 DUP2 MSTORE PUSH1 0x30 PUSH1 0x20 MSTORE PUSH1 0x40 SWAP1 KECCAK256 DUP1 SLOAD PUSH1 0xFF NOT AND SWAP1 SSTORE JUMP JUMPDEST PUSH1 0x1A SLOAD DUP2 JUMP JUMPDEST PUSH2 0x1900 CALLER PUSH2 0x1FB3 JUMP JUMPDEST PUSH2 0x191C JUMPI PUSH1 0x40 MLOAD PUSH3 0x461BCD PUSH1 0xE5 SHL DUP2 MSTORE PUSH1 0x4 ADD PUSH2 0xD6B SWAP1 PUSH2 0x3566 JUMP JUMPDEST PUSH1 0x0 DUP3 PUSH1 0x1 PUSH1 0x1 PUSH1 0xA0 SHL SUB AND DUP3 PUSH1 0x40 MLOAD PUSH2 0x1935 SWAP1 PUSH2 0xE8B JUMP JUMPDEST PUSH1 0x0 PUSH1 0x40 MLOAD DUP1 DUP4 SUB DUP2 DUP6 DUP8 GAS CALL SWAP3 POP POP POP RETURNDATASIZE DUP1 PUSH1 0x0 DUP2 EQ PUSH2 0x1972 JUMPI PUSH1 0x40 MLOAD SWAP2 POP PUSH1 0x1F NOT PUSH1 0x3F RETURNDATASIZE ADD AND DUP3 ADD PUSH1 0x40 MSTORE RETURNDATASIZE DUP3 MSTORE RETURNDATASIZE PUSH1 0x0 PUSH1 0x20 DUP5 ADD RETURNDATACOPY PUSH2 0x1977 JUMP JUMPDEST PUSH1 0x60 SWAP2 POP JUMPDEST POP POP SWAP1 POP DUP1 PUSH2 0x11B9 JUMPI PUSH1 0x40 MLOAD PUSH3 0x461BCD PUSH1 0xE5 SHL DUP2 MSTORE PUSH1 0x4 ADD PUSH2 0xD6B SWAP1 PUSH2 0x3431 JUMP JUMPDEST PUSH1 0x1B SLOAD DUP2 JUMP JUMPDEST PUSH1 0x14 SLOAD PUSH1 0x1 PUSH1 0x1 PUSH1 0xA0 SHL SUB AND DUP2 JUMP JUMPDEST PUSH2 0x19B6 CALLER PUSH2 0x1359 JUMP JUMPDEST PUSH2 0x19D2 JUMPI PUSH1 0x40 MLOAD PUSH3 0x461BCD PUSH1 0xE5 SHL DUP2 MSTORE PUSH1 0x4 ADD PUSH2 0xD6B SWAP1 PUSH2 0x350F JUMP JUMPDEST PUSH1 0x35 DUP1 SLOAD PUSH1 0xFF NOT AND SWAP1 SSTORE JUMP JUMPDEST TIMESTAMP SWAP1 JUMP JUMPDEST PUSH1 0x0 PUSH2 0x1458 PUSH2 0x19EF PUSH2 0x1283 JUMP JUMPDEST PUSH1 0x19 SLOAD PUSH2 0x11E4 SWAP1 PUSH2 0x1A15 SWAP1 PUSH1 0x2 SWAP1 PUSH2 0x1A0F SWAP1 PUSH1 0x1 PUSH1 0x1 PUSH1 0xA0 SHL SUB AND PUSH2 0x1518 JUMP JUMPDEST SWAP1 PUSH2 0x24F4 JUMP JUMPDEST DUP6 SWAP1 PUSH2 0x24F4 JUMP JUMPDEST PUSH1 0x0 TIMESTAMP PUSH1 0x1B SLOAD PUSH3 0x15180 PUSH2 0x1A30 SWAP2 SWAP1 PUSH2 0x3605 JUMP JUMPDEST GT ISZERO PUSH2 0x1A5A JUMPI PUSH2 0x1A53 PUSH1 0x13 SLOAD PUSH2 0x11E4 PUSH2 0x4650 PUSH1 0x12 SLOAD PUSH2 0x24F4 SWAP1 SWAP2 SWAP1 PUSH4 0xFFFFFFFF AND JUMP JUMPDEST SWAP1 POP PUSH2 0xE8B JUMP JUMPDEST TIMESTAMP PUSH2 0x1A72 PUSH1 0x1F SLOAD PUSH1 0x1E SLOAD PUSH2 0x1FDD SWAP1 SWAP2 SWAP1 PUSH4 0xFFFFFFFF AND JUMP JUMPDEST GT ISZERO PUSH2 0x1AEC JUMPI PUSH1 0x0 PUSH2 0x1A95 TIMESTAMP PUSH2 0x12C1 PUSH1 0x1F SLOAD PUSH1 0x1E SLOAD PUSH2 0x1FDD SWAP1 SWAP2 SWAP1 PUSH4 0xFFFFFFFF AND JUMP JUMPDEST SWAP1 POP PUSH1 0x0 PUSH2 0x1ABC PUSH1 0x12 SLOAD PUSH2 0x12C1 PUSH1 0x1D SLOAD PUSH2 0x11E4 PUSH1 0x1C SLOAD PUSH1 0x12 SLOAD PUSH2 0x24F4 SWAP1 SWAP2 SWAP1 PUSH4 0xFFFFFFFF AND JUMP JUMPDEST SWAP1 POP PUSH2 0x1AE3 PUSH2 0x1ADA PUSH1 0x1F SLOAD PUSH2 0x11E4 DUP6 DUP6 PUSH2 0x24F4 SWAP1 SWAP2 SWAP1 PUSH4 0xFFFFFFFF AND JUMP JUMPDEST PUSH1 0x12 SLOAD SWAP1 PUSH2 0x1FDD JUMP JUMPDEST SWAP3 POP POP POP PUSH2 0xE8B JUMP JUMPDEST POP PUSH1 0x12 SLOAD SWAP1 JUMP JUMPDEST CALLER PUSH1 0x0 SWAP1 DUP2 MSTORE PUSH1 0x9 PUSH1 0x20 MSTORE PUSH1 0x40 SWAP1 KECCAK256 SLOAD ISZERO PUSH2 0x1B1B JUMPI CALLER PUSH1 0x0 SWAP1 DUP2 MSTORE PUSH1 0x2D PUSH1 0x20 MSTORE PUSH1 0x40 SWAP1 KECCAK256 TIMESTAMP SWAP1 SSTORE JUMPDEST JUMP JUMPDEST PUSH1 0x1 PUSH1 0x1 PUSH1 0xA0 SHL SUB SWAP2 DUP3 AND PUSH1 0x0 SWAP1 DUP2 MSTORE PUSH1 0xA PUSH1 0x20 SWAP1 DUP2 MSTORE PUSH1 0x40 DUP1 DUP4 KECCAK256 SWAP4 SWAP1 SWAP5 AND DUP3 MSTORE SWAP2 SWAP1 SWAP2 MSTORE KECCAK256 SLOAD SWAP1 JUMP JUMPDEST PUSH2 0x1B51 CALLER PUSH2 0x1FB3 JUMP JUMPDEST PUSH2 0x1B6D JUMPI PUSH1 0x40 MLOAD PUSH3 0x461BCD PUSH1 0xE5 SHL DUP2 MSTORE PUSH1 0x4 ADD PUSH2 0xD6B SWAP1 PUSH2 0x3566 JUMP JUMPDEST PUSH1 0x2A DUP1 SLOAD PUSH1 0xFF NOT AND SWAP3 ISZERO ISZERO SWAP3 SWAP1 SWAP3 OR SWAP1 SWAP2 SSTORE PUSH1 0x2B SSTORE JUMP JUMPDEST PUSH2 0x1B8D CALLER PUSH2 0x1FB3 JUMP JUMPDEST PUSH2 0x1BA9 JUMPI PUSH1 0x40 MLOAD PUSH3 0x461BCD PUSH1 0xE5 SHL DUP2 MSTORE PUSH1 0x4 ADD PUSH2 0xD6B SWAP1 PUSH2 0x3566 JUMP JUMPDEST PUSH2 0x1BB4 DUP2 PUSH1 0x18 PUSH2 0x363D JUMP JUMPDEST PUSH2 0x1BBF SWAP1 PUSH1 0x3C PUSH2 0x363D JUMP JUMPDEST PUSH2 0x1BCA SWAP1 PUSH1 0x3C PUSH2 0x363D JUMP JUMPDEST PUSH1 0x2E SSTORE POP JUMP JUMPDEST PUSH16 0xFFFFFFFFFFFFFFFFFFFFFFFFFFFFFFFF DUP2 JUMP JUMPDEST PUSH1 0x15 SLOAD PUSH1 0x1 PUSH1 0x1 PUSH1 0xA0 SHL SUB AND DUP2 JUMP JUMPDEST PUSH2 0x1BFC CALLER PUSH2 0x1359 JUMP JUMPDEST PUSH2 0x1C18 JUMPI PUSH1 0x40 MLOAD PUSH3 0x461BCD PUSH1 0xE5 SHL DUP2 MSTORE PUSH1 0x4 ADD PUSH2 0xD6B SWAP1 PUSH2 0x350F JUMP JUMPDEST PUSH1 0x1 PUSH1 0x1 PUSH1 0xA0 SHL SUB AND PUSH1 0x0 SWAP1 DUP2 MSTORE PUSH1 0x1 PUSH1 0x20 MSTORE PUSH1 0x40 SWAP1 KECCAK256 DUP1 SLOAD PUSH1 0xFF NOT AND SWAP1 SSTORE JUMP JUMPDEST PUSH1 0x0 NUMBER PUSH1 0x1A SLOAD PUSH1 0x1 PUSH2 0x1C4B SWAP2 SWAP1 PUSH2 0x3605 JUMP JUMPDEST LT PUSH2 0x1C65 JUMPI PUSH1 0x13 SLOAD PUSH2 0x1C5E SWAP1 PUSH1 0x1 PUSH2 0x24E8 JUMP JUMPDEST SWAP1 POP PUSH2 0x127E JUMP JUMPDEST DUP2 ISZERO PUSH2 0x1C73 JUMPI PUSH2 0x1C5E PUSH2 0x1A1C JUMP JUMPDEST POP POP PUSH1 0x12 SLOAD SWAP1 JUMP JUMPDEST PUSH2 0x1C84 CALLER PUSH2 0x1359 JUMP JUMPDEST PUSH2 0x1CA0 JUMPI PUSH1 0x40 MLOAD PUSH3 0x461BCD PUSH1 0xE5 SHL DUP2 MSTORE PUSH1 0x4 ADD PUSH2 0xD6B SWAP1 PUSH2 0x350F JUMP JUMPDEST PUSH1 0x0 DUP1 SLOAD PUSH1 0x1 PUSH1 0x1 PUSH1 0xA0 SHL SUB NOT AND PUSH1 0x1 PUSH1 0x1 PUSH1 0xA0 SHL SUB DUP4 AND SWAP1 DUP2 OR DUP3 SSTORE DUP2 MSTORE PUSH1 0x1 PUSH1 0x20 DUP2 SWAP1 MSTORE PUSH1 0x40 SWAP2 DUP3 SWAP1 KECCAK256 DUP1 SLOAD PUSH1 0xFF NOT AND SWAP1 SWAP2 OR SWAP1 SSTORE MLOAD PUSH32 0x4DBA622D284ED0014EE4B9A6A68386BE1A4C08A4913AE272DE89199CC686163 SWAP1 PUSH2 0x1D05 SWAP1 DUP4 SWAP1 PUSH2 0x32F8 JUMP JUMPDEST PUSH1 0x40 MLOAD DUP1 SWAP2 SUB SWAP1 LOG1 POP JUMP JUMPDEST PUSH2 0x1D19 CALLER PUSH2 0x1359 JUMP JUMPDEST PUSH2 0x1D35 JUMPI PUSH1 0x40 MLOAD PUSH3 0x461BCD PUSH1 0xE5 SHL DUP2 MSTORE PUSH1 0x4 ADD PUSH2 0xD6B SWAP1 PUSH2 0x350F JUMP JUMPDEST PUSH1 0x36 SLOAD PUSH1 0x33 SSTORE TIMESTAMP PUSH1 0x34 DUP2 SWAP1 SSTORE PUSH1 0x38 SLOAD GT DUP1 ISZERO PUSH2 0x1D5D JUMPI POP PUSH2 0x1D57 TIMESTAMP PUSH1 0x5A PUSH2 0x3605 JUMP JUMPDEST PUSH1 0x38 SLOAD GT ISZERO JUMPDEST ISZERO PUSH2 0x1B1B JUMPI PUSH1 0x35 DUP1 SLOAD PUSH1 0xFF NOT AND PUSH1 0x1 OR SWAP1 SSTORE PUSH1 0x0 PUSH1 0x36 SSTORE JUMP JUMPDEST PUSH2 0x1D7F CALLER PUSH2 0x1359 JUMP JUMPDEST PUSH2 0x1D9B JUMPI PUSH1 0x40 MLOAD PUSH3 0x461BCD PUSH1 0xE5 SHL DUP2 MSTORE PUSH1 0x4 ADD PUSH2 0xD6B SWAP1 PUSH2 0x350F JUMP JUMPDEST PUSH1 0x33 SSTORE JUMP JUMPDEST PUSH2 0x1DA9 CALLER PUSH2 0x1FB3 JUMP JUMPDEST PUSH2 0x1DC5 JUMPI PUSH1 0x40 MLOAD PUSH3 0x461BCD PUSH1 0xE5 SHL DUP2 MSTORE PUSH1 0x4 ADD PUSH2 0xD6B SWAP1 PUSH2 0x3566 JUMP JUMPDEST PUSH1 0x4 SLOAD PUSH2 0x1DDC SWAP1 DUP4 SWAP1 PUSH1 0x1 PUSH1 0x1 PUSH1 0xA0 SHL SUB AND PUSH2 0x2500 JUMP JUMPDEST DUP1 ISZERO PUSH2 0x1E20 JUMPI TIMESTAMP PUSH1 0x1E SSTORE PUSH1 0x1F SLOAD PUSH1 0x40 MLOAD PUSH32 0x39D2389EC5C1FA77B2C0D374BC61B6D7BD97CCBA280FCDEB4E9C7644898D7C3A SWAP2 PUSH2 0x1E17 SWAP2 PUSH2 0x358B JUMP JUMPDEST PUSH1 0x40 MLOAD DUP1 SWAP2 SUB SWAP1 LOG1 JUMPDEST POP POP JUMP JUMPDEST PUSH2 0x1E2D CALLER PUSH2 0x1FB3 JUMP JUMPDEST PUSH2 0x1E49 JUMPI PUSH1 0x40 MLOAD PUSH3 0x461BCD PUSH1 0xE5 SHL DUP2 MSTORE PUSH1 0x4 ADD PUSH2 0xD6B SWAP1 PUSH2 0x3566 JUMP JUMPDEST PUSH1 0x1 PUSH1 0x1 PUSH1 0xA0 SHL SUB DUP3 AND ADDRESS EQ DUP1 ISZERO SWAP1 PUSH2 0x1E70 JUMPI POP PUSH1 0x19 SLOAD PUSH1 0x1 PUSH1 0x1 PUSH1 0xA0 SHL SUB DUP4 DUP2 AND SWAP2 AND EQ ISZERO JUMPDEST PUSH2 0x1E79 JUMPI PUSH1 0x0 DUP1 REVERT JUMPDEST PUSH1 0x1 PUSH1 0x1 PUSH1 0xA0 SHL SUB DUP3 AND PUSH1 0x0 SWAP1 DUP2 MSTORE PUSH1 0xD PUSH1 0x20 MSTORE PUSH1 0x40 SWAP1 KECCAK256 DUP1 SLOAD PUSH1 0xFF NOT AND DUP3 ISZERO DUP1 ISZERO SWAP2 SWAP1 SWAP2 OR SWAP1 SWAP2 SSTORE PUSH2 0x1F10 JUMPI PUSH1 0x27 SLOAD PUSH1 0x40 MLOAD PUSH4 0xA5B654B PUSH1 0xE1 SHL DUP2 MSTORE PUSH1 0x1 PUSH1 0x1 PUSH1 0xA0 SHL SUB SWAP1 SWAP2 AND SWAP1 PUSH4 0x14B6CA96 SWAP1 PUSH2 0x1ED9 SWAP1 DUP6 SWAP1 PUSH1 0x0 SWAP1 PUSH1 0x4 ADD PUSH2 0x330C JUMP JUMPDEST PUSH1 0x0 PUSH1 0x40 MLOAD DUP1 DUP4 SUB DUP2 PUSH1 0x0 DUP8 DUP1 EXTCODESIZE ISZERO DUP1 ISZERO PUSH2 0x1EF3 JUMPI PUSH1 0x0 DUP1 REVERT JUMPDEST POP GAS CALL ISZERO DUP1 ISZERO PUSH2 0x1F07 JUMPI RETURNDATASIZE PUSH1 0x0 DUP1 RETURNDATACOPY RETURNDATASIZE PUSH1 0x0 REVERT JUMPDEST POP POP POP POP PUSH2 0x1E20 JUMP JUMPDEST PUSH1 0x27 SLOAD PUSH1 0x1 PUSH1 0x1 PUSH1 0xA0 SHL SUB DUP4 DUP2 AND PUSH1 0x0 SWAP1 DUP2 MSTORE PUSH1 0x9 PUSH1 0x20 MSTORE PUSH1 0x40 SWAP1 DUP2 SWAP1 KECCAK256 SLOAD SWAP1 MLOAD PUSH4 0xA5B654B PUSH1 0xE1 SHL DUP2 MSTORE SWAP2 SWAP1 SWAP3 AND SWAP2 PUSH4 0x14B6CA96 SWAP2 PUSH2 0x1323 SWAP2 DUP7 SWAP2 PUSH1 0x4 ADD PUSH2 0x330C JUMP JUMPDEST PUSH2 0x1F5D CALLER PUSH2 0x1FB3 JUMP JUMPDEST PUSH2 0x1F79 JUMPI PUSH1 0x40 MLOAD PUSH3 0x461BCD PUSH1 0xE5 SHL DUP2 MSTORE PUSH1 0x4 ADD PUSH2 0xD6B SWAP1 PUSH2 0x3566 JUMP JUMPDEST PUSH1 0x1 PUSH1 0x1 PUSH1 0xA0 SHL SUB SWAP2 SWAP1 SWAP2 AND PUSH1 0x0 SWAP1 DUP2 MSTORE PUSH1 0xC PUSH1 0x20 MSTORE PUSH1 0x40 SWAP1 KECCAK256 DUP1 SLOAD PUSH1 0xFF NOT AND SWAP2 ISZERO ISZERO SWAP2 SWAP1 SWAP2 OR SWAP1 SSTORE JUMP JUMPDEST PUSH1 0x18 SLOAD PUSH1 0x1 PUSH1 0x1 PUSH1 0xA0 SHL SUB AND DUP2 JUMP JUMPDEST PUSH1 0x1 PUSH1 0x1 PUSH1 0xA0 SHL SUB AND PUSH1 0x0 SWAP1 DUP2 MSTORE PUSH1 0x1 PUSH1 0x20 MSTORE PUSH1 0x40 SWAP1 KECCAK256 SLOAD PUSH1 0xFF AND SWAP1 JUMP JUMPDEST PUSH1 0x0 PUSH2 0x1102 DUP3 DUP5 PUSH2 0x361D JUMP JUMPDEST PUSH1 0x0 PUSH2 0x1102 DUP3 DUP5 PUSH2 0x3605 JUMP JUMPDEST PUSH1 0x0 DUP2 DUP5 DUP5 GT ISZERO PUSH2 0x200D JUMPI PUSH1 0x40 MLOAD PUSH3 0x461BCD PUSH1 0xE5 SHL DUP2 MSTORE PUSH1 0x4 ADD PUSH2 0xD6B SWAP2 SWAP1 PUSH2 0x33B3 JUMP JUMPDEST POP POP POP SWAP1 SUB SWAP1 JUMP JUMPDEST PUSH1 0x1 PUSH1 0x1 PUSH1 0xA0 SHL SUB DUP4 AND PUSH1 0x0 SWAP1 DUP2 MSTORE PUSH1 0x30 PUSH1 0x20 MSTORE PUSH1 0x40 DUP2 KECCAK256 SLOAD PUSH1 0xFF AND ISZERO DUP1 ISZERO PUSH2 0x2057 JUMPI POP PUSH1 0x1 PUSH1 0x1 PUSH1 0xA0 SHL SUB DUP4 AND PUSH1 0x0 SWAP1 DUP2 MSTORE PUSH1 0x30 PUSH1 0x20 MSTORE PUSH1 0x40 SWAP1 KECCAK256 SLOAD PUSH1 0xFF AND ISZERO JUMPDEST PUSH2 0x2073 JUMPI PUSH1 0x40 MLOAD PUSH3 0x461BCD PUSH1 0xE5 SHL DUP2 MSTORE PUSH1 0x4 ADD PUSH2 0xD6B SWAP1 PUSH2 0x352F JUMP JUMPDEST PUSH2 0x207D DUP5 DUP5 PUSH2 0x2625 JUMP JUMPDEST PUSH1 0x2C SLOAD PUSH1 0xFF AND ISZERO PUSH2 0x209A JUMPI PUSH2 0x2093 DUP5 DUP5 DUP5 PUSH2 0x272D JUMP JUMPDEST SWAP1 POP PUSH2 0x1102 JUMP JUMPDEST PUSH2 0x20A4 DUP5 DUP4 PUSH2 0x27D0 JUMP JUMPDEST PUSH2 0x20AC PUSH2 0x2815 JUMP JUMPDEST ISZERO PUSH2 0x20B9 JUMPI PUSH2 0x20B9 PUSH2 0x2864 JUMP JUMPDEST PUSH2 0x20C1 PUSH2 0x2BFE JUMP JUMPDEST ISZERO PUSH2 0x20CE JUMPI PUSH2 0x20CE PUSH2 0x2C59 JUMP JUMPDEST PUSH1 0x40 DUP1 MLOAD DUP1 DUP3 ADD DUP3 MSTORE PUSH1 0x14 DUP2 MSTORE PUSH20 0x496E73756666696369656E742042616C616E6365 PUSH1 0x60 SHL PUSH1 0x20 DUP1 DUP4 ADD SWAP2 SWAP1 SWAP2 MSTORE PUSH1 0x1 PUSH1 0x1 PUSH1 0xA0 SHL SUB DUP8 AND PUSH1 0x0 SWAP1 DUP2 MSTORE PUSH1 0x9 SWAP1 SWAP2 MSTORE SWAP2 SWAP1 SWAP2 KECCAK256 SLOAD PUSH2 0x2120 SWAP2 DUP5 SWAP1 PUSH2 0x1FE9 JUMP JUMPDEST PUSH1 0x1 PUSH1 0x1 PUSH1 0xA0 SHL SUB DUP6 AND PUSH1 0x0 SWAP1 DUP2 MSTORE PUSH1 0x9 PUSH1 0x20 MSTORE PUSH1 0x40 DUP2 KECCAK256 SWAP2 SWAP1 SWAP2 SSTORE PUSH2 0x2145 DUP6 PUSH2 0x2C9F JUMP JUMPDEST PUSH2 0x214F JUMPI DUP3 PUSH2 0x215A JUMP JUMPDEST PUSH2 0x215A DUP6 DUP6 DUP6 PUSH2 0x2CBE JUMP JUMPDEST PUSH1 0x19 SLOAD SWAP1 SWAP2 POP PUSH1 0x1 PUSH1 0x1 PUSH1 0xA0 SHL SUB DUP6 DUP2 AND SWAP2 AND EQ DUP1 ISZERO SWAP1 PUSH2 0x2191 JUMPI POP PUSH1 0x1 PUSH1 0x1 PUSH1 0xA0 SHL SUB DUP5 AND PUSH1 0x0 SWAP1 DUP2 MSTORE PUSH1 0x9 PUSH1 0x20 MSTORE PUSH1 0x40 SWAP1 KECCAK256 SLOAD ISZERO JUMPDEST ISZERO PUSH2 0x21E2 JUMPI PUSH1 0x31 DUP1 SLOAD PUSH1 0x1 DUP2 ADD DUP3 SSTORE PUSH1 0x0 SWAP2 SWAP1 SWAP2 MSTORE PUSH32 0xC54045FA7C6EC765E825DF7F9E9BF9DEC12C5CEF146F93A5EEE56772EE647FBC ADD DUP1 SLOAD PUSH1 0x1 PUSH1 0x1 PUSH1 0xA0 SHL SUB NOT AND PUSH1 0x1 PUSH1 0x1 PUSH1 0xA0 SHL SUB DUP7 AND OR SWAP1 SSTORE JUMPDEST PUSH1 0x1 PUSH1 0x1 PUSH1 0xA0 SHL SUB DUP5 AND PUSH1 0x0 SWAP1 DUP2 MSTORE PUSH1 0x9 PUSH1 0x20 MSTORE PUSH1 0x40 SWAP1 KECCAK256 SLOAD PUSH2 0x2205 SWAP1 DUP3 PUSH2 0x1FDD JUMP JUMPDEST PUSH1 0x1 PUSH1 0x1 PUSH1 0xA0 SHL SUB DUP1 DUP7 AND PUSH1 0x0 SWAP1 DUP2 MSTORE PUSH1 0x9 PUSH1 0x20 SWAP1 DUP2 MSTORE PUSH1 0x40 DUP1 DUP4 KECCAK256 SWAP5 SWAP1 SWAP5 SSTORE SWAP2 DUP9 AND DUP2 MSTORE PUSH1 0xD SWAP1 SWAP2 MSTORE KECCAK256 SLOAD PUSH1 0xFF AND PUSH2 0x22A9 JUMPI PUSH1 0x27 SLOAD PUSH1 0x1 PUSH1 0x1 PUSH1 0xA0 SHL SUB DUP7 DUP2 AND PUSH1 0x0 SWAP1 DUP2 MSTORE PUSH1 0x9 PUSH1 0x20 MSTORE PUSH1 0x40 SWAP1 DUP2 SWAP1 KECCAK256 SLOAD SWAP1 MLOAD PUSH4 0xA5B654B PUSH1 0xE1 SHL DUP2 MSTORE SWAP2 SWAP1 SWAP3 AND SWAP2 PUSH4 0x14B6CA96 SWAP2 PUSH2 0x227C SWAP2 DUP10 SWAP2 PUSH1 0x4 ADD PUSH2 0x330C JUMP JUMPDEST PUSH1 0x0 PUSH1 0x40 MLOAD DUP1 DUP4 SUB DUP2 PUSH1 0x0 DUP8 DUP1 EXTCODESIZE ISZERO DUP1 ISZERO PUSH2 0x2296 JUMPI PUSH1 0x0 DUP1 REVERT JUMPDEST POP GAS CALL SWAP3 POP POP POP DUP1 ISZERO PUSH2 0x22A7 JUMPI POP PUSH1 0x1 JUMPDEST POP JUMPDEST PUSH1 0x1 PUSH1 0x1 PUSH1 0xA0 SHL SUB DUP5 AND PUSH1 0x0 SWAP1 DUP2 MSTORE PUSH1 0xD PUSH1 0x20 MSTORE PUSH1 0x40 SWAP1 KECCAK256 SLOAD PUSH1 0xFF AND PUSH2 0x233A JUMPI PUSH1 0x27 SLOAD PUSH1 0x1 PUSH1 0x1 PUSH1 0xA0 SHL SUB DUP6 DUP2 AND PUSH1 0x0 SWAP1 DUP2 MSTORE PUSH1 0x9 PUSH1 0x20 MSTORE PUSH1 0x40 SWAP1 DUP2 SWAP1 KECCAK256 SLOAD SWAP1 MLOAD PUSH4 0xA5B654B PUSH1 0xE1 SHL DUP2 MSTORE SWAP2 SWAP1 SWAP3 AND SWAP2 PUSH4 0x14B6CA96 SWAP2 PUSH2 0x230D SWAP2 DUP9 SWAP2 PUSH1 0x4 ADD PUSH2 0x330C JUMP JUMPDEST PUSH1 0x0 PUSH1 0x40 MLOAD DUP1 DUP4 SUB DUP2 PUSH1 0x0 DUP8 DUP1 EXTCODESIZE ISZERO DUP1 ISZERO PUSH2 0x2327 JUMPI PUSH1 0x0 DUP1 REVERT JUMPDEST POP GAS CALL SWAP3 POP POP POP DUP1 ISZERO PUSH2 0x2338 JUMPI POP PUSH1 0x1 JUMPDEST POP JUMPDEST PUSH1 0x19 SLOAD PUSH1 0x1 PUSH1 0x1 PUSH1 0xA0 SHL SUB DUP6 DUP2 AND SWAP2 AND EQ PUSH2 0x239A JUMPI PUSH1 0x1 PUSH1 0x1 PUSH1 0xA0 SHL SUB DUP5 AND PUSH1 0x0 SWAP1 DUP2 MSTORE PUSH1 0x2D PUSH1 0x20 SWAP1 DUP2 MSTORE PUSH1 0x40 DUP1 DUP4 KECCAK256 TIMESTAMP SWAP1 SSTORE PUSH1 0x2F SWAP1 SWAP2 MSTORE SWAP1 KECCAK256 SLOAD PUSH2 0x2395 JUMPI PUSH1 0x1 PUSH1 0x1 PUSH1 0xA0 SHL SUB DUP5 AND PUSH1 0x0 SWAP1 DUP2 MSTORE PUSH1 0x2F PUSH1 0x20 MSTORE PUSH1 0x40 SWAP1 KECCAK256 TIMESTAMP SWAP1 SSTORE JUMPDEST PUSH2 0x23D4 JUMP JUMPDEST PUSH1 0x1 PUSH1 0x1 PUSH1 0xA0 SHL SUB DUP6 AND PUSH1 0x0 SWAP1 DUP2 MSTORE PUSH1 0x9 PUSH1 0x20 MSTORE PUSH1 0x40 SWAP1 KECCAK256 SLOAD DUP4 GT ISZERO PUSH2 0x23D4 JUMPI PUSH1 0x1 PUSH1 0x1 PUSH1 0xA0 SHL SUB DUP6 AND PUSH1 0x0 SWAP1 DUP2 MSTORE PUSH1 0x2F PUSH1 0x20 MSTORE PUSH1 0x40 DUP2 KECCAK256 SSTORE JUMPDEST PUSH1 0x39 SLOAD PUSH2 0x100 SWAP1 DIV PUSH1 0xFF AND ISZERO PUSH2 0x2445 JUMPI PUSH1 0x27 SLOAD PUSH1 0x29 SLOAD PUSH1 0x40 MLOAD PUSH1 0x1 PUSH3 0x4D3B87 PUSH1 0xE0 SHL SUB NOT DUP2 MSTORE PUSH1 0x1 PUSH1 0x1 PUSH1 0xA0 SHL SUB SWAP1 SWAP3 AND SWAP2 PUSH4 0xFFB2C479 SWAP2 PUSH2 0x2418 SWAP2 PUSH1 0x4 ADD PUSH2 0x358B JUMP JUMPDEST PUSH1 0x0 PUSH1 0x40 MLOAD DUP1 DUP4 SUB DUP2 PUSH1 0x0 DUP8 DUP1 EXTCODESIZE ISZERO DUP1 ISZERO PUSH2 0x2432 JUMPI PUSH1 0x0 DUP1 REVERT JUMPDEST POP GAS CALL SWAP3 POP POP POP DUP1 ISZERO PUSH2 0x2443 JUMPI POP PUSH1 0x1 JUMPDEST POP JUMPDEST PUSH1 0x39 SLOAD PUSH1 0xFF AND ISZERO PUSH2 0x2492 JUMPI PUSH1 0x18 SLOAD PUSH1 0x0 SWAP1 PUSH2 0x2473 SWAP1 PUSH8 0x16345785D8A0000 SWAP1 PUSH1 0x1 PUSH1 0x1 PUSH1 0xA0 SHL SUB AND ADDRESS PUSH2 0x2D77 JUMP JUMPDEST SWAP1 POP PUSH1 0x36 SLOAD DUP2 LT DUP1 PUSH2 0x2485 JUMPI POP PUSH1 0x36 SLOAD ISZERO JUMPDEST ISZERO PUSH2 0x2490 JUMPI PUSH1 0x36 DUP2 SWAP1 SSTORE JUMPDEST POP JUMPDEST DUP4 PUSH1 0x1 PUSH1 0x1 PUSH1 0xA0 SHL SUB AND DUP6 PUSH1 0x1 PUSH1 0x1 PUSH1 0xA0 SHL SUB AND PUSH32 0xDDF252AD1BE2C89B69C2B068FC378DAA952BA7F163C4A11628F55A4DF523B3EF DUP4 PUSH1 0x40 MLOAD PUSH2 0x24D5 SWAP2 SWAP1 PUSH2 0x358B JUMP JUMPDEST PUSH1 0x40 MLOAD DUP1 SWAP2 SUB SWAP1 LOG3 POP PUSH1 0x1 SWAP5 SWAP4 POP POP POP POP JUMP JUMPDEST PUSH1 0x0 PUSH2 0x1102 DUP3 DUP5 PUSH2 0x365C JUMP JUMPDEST PUSH1 0x0 PUSH2 0x1102 DUP3 DUP5 PUSH2 0x363D JUMP JUMPDEST PUSH1 0x2C DUP1 SLOAD PUSH1 0xFF NOT AND PUSH1 0x1 OR SWAP1 SSTORE PUSH1 0x40 DUP1 MLOAD PUSH1 0x2 DUP1 DUP3 MSTORE PUSH1 0x60 DUP3 ADD DUP4 MSTORE PUSH1 0x0 SWAP3 PUSH1 0x20 DUP4 ADD SWAP1 DUP1 CALLDATASIZE DUP4 CALLDATACOPY POP POP PUSH1 0x3 SLOAD DUP3 MLOAD SWAP3 SWAP4 POP PUSH1 0x1 PUSH1 0x1 PUSH1 0xA0 SHL SUB AND SWAP2 DUP4 SWAP2 POP PUSH1 0x0 SWAP1 PUSH2 0x255C JUMPI PUSH4 0x4E487B71 PUSH1 0xE0 SHL PUSH1 0x0 MSTORE PUSH1 0x32 PUSH1 0x4 MSTORE PUSH1 0x24 PUSH1 0x0 REVERT JUMPDEST PUSH1 0x20 MUL PUSH1 0x20 ADD ADD SWAP1 PUSH1 0x1 PUSH1 0x1 PUSH1 0xA0 SHL SUB AND SWAP1 DUP2 PUSH1 0x1 PUSH1 0x1 PUSH1 0xA0 SHL SUB AND DUP2 MSTORE POP POP ADDRESS DUP2 PUSH1 0x1 DUP2 MLOAD DUP2 LT PUSH2 0x259E JUMPI PUSH4 0x4E487B71 PUSH1 0xE0 SHL PUSH1 0x0 MSTORE PUSH1 0x32 PUSH1 0x4 MSTORE PUSH1 0x24 PUSH1 0x0 REVERT JUMPDEST PUSH1 0x1 PUSH1 0x1 PUSH1 0xA0 SHL SUB SWAP3 DUP4 AND PUSH1 0x20 SWAP2 DUP3 MUL SWAP3 SWAP1 SWAP3 ADD ADD MSTORE PUSH1 0x18 SLOAD PUSH1 0x40 MLOAD PUSH4 0xB6F9DE95 PUSH1 0xE0 SHL DUP2 MSTORE SWAP2 AND SWAP1 PUSH4 0xB6F9DE95 SWAP1 DUP6 SWAP1 PUSH2 0x25E4 SWAP1 PUSH1 0x0 SWAP1 DUP7 SWAP1 DUP9 SWAP1 TIMESTAMP SWAP1 PUSH1 0x4 ADD PUSH2 0x337E JUMP JUMPDEST PUSH1 0x0 PUSH1 0x40 MLOAD DUP1 DUP4 SUB DUP2 DUP6 DUP9 DUP1 EXTCODESIZE ISZERO DUP1 ISZERO PUSH2 0x25FD JUMPI PUSH1 0x0 DUP1 REVERT JUMPDEST POP GAS CALL ISZERO DUP1 ISZERO PUSH2 0x2611 JUMPI RETURNDATASIZE PUSH1 0x0 DUP1 RETURNDATACOPY RETURNDATASIZE PUSH1 0x0 REVERT JUMPDEST POP POP PUSH1 0x2C DUP1 SLOAD PUSH1 0xFF NOT AND SWAP1 SSTORE POP POP POP POP POP POP JUMP JUMPDEST PUSH1 0x35 SLOAD PUSH1 0xFF AND ISZERO PUSH2 0x2676 JUMPI PUSH1 0x0 PUSH1 0x34 SLOAD TIMESTAMP PUSH2 0x2640 SWAP2 SWAP1 PUSH2 0x365C JUMP JUMPDEST SWAP1 POP PUSH1 0x0 PUSH2 0x264C PUSH2 0x11CC JUMP JUMPDEST SWAP1 POP DUP1 DUP3 GT ISZERO PUSH2 0x2673 JUMPI PUSH1 0x33 SLOAD PUSH1 0x36 SLOAD LT ISZERO PUSH2 0x2669 JUMPI PUSH1 0x36 SLOAD PUSH1 0x33 SSTORE JUMPDEST TIMESTAMP PUSH1 0x34 SSTORE PUSH1 0x0 PUSH1 0x36 SSTORE JUMPDEST POP POP JUMPDEST PUSH1 0x35 SLOAD PUSH1 0xFF AND DUP1 ISZERO PUSH2 0x2695 JUMPI POP PUSH1 0x19 SLOAD PUSH1 0x1 PUSH1 0x1 PUSH1 0xA0 SHL SUB DUP3 DUP2 AND SWAP2 AND EQ JUMPDEST DUP1 ISZERO PUSH2 0x26AA JUMPI POP PUSH1 0x1 PUSH1 0x1 PUSH1 0xA0 SHL SUB DUP3 AND ADDRESS EQ ISZERO JUMPDEST DUP1 ISZERO PUSH2 0x26BC JUMPI POP PUSH2 0x26BA DUP3 PUSH2 0x1359 JUMP JUMPDEST ISZERO JUMPDEST DUP1 ISZERO PUSH2 0x26E1 JUMPI POP PUSH1 0x1 PUSH1 0x1 PUSH1 0xA0 SHL SUB DUP3 AND PUSH1 0x0 SWAP1 DUP2 MSTORE PUSH1 0x3B PUSH1 0x20 MSTORE PUSH1 0x40 SWAP1 KECCAK256 SLOAD PUSH1 0xFF AND ISZERO JUMPDEST ISZERO PUSH2 0x1E20 JUMPI PUSH1 0x18 SLOAD PUSH1 0x0 SWAP1 PUSH2 0x2709 SWAP1 PUSH8 0x16345785D8A0000 SWAP1 PUSH1 0x1 PUSH1 0x1 PUSH1 0xA0 SHL SUB AND ADDRESS PUSH2 0x2D77 JUMP JUMPDEST SWAP1 POP PUSH1 0x33 SLOAD DUP2 GT ISZERO PUSH2 0x11B9 JUMPI PUSH1 0x40 MLOAD PUSH3 0x461BCD PUSH1 0xE5 SHL DUP2 MSTORE PUSH1 0x4 ADD PUSH2 0xD6B SWAP1 PUSH2 0x348E JUMP JUMPDEST PUSH1 0x40 DUP1 MLOAD DUP1 DUP3 ADD DUP3 MSTORE PUSH1 0x14 DUP2 MSTORE PUSH20 0x496E73756666696369656E742042616C616E6365 PUSH1 0x60 SHL PUSH1 0x20 DUP1 DUP4 ADD SWAP2 SWAP1 SWAP2 MSTORE PUSH1 0x1 PUSH1 0x1 PUSH1 0xA0 SHL SUB DUP7 AND PUSH1 0x0 SWAP1 DUP2 MSTORE PUSH1 0x9 SWAP1 SWAP2 MSTORE SWAP2 DUP3 KECCAK256 SLOAD PUSH2 0x277E SWAP2 DUP5 SWAP1 PUSH2 0x1FE9 JUMP JUMPDEST PUSH1 0x1 PUSH1 0x1 PUSH1 0xA0 SHL SUB DUP1 DUP7 AND PUSH1 0x0 SWAP1 DUP2 MSTORE PUSH1 0x9 PUSH1 0x20 MSTORE PUSH1 0x40 DUP1 DUP3 KECCAK256 SWAP4 SWAP1 SWAP4 SSTORE SWAP1 DUP6 AND DUP2 MSTORE KECCAK256 SLOAD PUSH2 0x27AD SWAP1 DUP4 PUSH2 0x1FDD JUMP JUMPDEST PUSH1 0x1 PUSH1 0x1 PUSH1 0xA0 SHL SUB DUP5 AND PUSH1 0x0 SWAP1 DUP2 MSTORE PUSH1 0x9 PUSH1 0x20 MSTORE PUSH1 0x40 SWAP1 KECCAK256 SSTORE POP PUSH1 0x1 SWAP4 SWAP3 POP POP POP JUMP JUMPDEST PUSH1 0x8 SLOAD DUP2 GT ISZERO DUP1 PUSH2 0x27F9 JUMPI POP PUSH1 0x1 PUSH1 0x1 PUSH1 0xA0 SHL SUB DUP3 AND PUSH1 0x0 SWAP1 DUP2 MSTORE PUSH1 0xC PUSH1 0x20 MSTORE PUSH1 0x40 SWAP1 KECCAK256 SLOAD PUSH1 0xFF AND JUMPDEST PUSH2 0x1E20 JUMPI PUSH1 0x40 MLOAD PUSH3 0x461BCD PUSH1 0xE5 SHL DUP2 MSTORE PUSH1 0x4 ADD PUSH2 0xD6B SWAP1 PUSH2 0x3406 JUMP JUMPDEST PUSH1 0x19 SLOAD PUSH1 0x0 SWAP1 PUSH1 0x1 PUSH1 0x1 PUSH1 0xA0 SHL SUB AND CALLER EQ DUP1 ISZERO SWAP1 PUSH2 0x2836 JUMPI POP PUSH1 0x2C SLOAD PUSH1 0xFF AND ISZERO JUMPDEST DUP1 ISZERO PUSH2 0x2844 JUMPI POP PUSH1 0x2A SLOAD PUSH1 0xFF AND JUMPDEST DUP1 ISZERO PUSH2 0x12C7 JUMPI POP POP PUSH1 0x2B SLOAD ADDRESS PUSH1 0x0 SWAP1 DUP2 MSTORE PUSH1 0x9 PUSH1 0x20 MSTORE PUSH1 0x40 SWAP1 KECCAK256 SLOAD LT ISZERO SWAP1 JUMP JUMPDEST PUSH1 0x2C DUP1 SLOAD PUSH1 0xFF NOT AND PUSH1 0x1 OR SWAP1 SSTORE PUSH1 0x16 SLOAD PUSH1 0x17 SLOAD PUSH1 0x0 SWAP2 PUSH2 0x2883 SWAP2 PUSH2 0xEF8 JUMP JUMPDEST PUSH2 0x288F JUMPI PUSH1 0xE SLOAD PUSH2 0x2892 JUMP JUMPDEST PUSH1 0x0 JUMPDEST SWAP1 POP PUSH1 0x0 PUSH2 0x28B6 PUSH1 0x2 PUSH2 0x11E4 PUSH1 0x12 SLOAD PUSH2 0x11E4 DUP7 PUSH1 0x2B SLOAD PUSH2 0x24F4 SWAP1 SWAP2 SWAP1 PUSH4 0xFFFFFFFF AND JUMP JUMPDEST SWAP1 POP PUSH1 0x0 PUSH2 0x28CF DUP3 PUSH1 0x2B SLOAD PUSH2 0x24E8 SWAP1 SWAP2 SWAP1 PUSH4 0xFFFFFFFF AND JUMP JUMPDEST PUSH1 0x40 DUP1 MLOAD PUSH1 0x2 DUP1 DUP3 MSTORE PUSH1 0x60 DUP3 ADD DUP4 MSTORE SWAP3 SWAP4 POP PUSH1 0x0 SWAP3 SWAP1 SWAP2 PUSH1 0x20 DUP4 ADD SWAP1 DUP1 CALLDATASIZE DUP4 CALLDATACOPY ADD SWAP1 POP POP SWAP1 POP ADDRESS DUP2 PUSH1 0x0 DUP2 MLOAD DUP2 LT PUSH2 0x2917 JUMPI PUSH4 0x4E487B71 PUSH1 0xE0 SHL PUSH1 0x0 MSTORE PUSH1 0x32 PUSH1 0x4 MSTORE PUSH1 0x24 PUSH1 0x0 REVERT JUMPDEST PUSH1 0x1 PUSH1 0x1 PUSH1 0xA0 SHL SUB SWAP3 DUP4 AND PUSH1 0x20 SWAP2 DUP3 MUL SWAP3 SWAP1 SWAP3 ADD ADD MSTORE PUSH1 0x3 SLOAD DUP3 MLOAD SWAP2 AND SWAP1 DUP3 SWAP1 PUSH1 0x1 SWAP1 DUP2 LT PUSH2 0x2956 JUMPI PUSH4 0x4E487B71 PUSH1 0xE0 SHL PUSH1 0x0 MSTORE PUSH1 0x32 PUSH1 0x4 MSTORE PUSH1 0x24 PUSH1 0x0 REVERT JUMPDEST PUSH1 0x1 PUSH1 0x1 PUSH1 0xA0 SHL SUB SWAP3 DUP4 AND PUSH1 0x20 SWAP2 DUP3 MUL SWAP3 SWAP1 SWAP3 ADD ADD MSTORE PUSH1 0x18 SLOAD PUSH1 0x40 MLOAD PUSH4 0x791AC947 PUSH1 0xE0 SHL DUP2 MSTORE SELFBALANCE SWAP3 SWAP2 SWAP1 SWAP2 AND SWAP1 PUSH4 0x791AC947 SWAP1 PUSH2 0x29A0 SWAP1 DUP7 SWAP1 PUSH1 0x0 SWAP1 DUP8 SWAP1 ADDRESS SWAP1 TIMESTAMP SWAP1 PUSH1 0x4 ADD PUSH2 0x35AD JUMP JUMPDEST PUSH1 0x0 PUSH1 0x40 MLOAD DUP1 DUP4 SUB DUP2 PUSH1 0x0 DUP8 DUP1 EXTCODESIZE ISZERO DUP1 ISZERO PUSH2 0x29BA JUMPI PUSH1 0x0 DUP1 REVERT JUMPDEST POP GAS CALL ISZERO DUP1 ISZERO PUSH2 0x29CE JUMPI RETURNDATASIZE PUSH1 0x0 DUP1 RETURNDATACOPY RETURNDATASIZE PUSH1 0x0 REVERT JUMPDEST POP POP POP POP PUSH1 0x0 PUSH2 0x29E7 DUP3 SELFBALANCE PUSH2 0x24E8 SWAP1 SWAP2 SWAP1 PUSH4 0xFFFFFFFF AND JUMP JUMPDEST SWAP1 POP PUSH1 0x0 PUSH2 0x2A02 PUSH2 0x29F9 DUP9 PUSH1 0x2 PUSH2 0x1FD1 JUMP JUMPDEST PUSH1 0x12 SLOAD SWAP1 PUSH2 0x24E8 JUMP JUMPDEST SWAP1 POP PUSH1 0x0 PUSH2 0x2A17 PUSH1 0x2 PUSH2 0x11E4 DUP5 DUP2 DUP8 DUP14 PUSH2 0x24F4 JUMP JUMPDEST SWAP1 POP PUSH1 0x0 PUSH2 0x2A34 DUP4 PUSH2 0x11E4 PUSH1 0x10 SLOAD DUP8 PUSH2 0x24F4 SWAP1 SWAP2 SWAP1 PUSH4 0xFFFFFFFF AND JUMP JUMPDEST SWAP1 POP PUSH1 0x0 PUSH2 0x2A51 DUP5 PUSH2 0x11E4 PUSH1 0x11 SLOAD DUP9 PUSH2 0x24F4 SWAP1 SWAP2 SWAP1 PUSH4 0xFFFFFFFF AND JUMP JUMPDEST SWAP1 POP PUSH1 0x27 PUSH1 0x0 SWAP1 SLOAD SWAP1 PUSH2 0x100 EXP SWAP1 DIV PUSH1 0x1 PUSH1 0x1 PUSH1 0xA0 SHL SUB AND PUSH1 0x1 PUSH1 0x1 PUSH1 0xA0 SHL SUB AND PUSH4 0xD0E30DB0 DUP4 PUSH1 0x40 MLOAD DUP3 PUSH4 0xFFFFFFFF AND PUSH1 0xE0 SHL DUP2 MSTORE PUSH1 0x4 ADD PUSH1 0x0 PUSH1 0x40 MLOAD DUP1 DUP4 SUB DUP2 DUP6 DUP9 DUP1 EXTCODESIZE ISZERO DUP1 ISZERO PUSH2 0x2AA3 JUMPI PUSH1 0x0 DUP1 REVERT JUMPDEST POP GAS CALL SWAP4 POP POP POP POP DUP1 ISZERO PUSH2 0x2AB5 JUMPI POP PUSH1 0x1 JUMPDEST POP PUSH1 0x15 SLOAD PUSH1 0x40 MLOAD PUSH1 0x1 PUSH1 0x1 PUSH1 0xA0 SHL SUB SWAP1 SWAP2 AND SWAP1 DUP3 ISZERO PUSH2 0x8FC MUL SWAP1 DUP4 SWAP1 PUSH1 0x0 DUP2 DUP2 DUP2 DUP6 DUP9 DUP9 CALL SWAP4 POP POP POP POP ISZERO DUP1 ISZERO PUSH2 0x2AF0 JUMPI RETURNDATASIZE PUSH1 0x0 DUP1 RETURNDATACOPY RETURNDATASIZE PUSH1 0x0 REVERT JUMPDEST POP DUP9 ISZERO PUSH2 0x2BE8 JUMPI PUSH1 0x18 PUSH1 0x0 SWAP1 SLOAD SWAP1 PUSH2 0x100 EXP SWAP1 DIV PUSH1 0x1 PUSH1 0x1 PUSH1 0xA0 SHL SUB AND PUSH1 0x1 PUSH1 0x1 PUSH1 0xA0 SHL SUB AND PUSH4 0xF305D719 DUP5 ADDRESS DUP13 PUSH1 0x0 DUP1 PUSH1 0x14 PUSH1 0x0 SWAP1 SLOAD SWAP1 PUSH2 0x100 EXP SWAP1 DIV PUSH1 0x1 PUSH1 0x1 PUSH1 0xA0 SHL SUB AND TIMESTAMP PUSH1 0x40 MLOAD DUP9 PUSH4 0xFFFFFFFF AND PUSH1 0xE0 SHL DUP2 MSTORE PUSH1 0x4 ADD PUSH2 0x2B59 SWAP7 SWAP6 SWAP5 SWAP4 SWAP3 SWAP2 SWAP1 PUSH2 0x3325 JUMP JUMPDEST PUSH1 0x60 PUSH1 0x40 MLOAD DUP1 DUP4 SUB DUP2 DUP6 DUP9 DUP1 EXTCODESIZE ISZERO DUP1 ISZERO PUSH2 0x2B72 JUMPI PUSH1 0x0 DUP1 REVERT JUMPDEST POP GAS CALL ISZERO DUP1 ISZERO PUSH2 0x2B86 JUMPI RETURNDATASIZE PUSH1 0x0 DUP1 RETURNDATACOPY RETURNDATASIZE PUSH1 0x0 REVERT JUMPDEST POP POP POP POP POP PUSH1 0x40 MLOAD RETURNDATASIZE PUSH1 0x1F NOT PUSH1 0x1F DUP3 ADD AND DUP3 ADD DUP1 PUSH1 0x40 MSTORE POP DUP2 ADD SWAP1 PUSH2 0x2BAB SWAP2 SWAP1 PUSH2 0x324E JUMP JUMPDEST POP POP POP PUSH32 0x424DB2872186FA7E7AFA7A5E902ED3B49A2EF19C2F5431E672462495DD6B4506 DUP4 DUP11 PUSH1 0x40 MLOAD PUSH2 0x2BDF SWAP3 SWAP2 SWAP1 PUSH2 0x35E9 JUMP JUMPDEST PUSH1 0x40 MLOAD DUP1 SWAP2 SUB SWAP1 LOG1 JUMPDEST POP POP PUSH1 0x2C DUP1 SLOAD PUSH1 0xFF NOT AND SWAP1 SSTORE POP POP POP POP POP POP POP POP JUMP JUMPDEST PUSH1 0x19 SLOAD PUSH1 0x0 SWAP1 PUSH1 0x1 PUSH1 0x1 PUSH1 0xA0 SHL SUB AND CALLER EQ DUP1 ISZERO SWAP1 PUSH2 0x2C1F JUMPI POP PUSH1 0x2C SLOAD PUSH1 0xFF AND ISZERO JUMPDEST DUP1 ISZERO PUSH2 0x2C2D JUMPI POP PUSH1 0x20 SLOAD PUSH1 0xFF AND JUMPDEST DUP1 ISZERO PUSH2 0x2C48 JUMPI POP NUMBER PUSH1 0x25 SLOAD PUSH1 0x26 SLOAD PUSH2 0x2C45 SWAP2 SWAP1 PUSH2 0x3605 JUMP JUMPDEST GT ISZERO JUMPDEST DUP1 ISZERO PUSH2 0x12C7 JUMPI POP POP PUSH1 0x24 SLOAD SELFBALANCE LT ISZERO SWAP1 JUMP JUMPDEST PUSH1 0x24 SLOAD PUSH1 0x4 SLOAD PUSH2 0x2C72 SWAP2 SWAP1 PUSH1 0x1 PUSH1 0x1 PUSH1 0xA0 SHL SUB AND PUSH2 0x2500 JUMP JUMPDEST NUMBER PUSH1 0x26 SSTORE PUSH1 0x24 SLOAD PUSH1 0x23 SLOAD PUSH2 0x2C85 SWAP2 PUSH2 0x1FDD JUMP JUMPDEST PUSH1 0x23 DUP2 SWAP1 SSTORE PUSH1 0x22 SLOAD LT ISZERO PUSH2 0x1B1B JUMPI PUSH1 0x20 DUP1 SLOAD PUSH1 0xFF NOT AND SWAP1 SSTORE JUMP JUMPDEST PUSH1 0x1 PUSH1 0x1 PUSH1 0xA0 SHL SUB AND PUSH1 0x0 SWAP1 DUP2 MSTORE PUSH1 0xB PUSH1 0x20 MSTORE PUSH1 0x40 SWAP1 KECCAK256 SLOAD PUSH1 0xFF AND ISZERO SWAP1 JUMP JUMPDEST PUSH1 0x13 SLOAD PUSH1 0x19 SLOAD PUSH1 0x0 SWAP2 DUP3 SWAP2 PUSH2 0x2CF0 SWAP2 SWAP1 PUSH2 0x11E4 SWAP1 PUSH2 0x2CE9 SWAP1 PUSH1 0x1 PUSH1 0x1 PUSH1 0xA0 SHL SUB DUP10 DUP2 AND SWAP2 AND EQ PUSH2 0x1C39 JUMP JUMPDEST DUP7 SWAP1 PUSH2 0x24F4 JUMP JUMPDEST ADDRESS PUSH1 0x0 SWAP1 DUP2 MSTORE PUSH1 0x9 PUSH1 0x20 MSTORE PUSH1 0x40 SWAP1 KECCAK256 SLOAD SWAP1 SWAP2 POP PUSH2 0x2D0D SWAP1 DUP3 PUSH2 0x1FDD JUMP JUMPDEST ADDRESS PUSH1 0x0 DUP2 DUP2 MSTORE PUSH1 0x9 PUSH1 0x20 MSTORE PUSH1 0x40 SWAP1 DUP2 SWAP1 KECCAK256 SWAP3 SWAP1 SWAP3 SSTORE SWAP1 MLOAD PUSH1 0x1 PUSH1 0x1 PUSH1 0xA0 SHL SUB DUP8 AND SWAP1 PUSH32 0xDDF252AD1BE2C89B69C2B068FC378DAA952BA7F163C4A11628F55A4DF523B3EF SWAP1 PUSH2 0x2D5C SWAP1 DUP6 SWAP1 PUSH2 0x358B JUMP JUMPDEST PUSH1 0x40 MLOAD DUP1 SWAP2 SUB SWAP1 LOG3 PUSH2 0x2D6E DUP4 DUP3 PUSH2 0x24E8 JUMP JUMPDEST SWAP6 SWAP5 POP POP POP POP POP JUMP JUMPDEST PUSH1 0x40 DUP1 MLOAD PUSH1 0x2 DUP1 DUP3 MSTORE PUSH1 0x60 DUP3 ADD DUP4 MSTORE PUSH1 0x0 SWAP3 DUP6 SWAP3 DUP5 SWAP3 SWAP1 SWAP2 PUSH1 0x20 DUP4 ADD SWAP1 DUP1 CALLDATASIZE DUP4 CALLDATACOPY ADD SWAP1 POP POP SWAP1 POP DUP2 PUSH1 0x1 PUSH1 0x1 PUSH1 0xA0 SHL SUB AND PUSH4 0xAD5C4648 PUSH1 0x40 MLOAD DUP2 PUSH4 0xFFFFFFFF AND PUSH1 0xE0 SHL DUP2 MSTORE PUSH1 0x4 ADD PUSH1 0x20 PUSH1 0x40 MLOAD DUP1 DUP4 SUB DUP2 DUP7 DUP1 EXTCODESIZE ISZERO DUP1 ISZERO PUSH2 0x2DD7 JUMPI PUSH1 0x0 DUP1 REVERT JUMPDEST POP GAS STATICCALL ISZERO DUP1 ISZERO PUSH2 0x2DEB JUMPI RETURNDATASIZE PUSH1 0x0 DUP1 RETURNDATACOPY RETURNDATASIZE PUSH1 0x0 REVERT JUMPDEST POP POP POP POP PUSH1 0x40 MLOAD RETURNDATASIZE PUSH1 0x1F NOT PUSH1 0x1F DUP3 ADD AND DUP3 ADD DUP1 PUSH1 0x40 MSTORE POP DUP2 ADD SWAP1 PUSH2 0x2E0F SWAP2 SWAP1 PUSH2 0x2F7F JUMP JUMPDEST DUP2 PUSH1 0x0 DUP2 MLOAD DUP2 LT PUSH2 0x2E30 JUMPI PUSH4 0x4E487B71 PUSH1 0xE0 SHL PUSH1 0x0 MSTORE PUSH1 0x32 PUSH1 0x4 MSTORE PUSH1 0x24 PUSH1 0x0 REVERT JUMPDEST PUSH1 0x20 MUL PUSH1 0x20 ADD ADD SWAP1 PUSH1 0x1 PUSH1 0x1 PUSH1 0xA0 SHL SUB AND SWAP1 DUP2 PUSH1 0x1 PUSH1 0x1 PUSH1 0xA0 SHL SUB AND DUP2 MSTORE POP POP DUP4 DUP2 PUSH1 0x1 DUP2 MLOAD DUP2 LT PUSH2 0x2E72 JUMPI PUSH4 0x4E487B71 PUSH1 0xE0 SHL PUSH1 0x0 MSTORE PUSH1 0x32 PUSH1 0x4 MSTORE PUSH1 0x24 PUSH1 0x0 REVERT JUMPDEST PUSH1 0x1 PUSH1 0x1 PUSH1 0xA0 SHL SUB SWAP1 SWAP3 AND PUSH1 0x20 SWAP3 DUP4 MUL SWAP2 SWAP1 SWAP2 ADD SWAP1 SWAP2 ADD MSTORE PUSH1 0x39 SLOAD PUSH1 0xFF PUSH4 0x1000000 SWAP1 SWAP2 DIV AND ISZERO PUSH2 0x2F57 JUMPI PUSH1 0x40 MLOAD PUSH4 0xD06CA61F PUSH1 0xE0 SHL DUP2 MSTORE PUSH1 0x0 SWAP1 PUSH1 0x1 PUSH1 0x1 PUSH1 0xA0 SHL SUB DUP5 AND SWAP1 PUSH4 0xD06CA61F SWAP1 PUSH2 0x2ECE SWAP1 DUP11 SWAP1 DUP7 SWAP1 PUSH1 0x4 ADD PUSH2 0x3594 JUMP JUMPDEST PUSH1 0x0 PUSH1 0x40 MLOAD DUP1 DUP4 SUB DUP2 DUP7 DUP1 EXTCODESIZE ISZERO DUP1 ISZERO PUSH2 0x2EE6 JUMPI PUSH1 0x0 DUP1 REVERT JUMPDEST POP GAS STATICCALL ISZERO DUP1 ISZERO PUSH2 0x2EFA JUMPI RETURNDATASIZE PUSH1 0x0 DUP1 RETURNDATACOPY RETURNDATASIZE PUSH1 0x0 REVERT JUMPDEST POP POP POP POP PUSH1 0x40 MLOAD RETURNDATASIZE PUSH1 0x0 DUP3 RETURNDATACOPY PUSH1 0x1F RETURNDATASIZE SWAP1 DUP2 ADD PUSH1 0x1F NOT AND DUP3 ADD PUSH1 0x40 MSTORE PUSH2 0x2F22 SWAP2 SWAP1 DUP2 ADD SWAP1 PUSH2 0x307D JUMP JUMPDEST SWAP1 POP DUP1 PUSH1 0x1 DUP2 MLOAD DUP2 LT PUSH2 0x2F45 JUMPI PUSH4 0x4E487B71 PUSH1 0xE0 SHL PUSH1 0x0 MSTORE PUSH1 0x32 PUSH1 0x4 MSTORE PUSH1 0x24 PUSH1 0x0 REVERT JUMPDEST PUSH1 0x20 MUL PUSH1 0x20 ADD ADD MLOAD SWAP4 POP POP POP POP PUSH2 0x1102 JUMP JUMPDEST PUSH1 0x3A SLOAD SWAP3 POP POP POP PUSH2 0x1102 JUMP JUMPDEST PUSH1 0x0 PUSH1 0x20 DUP3 DUP5 SUB SLT ISZERO PUSH2 0x2F74 JUMPI DUP1 DUP2 REVERT JUMPDEST DUP2 CALLDATALOAD PUSH2 0x1102 DUP2 PUSH2 0x369F JUMP JUMPDEST PUSH1 0x0 PUSH1 0x20 DUP3 DUP5 SUB SLT ISZERO PUSH2 0x2F90 JUMPI DUP1 DUP2 REVERT JUMPDEST DUP2 MLOAD PUSH2 0x1102 DUP2 PUSH2 0x369F JUMP JUMPDEST PUSH1 0x0 DUP1 PUSH1 0x40 DUP4 DUP6 SUB SLT ISZERO PUSH2 0x2FAD JUMPI DUP1 DUP2 REVERT JUMPDEST DUP3 CALLDATALOAD PUSH2 0x2FB8 DUP2 PUSH2 0x369F JUMP JUMPDEST SWAP5 PUSH1 0x20 SWAP4 SWAP1 SWAP4 ADD CALLDATALOAD SWAP4 POP POP POP JUMP JUMPDEST PUSH1 0x0 DUP1 PUSH1 0x40 DUP4 DUP6 SUB SLT ISZERO PUSH2 0x2FD8 JUMPI DUP2 DUP3 REVERT JUMPDEST DUP3 CALLDATALOAD PUSH2 0x2FE3 DUP2 PUSH2 0x369F JUMP JUMPDEST SWAP2 POP PUSH1 0x20 DUP4 ADD CALLDATALOAD PUSH2 0x2FF3 DUP2 PUSH2 0x369F JUMP JUMPDEST DUP1 SWAP2 POP POP SWAP3 POP SWAP3 SWAP1 POP JUMP JUMPDEST PUSH1 0x0 DUP1 PUSH1 0x0 PUSH1 0x60 DUP5 DUP7 SUB SLT ISZERO PUSH2 0x3012 JUMPI DUP1 DUP2 REVERT JUMPDEST DUP4 CALLDATALOAD PUSH2 0x301D DUP2 PUSH2 0x369F JUMP JUMPDEST SWAP3 POP PUSH1 0x20 DUP5 ADD CALLDATALOAD PUSH2 0x302D DUP2 PUSH2 0x369F JUMP JUMPDEST SWAP3 SWAP6 SWAP3 SWAP5 POP POP POP PUSH1 0x40 SWAP2 SWAP1 SWAP2 ADD CALLDATALOAD SWAP1 JUMP JUMPDEST PUSH1 0x0 DUP1 PUSH1 0x40 DUP4 DUP6 SUB SLT ISZERO PUSH2 0x3050 JUMPI DUP2 DUP3 REVERT JUMPDEST DUP3 CALLDATALOAD PUSH2 0x305B DUP2 PUSH2 0x369F JUMP JUMPDEST SWAP2 POP PUSH1 0x20 DUP4 ADD CALLDATALOAD PUSH2 0x2FF3 DUP2 PUSH2 0x36B7 JUMP JUMPDEST PUSH1 0x0 DUP1 PUSH1 0x40 DUP4 DUP6 SUB SLT ISZERO PUSH2 0x2FAD JUMPI DUP2 DUP3 REVERT JUMPDEST PUSH1 0x0 PUSH1 0x20 DUP1 DUP4 DUP6 SUB SLT ISZERO PUSH2 0x308F JUMPI DUP2 DUP3 REVERT JUMPDEST DUP3 MLOAD PUSH8 0xFFFFFFFFFFFFFFFF DUP1 DUP3 GT ISZERO PUSH2 0x30A6 JUMPI DUP4 DUP5 REVERT JUMPDEST DUP2 DUP6 ADD SWAP2 POP DUP6 PUSH1 0x1F DUP4 ADD SLT PUSH2 0x30B9 JUMPI DUP4 DUP5 REVERT JUMPDEST DUP2 MLOAD DUP2 DUP2 GT ISZERO PUSH2 0x30CB JUMPI PUSH2 0x30CB PUSH2 0x3689 JUMP JUMPDEST DUP4 DUP2 MUL PUSH1 0x40 MLOAD DUP6 DUP3 DUP3 ADD ADD DUP2 DUP2 LT DUP6 DUP3 GT OR ISZERO PUSH2 0x30EA JUMPI PUSH2 0x30EA PUSH2 0x3689 JUMP JUMPDEST PUSH1 0x40 MSTORE DUP3 DUP2 MSTORE DUP6 DUP2 ADD SWAP4 POP DUP5 DUP7 ADD DUP3 DUP7 ADD DUP8 ADD DUP11 LT ISZERO PUSH2 0x3108 JUMPI DUP8 DUP9 REVERT JUMPDEST DUP8 SWAP6 POP JUMPDEST DUP4 DUP7 LT ISZERO PUSH2 0x312A JUMPI DUP1 MLOAD DUP6 MSTORE PUSH1 0x1 SWAP6 SWAP1 SWAP6 ADD SWAP5 SWAP4 DUP7 ADD SWAP4 DUP7 ADD PUSH2 0x310C JUMP JUMPDEST POP SWAP9 SWAP8 POP POP POP POP POP POP POP POP JUMP JUMPDEST PUSH1 0x0 PUSH1 0x20 DUP3 DUP5 SUB SLT ISZERO PUSH2 0x3148 JUMPI DUP1 DUP2 REVERT JUMPDEST DUP2 CALLDATALOAD PUSH2 0x1102 DUP2 PUSH2 0x36B7 JUMP JUMPDEST PUSH1 0x0 PUSH1 0x20 DUP3 DUP5 SUB SLT ISZERO PUSH2 0x3164 JUMPI DUP1 DUP2 REVERT JUMPDEST DUP2 MLOAD PUSH2 0x1102 DUP2 PUSH2 0x36B7 JUMP JUMPDEST PUSH1 0x0 DUP1 PUSH1 0x40 DUP4 DUP6 SUB SLT ISZERO PUSH2 0x3181 JUMPI DUP2 DUP3 REVERT JUMPDEST DUP3 CALLDATALOAD PUSH2 0x2FB8 DUP2 PUSH2 0x36B7 JUMP JUMPDEST PUSH1 0x0 DUP1 PUSH1 0x0 DUP1 PUSH1 0x80 DUP6 DUP8 SUB SLT ISZERO PUSH2 0x31A1 JUMPI DUP1 DUP2 REVERT JUMPDEST DUP5 CALLDATALOAD PUSH2 0x31AC DUP2 PUSH2 0x36B7 JUMP JUMPDEST SWAP7 PUSH1 0x20 DUP7 ADD CALLDATALOAD SWAP7 POP PUSH1 0x40 DUP7 ADD CALLDATALOAD SWAP6 PUSH1 0x60 ADD CALLDATALOAD SWAP5 POP SWAP3 POP POP POP JUMP JUMPDEST PUSH1 0x0 PUSH1 0x20 DUP3 DUP5 SUB SLT ISZERO PUSH2 0x31D7 JUMPI DUP1 DUP2 REVERT JUMPDEST POP CALLDATALOAD SWAP2 SWAP1 POP JUMP JUMPDEST PUSH1 0x0 DUP1 PUSH1 0x40 DUP4 DUP6 SUB SLT ISZERO PUSH2 0x31F0 JUMPI DUP2 DUP3 REVERT JUMPDEST DUP3 CALLDATALOAD SWAP2 POP PUSH1 0x20 DUP4 ADD CALLDATALOAD PUSH2 0x2FF3 DUP2 PUSH2 0x36B7 JUMP JUMPDEST PUSH1 0x0 DUP1 PUSH1 0x40 DUP4 DUP6 SUB SLT ISZERO PUSH2 0x3214 JUMPI DUP2 DUP3 REVERT JUMPDEST POP POP DUP1 CALLDATALOAD SWAP3 PUSH1 0x20 SWAP1 SWAP2 ADD CALLDATALOAD SWAP2 POP JUMP JUMPDEST PUSH1 0x0 DUP1 PUSH1 0x0 PUSH1 0x60 DUP5 DUP7 SUB SLT ISZERO PUSH2 0x3237 JUMPI DUP1 DUP2 REVERT JUMPDEST POP POP DUP2 CALLDATALOAD SWAP4 PUSH1 0x20 DUP4 ADD CALLDATALOAD SWAP4 POP PUSH1 0x40 SWAP1 SWAP3 ADD CALLDATALOAD SWAP2 SWAP1 POP JUMP JUMPDEST PUSH1 0x0 DUP1 PUSH1 0x0 PUSH1 0x60 DUP5 DUP7 SUB SLT ISZERO PUSH2 0x3262 JUMPI DUP1 DUP2 REVERT JUMPDEST DUP4 MLOAD SWAP3 POP PUSH1 0x20 DUP5 ADD MLOAD SWAP2 POP PUSH1 0x40 DUP5 ADD MLOAD SWAP1 POP SWAP3 POP SWAP3 POP SWAP3 JUMP JUMPDEST PUSH1 0x0 DUP1 PUSH1 0x0 DUP1 PUSH1 0x0 PUSH1 0xA0 DUP7 DUP9 SUB SLT ISZERO PUSH2 0x3292 JUMPI DUP3 DUP4 REVERT JUMPDEST POP POP DUP4 CALLDATALOAD SWAP6 PUSH1 0x20 DUP6 ADD CALLDATALOAD SWAP6 POP PUSH1 0x40 DUP6 ADD CALLDATALOAD SWAP5 PUSH1 0x60 DUP2 ADD CALLDATALOAD SWAP5 POP PUSH1 0x80 ADD CALLDATALOAD SWAP3 POP SWAP1 POP JUMP JUMPDEST PUSH1 0x0 DUP2 MLOAD DUP1 DUP5 MSTORE PUSH1 0x20 DUP1 DUP6 ADD SWAP5 POP DUP1 DUP5 ADD DUP4 JUMPDEST DUP4 DUP2 LT ISZERO PUSH2 0x32ED JUMPI DUP2 MLOAD PUSH1 0x1 PUSH1 0x1 PUSH1 0xA0 SHL SUB AND DUP8 MSTORE SWAP6 DUP3 ADD SWAP6 SWAP1 DUP3 ADD SWAP1 PUSH1 0x1 ADD PUSH2 0x32C8 JUMP JUMPDEST POP SWAP5 SWAP6 SWAP5 POP POP POP POP POP JUMP JUMPDEST PUSH1 0x1 PUSH1 0x1 PUSH1 0xA0 SHL SUB SWAP2 SWAP1 SWAP2 AND DUP2 MSTORE PUSH1 0x20 ADD SWAP1 JUMP JUMPDEST PUSH1 0x1 PUSH1 0x1 PUSH1 0xA0 SHL SUB SWAP3 SWAP1 SWAP3 AND DUP3 MSTORE PUSH1 0x20 DUP3 ADD MSTORE PUSH1 0x40 ADD SWAP1 JUMP JUMPDEST PUSH1 0x1 PUSH1 0x1 PUSH1 0xA0 SHL SUB SWAP7 DUP8 AND DUP2 MSTORE PUSH1 0x20 DUP2 ADD SWAP6 SWAP1 SWAP6 MSTORE PUSH1 0x40 DUP6 ADD SWAP4 SWAP1 SWAP4 MSTORE PUSH1 0x60 DUP5 ADD SWAP2 SWAP1 SWAP2 MSTORE SWAP1 SWAP3 AND PUSH1 0x80 DUP3 ADD MSTORE PUSH1 0xA0 DUP2 ADD SWAP2 SWAP1 SWAP2 MSTORE PUSH1 0xC0 ADD SWAP1 JUMP JUMPDEST PUSH1 0x0 PUSH1 0x20 DUP3 MSTORE PUSH2 0x1102 PUSH1 0x20 DUP4 ADD DUP5 PUSH2 0x32B5 JUMP JUMPDEST SWAP1 ISZERO ISZERO DUP2 MSTORE PUSH1 0x20 ADD SWAP1 JUMP JUMPDEST PUSH1 0x0 DUP6 DUP3 MSTORE PUSH1 0x80 PUSH1 0x20 DUP4 ADD MSTORE PUSH2 0x3397 PUSH1 0x80 DUP4 ADD DUP7 PUSH2 0x32B5 JUMP JUMPDEST PUSH1 0x1 PUSH1 0x1 PUSH1 0xA0 SHL SUB SWAP5 SWAP1 SWAP5 AND PUSH1 0x40 DUP4 ADD MSTORE POP PUSH1 0x60 ADD MSTORE SWAP3 SWAP2 POP POP JUMP JUMPDEST PUSH1 0x0 PUSH1 0x20 DUP1 DUP4 MSTORE DUP4 MLOAD DUP1 DUP3 DUP6 ADD MSTORE DUP3 JUMPDEST DUP2 DUP2 LT ISZERO PUSH2 0x33DF JUMPI DUP6 DUP2 ADD DUP4 ADD MLOAD DUP6 DUP3 ADD PUSH1 0x40 ADD MSTORE DUP3 ADD PUSH2 0x33C3 JUMP JUMPDEST DUP2 DUP2 GT ISZERO PUSH2 0x33F0 JUMPI DUP4 PUSH1 0x40 DUP4 DUP8 ADD ADD MSTORE JUMPDEST POP PUSH1 0x1F ADD PUSH1 0x1F NOT AND SWAP3 SWAP1 SWAP3 ADD PUSH1 0x40 ADD SWAP4 SWAP3 POP POP POP JUMP JUMPDEST PUSH1 0x20 DUP1 DUP3 MSTORE PUSH1 0x11 SWAP1 DUP3 ADD MSTORE PUSH17 0x151608131A5B5A5D08115E18D959591959 PUSH1 0x7A SHL PUSH1 0x40 DUP3 ADD MSTORE PUSH1 0x60 ADD SWAP1 JUMP JUMPDEST PUSH1 0x20 DUP1 DUP3 MSTORE PUSH1 0x38 SWAP1 DUP3 ADD MSTORE PUSH32 0x416464726573733A20756E61626C6520746F2073656E642076616C75652C2063 PUSH1 0x40 DUP3 ADD MSTORE PUSH32 0x686172697479206D617920686176652072657665727465640000000000000000 PUSH1 0x60 DUP3 ADD MSTORE PUSH1 0x80 ADD SWAP1 JUMP JUMPDEST PUSH1 0x20 DUP1 DUP3 MSTORE PUSH1 0x33 SWAP1 DUP3 ADD MSTORE PUSH32 0x5472616E73616374696F6E2072656A65637465643A205275672050726F6F6620 PUSH1 0x40 DUP3 ADD MSTORE PUSH19 0x20B633B7B934BA34369025B4B1B5B2B21034B7 PUSH1 0x69 SHL PUSH1 0x60 DUP3 ADD MSTORE PUSH1 0x80 ADD SWAP1 JUMP JUMPDEST PUSH1 0x20 DUP1 DUP3 MSTORE PUSH1 0x14 SWAP1 DUP3 ADD MSTORE PUSH20 0x416C7265616479206C61756E6368656420626F69 PUSH1 0x60 SHL PUSH1 0x40 DUP3 ADD MSTORE PUSH1 0x60 ADD SWAP1 JUMP JUMPDEST PUSH1 0x20 DUP1 DUP3 MSTORE PUSH1 0x6 SWAP1 DUP3 ADD MSTORE PUSH6 0x10A7ABA722A9 PUSH1 0xD1 SHL PUSH1 0x40 DUP3 ADD MSTORE PUSH1 0x60 ADD SWAP1 JUMP JUMPDEST PUSH1 0x20 DUP1 DUP3 MSTORE PUSH1 0x1C SWAP1 DUP3 ADD MSTORE PUSH32 0x5472616E73666572206465636C696E656420666F722077616C6C657400000000 PUSH1 0x40 DUP3 ADD MSTORE PUSH1 0x60 ADD SWAP1 JUMP JUMPDEST PUSH1 0x20 DUP1 DUP3 MSTORE PUSH1 0xB SWAP1 DUP3 ADD MSTORE PUSH11 0x85055551213D492569151 PUSH1 0xAA SHL PUSH1 0x40 DUP3 ADD MSTORE PUSH1 0x60 ADD SWAP1 JUMP JUMPDEST SWAP1 DUP2 MSTORE PUSH1 0x20 ADD SWAP1 JUMP JUMPDEST PUSH1 0x0 DUP4 DUP3 MSTORE PUSH1 0x40 PUSH1 0x20 DUP4 ADD MSTORE PUSH2 0x10FF PUSH1 0x40 DUP4 ADD DUP5 PUSH2 0x32B5 JUMP JUMPDEST PUSH1 0x0 DUP7 DUP3 MSTORE DUP6 PUSH1 0x20 DUP4 ADD MSTORE PUSH1 0xA0 PUSH1 0x40 DUP4 ADD MSTORE PUSH2 0x35CC PUSH1 0xA0 DUP4 ADD DUP7 PUSH2 0x32B5 JUMP JUMPDEST PUSH1 0x1 PUSH1 0x1 PUSH1 0xA0 SHL SUB SWAP5 SWAP1 SWAP5 AND PUSH1 0x60 DUP4 ADD MSTORE POP PUSH1 0x80 ADD MSTORE SWAP4 SWAP3 POP POP POP JUMP JUMPDEST SWAP2 DUP3 MSTORE PUSH1 0x20 DUP3 ADD MSTORE PUSH1 0x40 ADD SWAP1 JUMP JUMPDEST PUSH1 0xFF SWAP2 SWAP1 SWAP2 AND DUP2 MSTORE PUSH1 0x20 ADD SWAP1 JUMP JUMPDEST PUSH1 0x0 DUP3 NOT DUP3 GT ISZERO PUSH2 0x3618 JUMPI PUSH2 0x3618 PUSH2 0x3673 JUMP JUMPDEST POP ADD SWAP1 JUMP JUMPDEST PUSH1 0x0 DUP3 PUSH2 0x3638 JUMPI PUSH4 0x4E487B71 PUSH1 0xE0 SHL DUP2 MSTORE PUSH1 0x12 PUSH1 0x4 MSTORE PUSH1 0x24 DUP2 REVERT JUMPDEST POP DIV SWAP1 JUMP JUMPDEST PUSH1 0x0 DUP2 PUSH1 0x0 NOT DIV DUP4 GT DUP3 ISZERO ISZERO AND ISZERO PUSH2 0x3657 JUMPI PUSH2 0x3657 PUSH2 0x3673 JUMP JUMPDEST POP MUL SWAP1 JUMP JUMPDEST PUSH1 0x0 DUP3 DUP3 LT ISZERO PUSH2 0x366E JUMPI PUSH2 0x366E PUSH2 0x3673 JUMP JUMPDEST POP SUB SWAP1 JUMP JUMPDEST PUSH4 0x4E487B71 PUSH1 0xE0 SHL PUSH1 0x0 MSTORE PUSH1 0x11 PUSH1 0x4 MSTORE PUSH1 0x24 PUSH1 0x0 REVERT JUMPDEST PUSH4 0x4E487B71 PUSH1 0xE0 SHL PUSH1 0x0 MSTORE PUSH1 0x41 PUSH1 0x4 MSTORE PUSH1 0x24 PUSH1 0x0 REVERT JUMPDEST PUSH1 0x1 PUSH1 0x1 PUSH1 0xA0 SHL SUB DUP2 AND DUP2 EQ PUSH2 0x36B4 JUMPI PUSH1 0x0 DUP1 REVERT JUMPDEST POP JUMP JUMPDEST DUP1 ISZERO ISZERO DUP2 EQ PUSH2 0x36B4 JUMPI PUSH1 0x0 DUP1 REVERT INVALID LOG2 PUSH5 0x6970667358 0x22 SLT KECCAK256 DUP1 0x2C 0xE1 0xD0 0xB3 JUMP 0xBF SAR GT 0x4B DUP14 0x1E 0xDE 0x2F 0xBF SIGNEXTEND SWAP11 GASPRICE SWAP4 0xEB MULMOD MSTORE 0x2E CREATE MLOAD 0xBB SWAP9 0x26 BYTE 0xC 0xA9 0xC5 PUSH5 0x736F6C6343 STOP ADDMOD STOP STOP CALLER PUSH1 0x80 PUSH1 0x40 MSTORE PUSH1 0x1 DUP1 SLOAD PUSH1 0x1 PUSH1 0x1 PUSH1 0xA0 SHL SUB NOT SWAP1 DUP2 AND PUSH20 0xBA2AE424D960C26247DD6C32EDC70B295C744C43 OR SWAP1 SWAP2 SSTORE PUSH1 0x2 DUP1 SLOAD SWAP1 SWAP2 AND PUSH20 0xBB4CDB9CBD36B01BD1CBAEBF2DE08D9173BC095C OR SWAP1 SSTORE PUSH15 0xC097CE7BC90715B34B9F1000000000 PUSH1 0xD SSTORE PUSH2 0xE10 PUSH1 0xE SSTORE PUSH8 0xDE0B6B3A7640000 PUSH1 0xF SSTORE CALLVALUE DUP1 ISZERO PUSH2 0x7D JUMPI PUSH1 0x0 DUP1 REVERT JUMPDEST POP PUSH1 0x40 MLOAD PUSH2 0x121C CODESIZE SUB DUP1 PUSH2 0x121C DUP4 CODECOPY DUP2 ADD PUSH1 0x40 DUP2 SWAP1 MSTORE PUSH2 0x9C SWAP2 PUSH2 0x121 JUMP JUMPDEST PUSH1 0x1 PUSH1 0x1 PUSH1 0xA0 SHL SUB DUP3 AND PUSH2 0xC4 JUMPI PUSH20 0x10ED43C718714EB63D5AA57B78B54704E256024E PUSH2 0xC6 JUMP JUMPDEST DUP2 JUMPDEST PUSH1 0x3 DUP1 SLOAD PUSH1 0x1 PUSH1 0x1 PUSH1 0xA0 SHL SUB SWAP3 DUP4 AND PUSH1 0x1 PUSH1 0x1 PUSH1 0xA0 SHL SUB NOT SWAP2 DUP3 AND OR SWAP1 SWAP2 SSTORE PUSH1 0x0 DUP1 SLOAD DUP3 AND CALLER OR SWAP1 SSTORE PUSH1 0x4 DUP1 SLOAD SWAP4 SWAP1 SWAP3 AND SWAP3 AND SWAP2 SWAP1 SWAP2 OR SWAP1 SSTORE POP PUSH2 0x153 JUMP JUMPDEST DUP1 MLOAD PUSH1 0x1 PUSH1 0x1 PUSH1 0xA0 SHL SUB DUP2 AND DUP2 EQ PUSH2 0x11C JUMPI PUSH1 0x0 DUP1 REVERT JUMPDEST SWAP2 SWAP1 POP JUMP JUMPDEST PUSH1 0x0 DUP1 PUSH1 0x40 DUP4 DUP6 SUB SLT ISZERO PUSH2 0x133 JUMPI DUP2 DUP3 REVERT JUMPDEST PUSH2 0x13C DUP4 PUSH2 0x105 JUMP JUMPDEST SWAP2 POP PUSH2 0x14A PUSH1 0x20 DUP5 ADD PUSH2 0x105 JUMP JUMPDEST SWAP1 POP SWAP3 POP SWAP3 SWAP1 POP JUMP JUMPDEST PUSH2 0x10BA DUP1 PUSH2 0x162 PUSH1 0x0 CODECOPY PUSH1 0x0 RETURN INVALID PUSH1 0x80 PUSH1 0x40 MSTORE PUSH1 0x4 CALLDATASIZE LT PUSH2 0xE8 JUMPI PUSH1 0x0 CALLDATALOAD PUSH1 0xE0 SHR DUP1 PUSH4 0x997664D7 GT PUSH2 0x8A JUMPI DUP1 PUSH4 0xEFCA2EED GT PUSH2 0x59 JUMPI DUP1 PUSH4 0xEFCA2EED EQ PUSH2 0x225 JUMPI DUP1 PUSH4 0xF0FC6BCA EQ PUSH2 0x23A JUMPI DUP1 PUSH4 0xFFB2C479 EQ PUSH2 0x24F JUMPI DUP1 PUSH4 0xFFD49C84 EQ PUSH2 0x26F JUMPI PUSH2 0xE8 JUMP JUMPDEST DUP1 PUSH4 0x997664D7 EQ PUSH2 0x1C4 JUMPI DUP1 PUSH4 0xCE7C2AC2 EQ PUSH2 0x1D9 JUMPI DUP1 PUSH4 0xD0E30DB0 EQ PUSH2 0x208 JUMPI DUP1 PUSH4 0xE2D2E219 EQ PUSH2 0x210 JUMPI PUSH2 0xE8 JUMP JUMPDEST DUP1 PUSH4 0x2D48E896 GT PUSH2 0xC6 JUMPI DUP1 PUSH4 0x2D48E896 EQ PUSH2 0x15A JUMPI DUP1 PUSH4 0x3A98EF39 EQ PUSH2 0x17A JUMPI DUP1 PUSH4 0x4FAB0AE8 EQ PUSH2 0x18F JUMPI DUP1 PUSH4 0x82723192 EQ PUSH2 0x1A4 JUMPI PUSH2 0xE8 JUMP JUMPDEST DUP1 PUSH4 0x11CE023D EQ PUSH2 0xED JUMPI DUP1 PUSH4 0x14B6CA96 EQ PUSH2 0x118 JUMPI DUP1 PUSH4 0x28FD3198 EQ PUSH2 0x13A JUMPI JUMPDEST PUSH1 0x0 DUP1 REVERT JUMPDEST CALLVALUE DUP1 ISZERO PUSH2 0xF9 JUMPI PUSH1 0x0 DUP1 REVERT JUMPDEST POP PUSH2 0x102 PUSH2 0x284 JUMP JUMPDEST PUSH1 0x40 MLOAD PUSH2 0x10F SWAP2 SWAP1 PUSH2 0xFC6 JUMP JUMPDEST PUSH1 0x40 MLOAD DUP1 SWAP2 SUB SWAP1 RETURN JUMPDEST CALLVALUE DUP1 ISZERO PUSH2 0x124 JUMPI PUSH1 0x0 DUP1 REVERT JUMPDEST POP PUSH2 0x138 PUSH2 0x133 CALLDATASIZE PUSH1 0x4 PUSH2 0xE96 JUMP JUMPDEST PUSH2 0x28A JUMP JUMPDEST STOP JUMPDEST CALLVALUE DUP1 ISZERO PUSH2 0x146 JUMPI PUSH1 0x0 DUP1 REVERT JUMPDEST POP PUSH2 0x102 PUSH2 0x155 CALLDATASIZE PUSH1 0x4 PUSH2 0xE7C JUMP JUMPDEST PUSH2 0x3AF JUMP JUMPDEST CALLVALUE DUP1 ISZERO PUSH2 0x166 JUMPI PUSH1 0x0 DUP1 REVERT JUMPDEST POP PUSH2 0x138 PUSH2 0x175 CALLDATASIZE PUSH1 0x4 PUSH2 0xF0F JUMP JUMPDEST PUSH2 0x43B JUMP JUMPDEST CALLVALUE DUP1 ISZERO PUSH2 0x186 JUMPI PUSH1 0x0 DUP1 REVERT JUMPDEST POP PUSH2 0x102 PUSH2 0x45D JUMP JUMPDEST CALLVALUE DUP1 ISZERO PUSH2 0x19B JUMPI PUSH1 0x0 DUP1 REVERT JUMPDEST POP PUSH2 0x102 PUSH2 0x463 JUMP JUMPDEST CALLVALUE DUP1 ISZERO PUSH2 0x1B0 JUMPI PUSH1 0x0 DUP1 REVERT JUMPDEST POP PUSH2 0x138 PUSH2 0x1BF CALLDATASIZE PUSH1 0x4 PUSH2 0xE96 JUMP JUMPDEST PUSH2 0x469 JUMP JUMPDEST CALLVALUE DUP1 ISZERO PUSH2 0x1D0 JUMPI PUSH1 0x0 DUP1 REVERT JUMPDEST POP PUSH2 0x102 PUSH2 0x509 JUMP JUMPDEST CALLVALUE DUP1 ISZERO PUSH2 0x1E5 JUMPI PUSH1 0x0 DUP1 REVERT JUMPDEST POP PUSH2 0x1F9 PUSH2 0x1F4 CALLDATASIZE PUSH1 0x4 PUSH2 0xE7C JUMP JUMPDEST PUSH2 0x50F JUMP JUMPDEST PUSH1 0x40 MLOAD PUSH2 0x10F SWAP4 SWAP3 SWAP2 SWAP1 PUSH2 0xFCF JUMP JUMPDEST PUSH2 0x138 PUSH2 0x530 JUMP JUMPDEST CALLVALUE DUP1 ISZERO PUSH2 0x21C JUMPI PUSH1 0x0 DUP1 REVERT JUMPDEST POP PUSH2 0x102 PUSH2 0x7A3 JUMP JUMPDEST CALLVALUE DUP1 ISZERO PUSH2 0x231 JUMPI PUSH1 0x0 DUP1 REVERT JUMPDEST POP PUSH2 0x102 PUSH2 0x7A9 JUMP JUMPDEST CALLVALUE DUP1 ISZERO PUSH2 0x246 JUMPI PUSH1 0x0 DUP1 REVERT JUMPDEST POP PUSH2 0x138 PUSH2 0x7AF JUMP JUMPDEST CALLVALUE DUP1 ISZERO PUSH2 0x25B JUMPI PUSH1 0x0 DUP1 REVERT JUMPDEST POP PUSH2 0x138 PUSH2 0x26A CALLDATASIZE PUSH1 0x4 PUSH2 0xEDF JUMP JUMPDEST PUSH2 0x7BA JUMP JUMPDEST CALLVALUE DUP1 ISZERO PUSH2 0x27B JUMPI PUSH1 0x0 DUP1 REVERT JUMPDEST POP PUSH2 0x102 PUSH2 0x8D9 JUMP JUMPDEST PUSH1 0xD SLOAD DUP2 JUMP JUMPDEST PUSH1 0x0 SLOAD PUSH1 0x1 PUSH1 0x1 PUSH1 0xA0 SHL SUB AND CALLER EQ PUSH2 0x2A1 JUMPI PUSH1 0x0 DUP1 REVERT JUMPDEST PUSH1 0x1 PUSH1 0x1 PUSH1 0xA0 SHL SUB DUP3 AND PUSH1 0x0 SWAP1 DUP2 MSTORE PUSH1 0x8 PUSH1 0x20 MSTORE PUSH1 0x40 SWAP1 KECCAK256 SLOAD ISZERO PUSH2 0x2C8 JUMPI PUSH2 0x2C8 DUP3 PUSH2 0x8DF JUMP JUMPDEST PUSH1 0x0 DUP2 GT DUP1 ISZERO PUSH2 0x2EE JUMPI POP PUSH1 0x1 PUSH1 0x1 PUSH1 0xA0 SHL SUB DUP3 AND PUSH1 0x0 SWAP1 DUP2 MSTORE PUSH1 0x8 PUSH1 0x20 MSTORE PUSH1 0x40 SWAP1 KECCAK256 SLOAD ISZERO JUMPDEST ISZERO PUSH2 0x301 JUMPI PUSH2 0x2FC DUP3 PUSH2 0xA0A JUMP JUMPDEST PUSH2 0x334 JUMP JUMPDEST DUP1 ISZERO DUP1 ISZERO PUSH2 0x326 JUMPI POP PUSH1 0x1 PUSH1 0x1 PUSH1 0xA0 SHL SUB DUP3 AND PUSH1 0x0 SWAP1 DUP2 MSTORE PUSH1 0x8 PUSH1 0x20 MSTORE PUSH1 0x40 SWAP1 KECCAK256 SLOAD ISZERO ISZERO JUMPDEST ISZERO PUSH2 0x334 JUMPI PUSH2 0x334 DUP3 PUSH2 0xA6B JUMP JUMPDEST PUSH1 0x1 PUSH1 0x1 PUSH1 0xA0 SHL SUB DUP3 AND PUSH1 0x0 SWAP1 DUP2 MSTORE PUSH1 0x8 PUSH1 0x20 MSTORE PUSH1 0x40 SWAP1 KECCAK256 SLOAD PUSH1 0x9 SLOAD PUSH2 0x365 SWAP2 DUP4 SWAP2 PUSH2 0x35F SWAP2 PUSH2 0xBB8 JUMP JUMPDEST SWAP1 PUSH2 0xBCB JUMP JUMPDEST PUSH1 0x9 SSTORE PUSH1 0x1 PUSH1 0x1 PUSH1 0xA0 SHL SUB DUP3 AND PUSH1 0x0 SWAP1 DUP2 MSTORE PUSH1 0x8 PUSH1 0x20 MSTORE PUSH1 0x40 SWAP1 KECCAK256 DUP2 SWAP1 SSTORE PUSH2 0x38C DUP2 PUSH2 0xBD7 JUMP JUMPDEST PUSH1 0x1 PUSH1 0x1 PUSH1 0xA0 SHL SUB SWAP1 SWAP3 AND PUSH1 0x0 SWAP1 DUP2 MSTORE PUSH1 0x8 PUSH1 0x20 MSTORE PUSH1 0x40 SWAP1 KECCAK256 PUSH1 0x1 ADD SWAP2 SWAP1 SWAP2 SSTORE POP JUMP JUMPDEST PUSH1 0x1 PUSH1 0x1 PUSH1 0xA0 SHL SUB DUP2 AND PUSH1 0x0 SWAP1 DUP2 MSTORE PUSH1 0x8 PUSH1 0x20 MSTORE PUSH1 0x40 DUP2 KECCAK256 SLOAD PUSH2 0x3D4 JUMPI POP PUSH1 0x0 PUSH2 0x436 JUMP JUMPDEST PUSH1 0x1 PUSH1 0x1 PUSH1 0xA0 SHL SUB DUP3 AND PUSH1 0x0 SWAP1 DUP2 MSTORE PUSH1 0x8 PUSH1 0x20 MSTORE PUSH1 0x40 DUP2 KECCAK256 SLOAD PUSH2 0x3F6 SWAP1 PUSH2 0xBD7 JUMP JUMPDEST PUSH1 0x1 PUSH1 0x1 PUSH1 0xA0 SHL SUB DUP5 AND PUSH1 0x0 SWAP1 DUP2 MSTORE PUSH1 0x8 PUSH1 0x20 MSTORE PUSH1 0x40 SWAP1 KECCAK256 PUSH1 0x1 ADD SLOAD SWAP1 SWAP2 POP DUP1 DUP3 GT PUSH2 0x427 JUMPI PUSH1 0x0 SWAP3 POP POP POP PUSH2 0x436 JUMP JUMPDEST PUSH2 0x431 DUP3 DUP3 PUSH2 0xBB8 JUMP JUMPDEST SWAP3 POP POP POP JUMPDEST SWAP2 SWAP1 POP JUMP JUMPDEST PUSH1 0x0 SLOAD PUSH1 0x1 PUSH1 0x1 PUSH1 0xA0 SHL SUB AND CALLER EQ PUSH2 0x452 JUMPI PUSH1 0x0 DUP1 REVERT JUMPDEST PUSH1 0xE SWAP2 SWAP1 SWAP2 SSTORE PUSH1 0xF SSTORE JUMP JUMPDEST PUSH1 0x9 SLOAD DUP2 JUMP JUMPDEST PUSH1 0xF SLOAD DUP2 JUMP JUMPDEST PUSH1 0x0 SLOAD PUSH1 0x1 PUSH1 0x1 PUSH1 0xA0 SHL SUB AND CALLER EQ PUSH2 0x480 JUMPI PUSH1 0x0 DUP1 REVERT JUMPDEST PUSH1 0x1 SLOAD PUSH1 0x40 MLOAD PUSH4 0xA9059CBB PUSH1 0xE0 SHL DUP2 MSTORE PUSH1 0x1 PUSH1 0x1 PUSH1 0xA0 SHL SUB SWAP1 SWAP2 AND SWAP1 PUSH4 0xA9059CBB SWAP1 PUSH2 0x4B2 SWAP1 DUP6 SWAP1 DUP6 SWAP1 PUSH1 0x4 ADD PUSH2 0xF44 JUMP JUMPDEST PUSH1 0x20 PUSH1 0x40 MLOAD DUP1 DUP4 SUB DUP2 PUSH1 0x0 DUP8 DUP1 EXTCODESIZE ISZERO DUP1 ISZERO PUSH2 0x4CC JUMPI PUSH1 0x0 DUP1 REVERT JUMPDEST POP GAS CALL ISZERO DUP1 ISZERO PUSH2 0x4E0 JUMPI RETURNDATASIZE PUSH1 0x0 DUP1 RETURNDATACOPY RETURNDATASIZE PUSH1 0x0 REVERT JUMPDEST POP POP POP POP PUSH1 0x40 MLOAD RETURNDATASIZE PUSH1 0x1F NOT PUSH1 0x1F DUP3 ADD AND DUP3 ADD DUP1 PUSH1 0x40 MSTORE POP DUP2 ADD SWAP1 PUSH2 0x504 SWAP2 SWAP1 PUSH2 0xEBF JUMP JUMPDEST POP POP POP JUMP JUMPDEST PUSH1 0xA SLOAD DUP2 JUMP JUMPDEST PUSH1 0x8 PUSH1 0x20 MSTORE PUSH1 0x0 SWAP1 DUP2 MSTORE PUSH1 0x40 SWAP1 KECCAK256 DUP1 SLOAD PUSH1 0x1 DUP3 ADD SLOAD PUSH1 0x2 SWAP1 SWAP3 ADD SLOAD SWAP1 SWAP2 SWAP1 DUP4 JUMP JUMPDEST PUSH1 0x0 SLOAD PUSH1 0x1 PUSH1 0x1 PUSH1 0xA0 SHL SUB AND CALLER EQ PUSH2 0x547 JUMPI PUSH1 0x0 DUP1 REVERT JUMPDEST PUSH1 0x1 SLOAD PUSH1 0x40 MLOAD PUSH4 0x70A08231 PUSH1 0xE0 SHL DUP2 MSTORE PUSH1 0x0 SWAP2 PUSH1 0x1 PUSH1 0x1 PUSH1 0xA0 SHL SUB AND SWAP1 PUSH4 0x70A08231 SWAP1 PUSH2 0x578 SWAP1 ADDRESS SWAP1 PUSH1 0x4 ADD PUSH2 0xF30 JUMP JUMPDEST PUSH1 0x20 PUSH1 0x40 MLOAD DUP1 DUP4 SUB DUP2 DUP7 DUP1 EXTCODESIZE ISZERO DUP1 ISZERO PUSH2 0x590 JUMPI PUSH1 0x0 DUP1 REVERT JUMPDEST POP GAS STATICCALL ISZERO DUP1 ISZERO PUSH2 0x5A4 JUMPI RETURNDATASIZE PUSH1 0x0 DUP1 RETURNDATACOPY RETURNDATASIZE PUSH1 0x0 REVERT JUMPDEST POP POP POP POP PUSH1 0x40 MLOAD RETURNDATASIZE PUSH1 0x1F NOT PUSH1 0x1F DUP3 ADD AND DUP3 ADD DUP1 PUSH1 0x40 MSTORE POP DUP2 ADD SWAP1 PUSH2 0x5C8 SWAP2 SWAP1 PUSH2 0xEF7 JUMP JUMPDEST PUSH1 0x40 DUP1 MLOAD PUSH1 0x2 DUP1 DUP3 MSTORE PUSH1 0x60 DUP3 ADD DUP4 MSTORE SWAP3 SWAP4 POP PUSH1 0x0 SWAP3 SWAP1 SWAP2 PUSH1 0x20 DUP4 ADD SWAP1 DUP1 CALLDATASIZE DUP4 CALLDATACOPY POP POP PUSH1 0x2 SLOAD DUP3 MLOAD SWAP3 SWAP4 POP PUSH1 0x1 PUSH1 0x1 PUSH1 0xA0 SHL SUB AND SWAP2 DUP4 SWAP2 POP PUSH1 0x0 SWAP1 PUSH2 0x61C JUMPI PUSH4 0x4E487B71 PUSH1 0xE0 SHL PUSH1 0x0 MSTORE PUSH1 0x32 PUSH1 0x4 MSTORE PUSH1 0x24 PUSH1 0x0 REVERT JUMPDEST PUSH1 0x1 PUSH1 0x1 PUSH1 0xA0 SHL SUB SWAP3 DUP4 AND PUSH1 0x20 SWAP2 DUP3 MUL SWAP3 SWAP1 SWAP3 ADD ADD MSTORE PUSH1 0x1 DUP1 SLOAD DUP4 MLOAD SWAP3 AND SWAP2 DUP4 SWAP2 SWAP1 DUP2 LT PUSH2 0x65A JUMPI PUSH4 0x4E487B71 PUSH1 0xE0 SHL PUSH1 0x0 MSTORE PUSH1 0x32 PUSH1 0x4 MSTORE PUSH1 0x24 PUSH1 0x0 REVERT JUMPDEST PUSH1 0x1 PUSH1 0x1 PUSH1 0xA0 SHL SUB SWAP3 DUP4 AND PUSH1 0x20 SWAP2 DUP3 MUL SWAP3 SWAP1 SWAP3 ADD ADD MSTORE PUSH1 0x3 SLOAD PUSH1 0x40 MLOAD PUSH4 0xB6F9DE95 PUSH1 0xE0 SHL DUP2 MSTORE SWAP2 AND SWAP1 PUSH4 0xB6F9DE95 SWAP1 CALLVALUE SWAP1 PUSH2 0x6A0 SWAP1 PUSH1 0x0 SWAP1 DUP7 SWAP1 ADDRESS SWAP1 TIMESTAMP SWAP1 PUSH1 0x4 ADD PUSH2 0xF5D JUMP JUMPDEST PUSH1 0x0 PUSH1 0x40 MLOAD DUP1 DUP4 SUB DUP2 DUP6 DUP9 DUP1 EXTCODESIZE ISZERO DUP1 ISZERO PUSH2 0x6B9 JUMPI PUSH1 0x0 DUP1 REVERT JUMPDEST POP GAS CALL ISZERO DUP1 ISZERO PUSH2 0x6CD JUMPI RETURNDATASIZE PUSH1 0x0 DUP1 RETURNDATACOPY RETURNDATASIZE PUSH1 0x0 REVERT JUMPDEST POP POP PUSH1 0x1 SLOAD PUSH1 0x40 MLOAD PUSH4 0x70A08231 PUSH1 0xE0 SHL DUP2 MSTORE PUSH1 0x0 SWAP5 POP PUSH2 0x761 SWAP4 POP DUP7 SWAP3 POP PUSH1 0x1 PUSH1 0x1 PUSH1 0xA0 SHL SUB SWAP1 SWAP2 AND SWAP1 PUSH4 0x70A08231 SWAP1 PUSH2 0x70B SWAP1 ADDRESS SWAP1 PUSH1 0x4 ADD PUSH2 0xF30 JUMP JUMPDEST PUSH1 0x20 PUSH1 0x40 MLOAD DUP1 DUP4 SUB DUP2 DUP7 DUP1 EXTCODESIZE ISZERO DUP1 ISZERO PUSH2 0x723 JUMPI PUSH1 0x0 DUP1 REVERT JUMPDEST POP GAS STATICCALL ISZERO DUP1 ISZERO PUSH2 0x737 JUMPI RETURNDATASIZE PUSH1 0x0 DUP1 RETURNDATACOPY RETURNDATASIZE PUSH1 0x0 REVERT JUMPDEST POP POP POP POP PUSH1 0x40 MLOAD RETURNDATASIZE PUSH1 0x1F NOT PUSH1 0x1F DUP3 ADD AND DUP3 ADD DUP1 PUSH1 0x40 MSTORE POP DUP2 ADD SWAP1 PUSH2 0x75B SWAP2 SWAP1 PUSH2 0xEF7 JUMP JUMPDEST SWAP1 PUSH2 0xBB8 JUMP JUMPDEST PUSH1 0xA SLOAD SWAP1 SWAP2 POP PUSH2 0x771 SWAP1 DUP3 PUSH2 0xBCB JUMP JUMPDEST PUSH1 0xA SSTORE PUSH1 0x9 SLOAD PUSH1 0xD SLOAD PUSH2 0x79B SWAP2 PUSH2 0x792 SWAP2 PUSH2 0x78C SWAP1 DUP6 PUSH2 0xBFA JUMP JUMPDEST SWAP1 PUSH2 0xC06 JUMP JUMPDEST PUSH1 0xC SLOAD SWAP1 PUSH2 0xBCB JUMP JUMPDEST PUSH1 0xC SSTORE POP POP POP JUMP JUMPDEST PUSH1 0xC SLOAD DUP2 JUMP JUMPDEST PUSH1 0xB SLOAD DUP2 JUMP JUMPDEST PUSH2 0x7B8 CALLER PUSH2 0x8DF JUMP JUMPDEST JUMP JUMPDEST PUSH1 0x0 SLOAD PUSH1 0x1 PUSH1 0x1 PUSH1 0xA0 SHL SUB AND CALLER EQ PUSH2 0x7D1 JUMPI PUSH1 0x0 DUP1 REVERT JUMPDEST PUSH1 0x5 SLOAD DUP1 PUSH2 0x7DF JUMPI POP PUSH2 0x8D6 JUMP JUMPDEST PUSH1 0x0 DUP1 GAS SWAP1 POP PUSH1 0x0 JUMPDEST DUP5 DUP4 LT DUP1 ISZERO PUSH2 0x7F6 JUMPI POP DUP4 DUP2 LT JUMPDEST ISZERO PUSH2 0x8D1 JUMPI DUP4 PUSH1 0x10 SLOAD LT PUSH2 0x80A JUMPI PUSH1 0x0 PUSH1 0x10 SSTORE JUMPDEST PUSH2 0x84A PUSH1 0x5 PUSH1 0x10 SLOAD DUP2 SLOAD DUP2 LT PUSH2 0x830 JUMPI PUSH4 0x4E487B71 PUSH1 0xE0 SHL PUSH1 0x0 MSTORE PUSH1 0x32 PUSH1 0x4 MSTORE PUSH1 0x24 PUSH1 0x0 REVERT JUMPDEST PUSH1 0x0 SWAP2 DUP3 MSTORE PUSH1 0x20 SWAP1 SWAP2 KECCAK256 ADD SLOAD PUSH1 0x1 PUSH1 0x1 PUSH1 0xA0 SHL SUB AND PUSH2 0xC12 JUMP JUMPDEST ISZERO PUSH2 0x88F JUMPI PUSH2 0x88F PUSH1 0x5 PUSH1 0x10 SLOAD DUP2 SLOAD DUP2 LT PUSH2 0x875 JUMPI PUSH4 0x4E487B71 PUSH1 0xE0 SHL PUSH1 0x0 MSTORE PUSH1 0x32 PUSH1 0x4 MSTORE PUSH1 0x24 PUSH1 0x0 REVERT JUMPDEST PUSH1 0x0 SWAP2 DUP3 MSTORE PUSH1 0x20 SWAP1 SWAP2 KECCAK256 ADD SLOAD PUSH1 0x1 PUSH1 0x1 PUSH1 0xA0 SHL SUB AND PUSH2 0x8DF JUMP JUMPDEST PUSH2 0x8A4 PUSH2 0x89D GAS DUP5 SWAP1 PUSH2 0xBB8 JUMP JUMPDEST DUP5 SWAP1 PUSH2 0xBCB JUMP JUMPDEST SWAP3 POP GAS PUSH1 0x10 DUP1 SLOAD SWAP2 SWAP4 POP PUSH1 0x0 PUSH2 0x8B9 DUP4 PUSH2 0x1053 JUMP JUMPDEST SWAP2 SWAP1 POP SSTORE POP DUP1 DUP1 PUSH2 0x8C9 SWAP1 PUSH2 0x1053 JUMP JUMPDEST SWAP2 POP POP PUSH2 0x7E8 JUMP JUMPDEST POP POP POP POP JUMPDEST POP JUMP JUMPDEST PUSH1 0xE SLOAD DUP2 JUMP JUMPDEST PUSH1 0x1 PUSH1 0x1 PUSH1 0xA0 SHL SUB DUP2 AND PUSH1 0x0 SWAP1 DUP2 MSTORE PUSH1 0x8 PUSH1 0x20 MSTORE PUSH1 0x40 SWAP1 KECCAK256 SLOAD PUSH2 0x901 JUMPI PUSH2 0x8D6 JUMP JUMPDEST PUSH1 0x0 PUSH2 0x90C DUP3 PUSH2 0x3AF JUMP JUMPDEST SWAP1 POP DUP1 ISZERO PUSH2 0xA06 JUMPI PUSH1 0xB SLOAD PUSH2 0x921 SWAP1 DUP3 PUSH2 0xBCB JUMP JUMPDEST PUSH1 0xB SSTORE PUSH1 0x1 SLOAD PUSH1 0x40 MLOAD PUSH4 0xA9059CBB PUSH1 0xE0 SHL DUP2 MSTORE PUSH1 0x1 PUSH1 0x1 PUSH1 0xA0 SHL SUB SWAP1 SWAP2 AND SWAP1 PUSH4 0xA9059CBB SWAP1 PUSH2 0x956 SWAP1 DUP6 SWAP1 DUP6 SWAP1 PUSH1 0x4 ADD PUSH2 0xF44 JUMP JUMPDEST PUSH1 0x20 PUSH1 0x40 MLOAD DUP1 DUP4 SUB DUP2 PUSH1 0x0 DUP8 DUP1 EXTCODESIZE ISZERO DUP1 ISZERO PUSH2 0x970 JUMPI PUSH1 0x0 DUP1 REVERT JUMPDEST POP GAS CALL ISZERO DUP1 ISZERO PUSH2 0x984 JUMPI RETURNDATASIZE PUSH1 0x0 DUP1 RETURNDATACOPY RETURNDATASIZE PUSH1 0x0 REVERT JUMPDEST POP POP POP POP PUSH1 0x40 MLOAD RETURNDATASIZE PUSH1 0x1F NOT PUSH1 0x1F DUP3 ADD AND DUP3 ADD DUP1 PUSH1 0x40 MSTORE POP DUP2 ADD SWAP1 PUSH2 0x9A8 SWAP2 SWAP1 PUSH2 0xEBF JUMP JUMPDEST POP PUSH1 0x1 PUSH1 0x1 PUSH1 0xA0 SHL SUB DUP3 AND PUSH1 0x0 SWAP1 DUP2 MSTORE PUSH1 0x7 PUSH1 0x20 SWAP1 DUP2 MSTORE PUSH1 0x40 DUP1 DUP4 KECCAK256 TIMESTAMP SWAP1 SSTORE PUSH1 0x8 SWAP1 SWAP2 MSTORE SWAP1 KECCAK256 PUSH1 0x2 ADD SLOAD PUSH2 0x9DC SWAP1 DUP3 PUSH2 0xBCB JUMP JUMPDEST PUSH1 0x1 PUSH1 0x1 PUSH1 0xA0 SHL SUB DUP4 AND PUSH1 0x0 SWAP1 DUP2 MSTORE PUSH1 0x8 PUSH1 0x20 MSTORE PUSH1 0x40 SWAP1 KECCAK256 PUSH1 0x2 DUP2 ADD SWAP2 SWAP1 SWAP2 SSTORE SLOAD PUSH2 0x38C SWAP1 PUSH2 0xBD7 JUMP JUMPDEST POP POP JUMP JUMPDEST PUSH1 0x5 DUP1 SLOAD PUSH1 0x1 PUSH1 0x1 PUSH1 0xA0 SHL SUB SWAP1 SWAP3 AND PUSH1 0x0 DUP2 DUP2 MSTORE PUSH1 0x6 PUSH1 0x20 MSTORE PUSH1 0x40 DUP2 KECCAK256 DUP5 SWAP1 SSTORE PUSH1 0x1 DUP5 ADD DUP4 SSTORE SWAP2 SWAP1 SWAP2 MSTORE PUSH32 0x36B6384B5ECA791C62761152D0C79BB0604C104A5FB6F4EB0703F3154BB3DB0 SWAP1 SWAP2 ADD DUP1 SLOAD PUSH1 0x1 PUSH1 0x1 PUSH1 0xA0 SHL SUB NOT AND SWAP1 SWAP2 OR SWAP1 SSTORE JUMP JUMPDEST PUSH1 0x5 DUP1 SLOAD PUSH2 0xA7B SWAP1 PUSH1 0x1 SWAP1 PUSH2 0x103C JUMP JUMPDEST DUP2 SLOAD DUP2 LT PUSH2 0xA99 JUMPI PUSH4 0x4E487B71 PUSH1 0xE0 SHL PUSH1 0x0 MSTORE PUSH1 0x32 PUSH1 0x4 MSTORE PUSH1 0x24 PUSH1 0x0 REVERT JUMPDEST PUSH1 0x0 SWAP2 DUP3 MSTORE PUSH1 0x20 DUP1 DUP4 KECCAK256 SWAP1 SWAP2 ADD SLOAD PUSH1 0x1 PUSH1 0x1 PUSH1 0xA0 SHL SUB DUP5 DUP2 AND DUP5 MSTORE PUSH1 0x6 SWAP1 SWAP3 MSTORE PUSH1 0x40 SWAP1 SWAP3 KECCAK256 SLOAD PUSH1 0x5 DUP1 SLOAD SWAP3 SWAP1 SWAP4 AND SWAP3 SWAP2 DUP2 LT PUSH2 0xAE5 JUMPI PUSH4 0x4E487B71 PUSH1 0xE0 SHL PUSH1 0x0 MSTORE PUSH1 0x32 PUSH1 0x4 MSTORE PUSH1 0x24 PUSH1 0x0 REVERT JUMPDEST PUSH1 0x0 SWAP2 DUP3 MSTORE PUSH1 0x20 DUP1 DUP4 KECCAK256 SWAP2 SWAP1 SWAP2 ADD DUP1 SLOAD PUSH1 0x1 PUSH1 0x1 PUSH1 0xA0 SHL SUB NOT AND PUSH1 0x1 PUSH1 0x1 PUSH1 0xA0 SHL SUB SWAP5 DUP6 AND OR SWAP1 SSTORE SWAP2 DUP4 AND DUP2 MSTORE PUSH1 0x6 SWAP2 DUP3 SWAP1 MSTORE PUSH1 0x40 DUP2 KECCAK256 SLOAD PUSH1 0x5 DUP1 SLOAD SWAP2 SWAP4 SWAP3 SWAP2 PUSH2 0xB31 SWAP1 PUSH1 0x1 SWAP1 PUSH2 0x103C JUMP JUMPDEST DUP2 SLOAD DUP2 LT PUSH2 0xB4F JUMPI PUSH4 0x4E487B71 PUSH1 0xE0 SHL PUSH1 0x0 MSTORE PUSH1 0x32 PUSH1 0x4 MSTORE PUSH1 0x24 PUSH1 0x0 REVERT JUMPDEST PUSH1 0x0 SWAP2 DUP3 MSTORE PUSH1 0x20 DUP1 DUP4 KECCAK256 SWAP1 SWAP2 ADD SLOAD PUSH1 0x1 PUSH1 0x1 PUSH1 0xA0 SHL SUB AND DUP4 MSTORE DUP3 ADD SWAP3 SWAP1 SWAP3 MSTORE PUSH1 0x40 ADD SWAP1 KECCAK256 SSTORE PUSH1 0x5 DUP1 SLOAD DUP1 PUSH2 0xB93 JUMPI PUSH4 0x4E487B71 PUSH1 0xE0 SHL PUSH1 0x0 MSTORE PUSH1 0x31 PUSH1 0x4 MSTORE PUSH1 0x24 PUSH1 0x0 REVERT JUMPDEST PUSH1 0x0 DUP3 DUP2 MSTORE PUSH1 0x20 SWAP1 KECCAK256 DUP2 ADD PUSH1 0x0 NOT SWAP1 DUP2 ADD DUP1 SLOAD PUSH1 0x1 PUSH1 0x1 PUSH1 0xA0 SHL SUB NOT AND SWAP1 SSTORE ADD SWAP1 SSTORE POP JUMP JUMPDEST PUSH1 0x0 PUSH2 0xBC4 DUP3 DUP5 PUSH2 0x103C JUMP JUMPDEST SWAP4 SWAP3 POP POP POP JUMP JUMPDEST PUSH1 0x0 PUSH2 0xBC4 DUP3 DUP5 PUSH2 0xFE5 JUMP JUMPDEST PUSH1 0x0 PUSH2 0xBF4 PUSH1 0xD SLOAD PUSH2 0x78C PUSH1 0xC SLOAD DUP6 PUSH2 0xBFA SWAP1 SWAP2 SWAP1 PUSH4 0xFFFFFFFF AND JUMP JUMPDEST SWAP3 SWAP2 POP POP JUMP JUMPDEST PUSH1 0x0 PUSH2 0xBC4 DUP3 DUP5 PUSH2 0x101D JUMP JUMPDEST PUSH1 0x0 PUSH2 0xBC4 DUP3 DUP5 PUSH2 0xFFD JUMP JUMPDEST PUSH1 0xE SLOAD PUSH1 0x1 PUSH1 0x1 PUSH1 0xA0 SHL SUB DUP3 AND PUSH1 0x0 SWAP1 DUP2 MSTORE PUSH1 0x7 PUSH1 0x20 MSTORE PUSH1 0x40 DUP2 KECCAK256 SLOAD SWAP1 SWAP2 TIMESTAMP SWAP2 PUSH2 0xC3C SWAP2 SWAP1 PUSH2 0xFE5 JUMP JUMPDEST LT DUP1 ISZERO PUSH2 0xC52 JUMPI POP PUSH1 0xF SLOAD PUSH2 0xC50 DUP4 PUSH2 0x3AF JUMP JUMPDEST GT JUMPDEST DUP1 ISZERO PUSH2 0xBF4 JUMPI POP PUSH1 0x4 DUP1 SLOAD PUSH1 0x40 DUP1 MLOAD PUSH4 0x2846B951 PUSH1 0xE0 SHL DUP2 MSTORE SWAP1 MLOAD PUSH1 0x1 PUSH1 0x1 PUSH1 0xA0 SHL SUB SWAP1 SWAP3 AND SWAP3 PUSH4 0x2846B951 SWAP3 DUP3 DUP3 ADD SWAP3 PUSH1 0x20 SWAP3 SWAP1 DUP3 SWAP1 SUB ADD DUP2 DUP7 DUP1 EXTCODESIZE ISZERO DUP1 ISZERO PUSH2 0xC9B JUMPI PUSH1 0x0 DUP1 REVERT JUMPDEST POP GAS STATICCALL ISZERO DUP1 ISZERO PUSH2 0xCAF JUMPI RETURNDATASIZE PUSH1 0x0 DUP1 RETURNDATACOPY RETURNDATASIZE PUSH1 0x0 REVERT JUMPDEST POP POP POP POP PUSH1 0x40 MLOAD RETURNDATASIZE PUSH1 0x1F NOT PUSH1 0x1F DUP3 ADD AND DUP3 ADD DUP1 PUSH1 0x40 MSTORE POP DUP2 ADD SWAP1 PUSH2 0xCD3 SWAP2 SWAP1 PUSH2 0xEBF JUMP JUMPDEST ISZERO DUP1 PUSH2 0xBF4 JUMPI POP PUSH1 0x4 DUP1 SLOAD PUSH1 0x40 DUP1 MLOAD PUSH4 0x2846B951 PUSH1 0xE0 SHL DUP2 MSTORE SWAP1 MLOAD PUSH1 0x1 PUSH1 0x1 PUSH1 0xA0 SHL SUB SWAP1 SWAP3 AND SWAP3 PUSH4 0x2846B951 SWAP3 DUP3 DUP3 ADD SWAP3 PUSH1 0x20 SWAP3 SWAP1 DUP3 SWAP1 SUB ADD DUP2 DUP7 DUP1 EXTCODESIZE ISZERO DUP1 ISZERO PUSH2 0xD1C JUMPI PUSH1 0x0 DUP1 REVERT JUMPDEST POP GAS STATICCALL ISZERO DUP1 ISZERO PUSH2 0xD30 JUMPI RETURNDATASIZE PUSH1 0x0 DUP1 RETURNDATACOPY RETURNDATASIZE PUSH1 0x0 REVERT JUMPDEST POP POP POP POP PUSH1 0x40 MLOAD RETURNDATASIZE PUSH1 0x1F NOT PUSH1 0x1F DUP3 ADD AND DUP3 ADD DUP1 PUSH1 0x40 MSTORE POP DUP2 ADD SWAP1 PUSH2 0xD54 SWAP2 SWAP1 PUSH2 0xEBF JUMP JUMPDEST DUP1 ISZERO PUSH2 0xBF4 JUMPI POP PUSH1 0x4 DUP1 SLOAD PUSH1 0x40 DUP1 MLOAD PUSH4 0x23C53EE3 PUSH1 0xE2 SHL DUP2 MSTORE SWAP1 MLOAD PUSH1 0x1 PUSH1 0x1 PUSH1 0xA0 SHL SUB SWAP1 SWAP3 AND SWAP3 PUSH4 0x8F14FB8C SWAP3 DUP3 DUP3 ADD SWAP3 PUSH1 0x20 SWAP3 SWAP1 DUP3 SWAP1 SUB ADD DUP2 DUP7 DUP1 EXTCODESIZE ISZERO DUP1 ISZERO PUSH2 0xD9D JUMPI PUSH1 0x0 DUP1 REVERT JUMPDEST POP GAS STATICCALL ISZERO DUP1 ISZERO PUSH2 0xDB1 JUMPI RETURNDATASIZE PUSH1 0x0 DUP1 RETURNDATACOPY RETURNDATASIZE PUSH1 0x0 REVERT JUMPDEST POP POP POP POP PUSH1 0x40 MLOAD RETURNDATASIZE PUSH1 0x1F NOT PUSH1 0x1F DUP3 ADD AND DUP3 ADD DUP1 PUSH1 0x40 MSTORE POP DUP2 ADD SWAP1 PUSH2 0xDD5 SWAP2 SWAP1 PUSH2 0xEF7 JUMP JUMPDEST PUSH1 0x4 DUP1 SLOAD PUSH1 0x40 MLOAD PUSH4 0x30355BA9 PUSH1 0xE1 SHL DUP2 MSTORE PUSH1 0x1 PUSH1 0x1 PUSH1 0xA0 SHL SUB SWAP1 SWAP2 AND SWAP2 PUSH4 0x606AB752 SWAP2 PUSH2 0xE04 SWAP2 DUP8 SWAP2 ADD PUSH2 0xF30 JUMP JUMPDEST PUSH1 0x20 PUSH1 0x40 MLOAD DUP1 DUP4 SUB DUP2 DUP7 DUP1 EXTCODESIZE ISZERO DUP1 ISZERO PUSH2 0xE1C JUMPI PUSH1 0x0 DUP1 REVERT JUMPDEST POP GAS STATICCALL ISZERO DUP1 ISZERO PUSH2 0xE30 JUMPI RETURNDATASIZE PUSH1 0x0 DUP1 RETURNDATACOPY RETURNDATASIZE PUSH1 0x0 REVERT JUMPDEST POP POP POP POP PUSH1 0x40 MLOAD RETURNDATASIZE PUSH1 0x1F NOT PUSH1 0x1F DUP3 ADD AND DUP3 ADD DUP1 PUSH1 0x40 MSTORE POP DUP2 ADD SWAP1 PUSH2 0xE54 SWAP2 SWAP1 PUSH2 0xEF7 JUMP JUMPDEST PUSH2 0xE5E SWAP1 TIMESTAMP PUSH2 0x103C JUMP JUMPDEST LT SWAP3 SWAP2 POP POP JUMP JUMPDEST DUP1 CALLDATALOAD PUSH1 0x1 PUSH1 0x1 PUSH1 0xA0 SHL SUB DUP2 AND DUP2 EQ PUSH2 0x436 JUMPI PUSH1 0x0 DUP1 REVERT JUMPDEST PUSH1 0x0 PUSH1 0x20 DUP3 DUP5 SUB SLT ISZERO PUSH2 0xE8D JUMPI DUP1 DUP2 REVERT JUMPDEST PUSH2 0xBC4 DUP3 PUSH2 0xE65 JUMP JUMPDEST PUSH1 0x0 DUP1 PUSH1 0x40 DUP4 DUP6 SUB SLT ISZERO PUSH2 0xEA8 JUMPI DUP1 DUP2 REVERT JUMPDEST PUSH2 0xEB1 DUP4 PUSH2 0xE65 JUMP JUMPDEST SWAP5 PUSH1 0x20 SWAP4 SWAP1 SWAP4 ADD CALLDATALOAD SWAP4 POP POP POP JUMP JUMPDEST PUSH1 0x0 PUSH1 0x20 DUP3 DUP5 SUB SLT ISZERO PUSH2 0xED0 JUMPI DUP1 DUP2 REVERT JUMPDEST DUP2 MLOAD DUP1 ISZERO ISZERO DUP2 EQ PUSH2 0xBC4 JUMPI DUP2 DUP3 REVERT JUMPDEST PUSH1 0x0 PUSH1 0x20 DUP3 DUP5 SUB SLT ISZERO PUSH2 0xEF0 JUMPI DUP1 DUP2 REVERT JUMPDEST POP CALLDATALOAD SWAP2 SWAP1 POP JUMP JUMPDEST PUSH1 0x0 PUSH1 0x20 DUP3 DUP5 SUB SLT ISZERO PUSH2 0xF08 JUMPI DUP1 DUP2 REVERT JUMPDEST POP MLOAD SWAP2 SWAP1 POP JUMP JUMPDEST PUSH1 0x0 DUP1 PUSH1 0x40 DUP4 DUP6 SUB SLT ISZERO PUSH2 0xF21 JUMPI DUP2 DUP3 REVERT JUMPDEST POP POP DUP1 CALLDATALOAD SWAP3 PUSH1 0x20 SWAP1 SWAP2 ADD CALLDATALOAD SWAP2 POP JUMP JUMPDEST PUSH1 0x1 PUSH1 0x1 PUSH1 0xA0 SHL SUB SWAP2 SWAP1 SWAP2 AND DUP2 MSTORE PUSH1 0x20 ADD SWAP1 JUMP JUMPDEST PUSH1 0x1 PUSH1 0x1 PUSH1 0xA0 SHL SUB SWAP3 SWAP1 SWAP3 AND DUP3 MSTORE PUSH1 0x20 DUP3 ADD MSTORE PUSH1 0x40 ADD SWAP1 JUMP JUMPDEST PUSH1 0x0 PUSH1 0x80 DUP3 ADD DUP7 DUP4 MSTORE PUSH1 0x20 PUSH1 0x80 DUP2 DUP6 ADD MSTORE DUP2 DUP8 MLOAD DUP1 DUP5 MSTORE PUSH1 0xA0 DUP7 ADD SWAP2 POP DUP3 DUP10 ADD SWAP4 POP DUP5 JUMPDEST DUP2 DUP2 LT ISZERO PUSH2 0xFA6 JUMPI DUP5 MLOAD PUSH1 0x1 PUSH1 0x1 PUSH1 0xA0 SHL SUB AND DUP4 MSTORE SWAP4 DUP4 ADD SWAP4 SWAP2 DUP4 ADD SWAP2 PUSH1 0x1 ADD PUSH2 0xF81 JUMP JUMPDEST POP POP PUSH1 0x1 PUSH1 0x1 PUSH1 0xA0 SHL SUB SWAP7 SWAP1 SWAP7 AND PUSH1 0x40 DUP6 ADD MSTORE POP POP POP PUSH1 0x60 ADD MSTORE SWAP3 SWAP2 POP POP JUMP JUMPDEST SWAP1 DUP2 MSTORE PUSH1 0x20 ADD SWAP1 JUMP JUMPDEST SWAP3 DUP4 MSTORE PUSH1 0x20 DUP4 ADD SWAP2 SWAP1 SWAP2 MSTORE PUSH1 0x40 DUP3 ADD MSTORE PUSH1 0x60 ADD SWAP1 JUMP JUMPDEST PUSH1 0x0 DUP3 NOT DUP3 GT ISZERO PUSH2 0xFF8 JUMPI PUSH2 0xFF8 PUSH2 0x106E JUMP JUMPDEST POP ADD SWAP1 JUMP JUMPDEST PUSH1 0x0 DUP3 PUSH2 0x1018 JUMPI PUSH4 0x4E487B71 PUSH1 0xE0 SHL DUP2 MSTORE PUSH1 0x12 PUSH1 0x4 MSTORE PUSH1 0x24 DUP2 REVERT JUMPDEST POP DIV SWAP1 JUMP JUMPDEST PUSH1 0x0 DUP2 PUSH1 0x0 NOT DIV DUP4 GT DUP3 ISZERO ISZERO AND ISZERO PUSH2 0x1037 JUMPI PUSH2 0x1037 PUSH2 0x106E JUMP JUMPDEST POP MUL SWAP1 JUMP JUMPDEST PUSH1 0x0 DUP3 DUP3 LT ISZERO PUSH2 0x104E JUMPI PUSH2 0x104E PUSH2 0x106E JUMP JUMPDEST POP SUB SWAP1 JUMP JUMPDEST PUSH1 0x0 PUSH1 0x0 NOT DUP3 EQ ISZERO PUSH2 0x1067 JUMPI PUSH2 0x1067 PUSH2 0x106E JUMP JUMPDEST POP PUSH1 0x1 ADD SWAP1 JUMP JUMPDEST PUSH4 0x4E487B71 PUSH1 0xE0 SHL PUSH1 0x0 MSTORE PUSH1 0x11 PUSH1 0x4 MSTORE PUSH1 0x24 PUSH1 0x0 REVERT INVALID LOG2 PUSH5 0x6970667358 0x22 SLT KECCAK256 RETURNDATACOPY 0xD4 DUP12 CALLCODE ISZERO 0xDC 0xC8 PUSH18 0x2FC5D14BDDEFD66CC6BEE9A3BA7C2EB7AE3A EXP 0xB9 DUP8 PUSH1 0xD6 PUSH6 0x64736F6C6343 STOP ADDMOD STOP STOP CALLER "
		},
		"gasEstimates": {
			"creation": {
				"codeDepositCost": "2815000",
				"executionCost": "infinite",
				"totalCost": "infinite"
			},
			"external": {
				"MASK()": "361",
				"WBNB()": "1139",
				"_maxTxAmount()": "1139",
				"activateMyWalletToReceiveReflections()": "21264",
				"adjustPrevBlockMaxPricePerUnit(uint256)": "21258",
				"allowance(address,address)": "infinite",
				"approve(address,uint256)": "22523",
				"approveMax(address)": "23410",
				"authorize(address)": "22251",
				"autoBuybackEnabled()": "1175",
				"autoLiquidityReceiver()": "1225",
				"balanceOf(address)": "1420",
				"clearBuybackMultiplier()": "6198",
				"decimals()": "353",
				"disableRugProof()": "21909",
				"distributorAddress()": "1226",
				"enableDisableActivewalletReflections(bool)": "22140",
				"enableRugProof()": "69525",
				"excludeFromRugProofAlgo(address)": "22151",
				"excludeFromSpamWallot(address)": "22201",
				"getAddresses()": "infinite",
				"getBTimestamp()": "317",
				"getBuyerHoldingPeriod(address)": "3196",
				"getCirculatingSupply()": "infinite",
				"getCurrentBlockInterval()": "2330",
				"getCurrentBlockStartEpoch()": "1140",
				"getEnableRugProof()": "1174",
				"getLastActive(address)": "1354",
				"getLiquidityBacking(uint256)": "infinite",
				"getMinActivePeriod()": "1119",
				"getMultipliedFee()": "infinite",
				"getOwner()": "1225",
				"getPrevBlockMaxPricePerUnit()": "1118",
				"getTotalFee(bool)": "infinite",
				"includeInRugProofAlgo(address)": "22166",
				"includeInSpamWallot(address)": "22253",
				"isActiveWalletReflectionsOnly()": "1141",
				"isAuthorized(address)": "1430",
				"isOverLiquified(uint256,uint256)": "infinite",
				"isOwner(address)": "1310",
				"launch()": "41980",
				"launchedAt()": "1117",
				"launchedAtTimestamp()": "1161",
				"marketingFeeReceiver()": "1225",
				"migrateBnb(address,uint256)": "infinite",
				"migrateWBnb(address,uint256)": "infinite",
				"name()": "infinite",
				"pair()": "1138",
				"router()": "1202",
				"setAutoBuybackSettings(bool,uint256,uint256,uint256)": "107260",
				"setBlockInterval(uint256,uint256)": "21329",
				"setBuybackMultiplierSettings(uint256,uint256,uint256)": "61470",
				"setCurrentPrice(uint256)": "21172",
				"setDistributionCriteria(uint256,uint256)": "infinite",
				"setDistributorGasLimitCheck(bool)": "22107",
				"setDistributorSettings(uint256)": "22087",
				"setDynamicPrice(bool)": "22151",
				"setEnableKey(uint256)": "21260",
				"setFeeReceivers(address,address)": "infinite",
				"setFees(uint256,uint256,uint256,uint256,uint256)": "infinite",
				"setIsDividendExempt(address,bool)": "infinite",
				"setIsFeeExempt(address,bool)": "infinite",
				"setIsTxLimitExempt(address,bool)": "infinite",
				"setLiquidityAvail(bool)": "22092",
				"setMinActivePeriod(uint256)": "infinite",
				"setProcessReward(bool)": "22173",
				"setSwapBackSettings(bool,uint256)": "42175",
				"setTargetLiquidity(uint256,uint256)": "41308",
				"setTxLimit(uint256)": "22117",
				"swapEnabled()": "1174",
				"swapThreshold()": "1120",
				"symbol()": "infinite",
				"totalSupply()": "1185",
				"transfer(address,uint256)": "infinite",
				"transferFrom(address,address,uint256)": "infinite",
				"transferOwnership(address)": "44161",
				"transferRewards(address,uint256)": "infinite",
				"triggerZeusBuyback(uint256,bool)": "infinite",
				"unauthorize(address)": "22144"
			},
			"internal": {
				"_basicTransfer(address,address,uint256)": "infinite",
				"_transferFrom(address,address,uint256)": "infinite",
				"applyDogeSpaceXRugProofAlgo(address,address)": "infinite",
				"buyTokens(uint256,address)": "infinite",
				"checkTxLimit(address,uint256)": "infinite",
				"getAmountsout(uint256,address,address)": "infinite",
				"launched()": "infinite",
				"populateBlockInterval()": "infinite",
				"shouldAutoBuyback()": "5055",
				"shouldSwapBack()": "4221",
				"shouldTakeFee(address)": "914",
				"swapBack()": "infinite",
				"takeFee(address,address,uint256)": "infinite",
				"triggerAutoBuyback()": "infinite"
			}
		},
		"methodIdentifiers": {
			"MASK()": "e91f214e",
			"WBNB()": "8dd95002",
			"_maxTxAmount()": "7d1db4a5",
			"activateMyWalletToReceiveReflections()": "db882e04",
			"adjustPrevBlockMaxPricePerUnit(uint256)": "f378696a",
			"allowance(address,address)": "dd62ed3e",
			"approve(address,uint256)": "095ea7b3",
			"approveMax(address)": "571ac8b0",
			"authorize(address)": "b6a5d7de",
			"autoBuybackEnabled()": "3bb8a8d4",
			"autoLiquidityReceiver()": "ca33e64c",
			"balanceOf(address)": "70a08231",
			"clearBuybackMultiplier()": "b210b06d",
			"decimals()": "313ce567",
			"disableRugProof()": "d12f24ef",
			"distributorAddress()": "a51af4c5",
			"enableDisableActivewalletReflections(bool)": "725ddf4a",
			"enableRugProof()": "f31079fb",
			"excludeFromRugProofAlgo(address)": "4247c00e",
			"excludeFromSpamWallot(address)": "b83f9599",
			"getAddresses()": "a39fac12",
			"getBTimestamp()": "d3cd253c",
			"getBuyerHoldingPeriod(address)": "2b0ea03d",
			"getCirculatingSupply()": "2b112e49",
			"getCurrentBlockInterval()": "29d7150c",
			"getCurrentBlockStartEpoch()": "4be1b5e4",
			"getEnableRugProof()": "4ed0b76d",
			"getLastActive(address)": "606ab752",
			"getLiquidityBacking(uint256)": "d51ed1c8",
			"getMinActivePeriod()": "8f14fb8c",
			"getMultipliedFee()": "d806d12f",
			"getOwner()": "893d20e8",
			"getPrevBlockMaxPricePerUnit()": "a2056e94",
			"getTotalFee(bool)": "f1f3bca3",
			"includeInRugProofAlgo(address)": "7434c1e0",
			"includeInSpamWallot(address)": "8fe42f46",
			"isActiveWalletReflectionsOnly()": "2846b951",
			"isAuthorized(address)": "fe9fbb80",
			"isOverLiquified(uint256,uint256)": "1161ae39",
			"isOwner(address)": "2f54bf6e",
			"launch()": "01339c21",
			"launchedAt()": "bf56b371",
			"launchedAtTimestamp()": "c6d2577d",
			"marketingFeeReceiver()": "e96fada2",
			"migrateBnb(address,uint256)": "c0f71b80",
			"migrateWBnb(address,uint256)": "25449ac4",
			"name()": "06fdde03",
			"pair()": "a8aa1b31",
			"router()": "f887ea40",
			"setAutoBuybackSettings(bool,uint256,uint256,uint256)": "048c7baf",
			"setBlockInterval(uint256,uint256)": "b3949821",
			"setBuybackMultiplierSettings(uint256,uint256,uint256)": "2375ce40",
			"setCurrentPrice(uint256)": "18b20071",
			"setDistributionCriteria(uint256,uint256)": "2d48e896",
			"setDistributorGasLimitCheck(bool)": "1bbcce44",
			"setDistributorSettings(uint256)": "9d1944f5",
			"setDynamicPrice(bool)": "16def05e",
			"setEnableKey(uint256)": "989f06d7",
			"setFeeReceivers(address,address)": "a4b45c00",
			"setFees(uint256,uint256,uint256,uint256,uint256)": "04a66b48",
			"setIsDividendExempt(address,bool)": "f708a64f",
			"setIsFeeExempt(address,bool)": "658d4b7f",
			"setIsTxLimitExempt(address,bool)": "f84ba65d",
			"setLiquidityAvail(bool)": "45aecf05",
			"setMinActivePeriod(uint256)": "e74ef52e",
			"setProcessReward(bool)": "40f0a14a",
			"setSwapBackSettings(bool,uint256)": "df20fd49",
			"setTargetLiquidity(uint256,uint256)": "201e7991",
			"setTxLimit(uint256)": "5c85974f",
			"swapEnabled()": "6ddd1713",
			"swapThreshold()": "0445b667",
			"symbol()": "95d89b41",
			"totalSupply()": "18160ddd",
			"transfer(address,uint256)": "a9059cbb",
			"transferFrom(address,address,uint256)": "23b872dd",
			"transferOwnership(address)": "f2fde38b",
			"transferRewards(address,uint256)": "82723192",
			"triggerZeusBuyback(uint256,bool)": "f5cfec0a",
			"unauthorize(address)": "f0b37c04"
		}
	},
	"abi": [
		{
			"inputs": [
				{
					"internalType": "address",
					"name": "_dexRouter",
					"type": "address"
				}
			],
			"stateMutability": "nonpayable",
			"type": "constructor"
		},
		{
			"anonymous": false,
			"inputs": [
				{
					"indexed": true,
					"internalType": "address",
					"name": "owner",
					"type": "address"
				},
				{
					"indexed": true,
					"internalType": "address",
					"name": "spender",
					"type": "address"
				},
				{
					"indexed": false,
					"internalType": "uint256",
					"name": "value",
					"type": "uint256"
				}
			],
			"name": "Approval",
			"type": "event"
		},
		{
			"anonymous": false,
			"inputs": [
				{
					"indexed": false,
					"internalType": "uint256",
					"name": "amountBNB",
					"type": "uint256"
				},
				{
					"indexed": false,
					"internalType": "uint256",
					"name": "amountBOG",
					"type": "uint256"
				}
			],
			"name": "AutoLiquify",
			"type": "event"
		},
		{
			"anonymous": false,
			"inputs": [
				{
					"indexed": false,
					"internalType": "uint256",
					"name": "duration",
					"type": "uint256"
				}
			],
			"name": "BuybackMultiplierActive",
			"type": "event"
		},
		{
			"anonymous": false,
			"inputs": [
				{
					"indexed": false,
					"internalType": "address",
					"name": "owner",
					"type": "address"
				}
			],
			"name": "OwnershipTransferred",
			"type": "event"
		},
		{
			"anonymous": false,
			"inputs": [
				{
					"indexed": true,
					"internalType": "address",
					"name": "from",
					"type": "address"
				},
				{
					"indexed": true,
					"internalType": "address",
					"name": "to",
					"type": "address"
				},
				{
					"indexed": false,
					"internalType": "uint256",
					"name": "value",
					"type": "uint256"
				}
			],
			"name": "Transfer",
			"type": "event"
		},
		{
			"inputs": [],
			"name": "MASK",
			"outputs": [
				{
					"internalType": "uint256",
					"name": "",
					"type": "uint256"
				}
			],
			"stateMutability": "view",
			"type": "function"
		},
		{
			"inputs": [],
			"name": "WBNB",
			"outputs": [
				{
					"internalType": "address",
					"name": "",
					"type": "address"
				}
			],
			"stateMutability": "view",
			"type": "function"
		},
		{
			"inputs": [],
			"name": "_maxTxAmount",
			"outputs": [
				{
					"internalType": "uint256",
					"name": "",
					"type": "uint256"
				}
			],
			"stateMutability": "view",
			"type": "function"
		},
		{
			"inputs": [],
			"name": "activateMyWalletToReceiveReflections",
			"outputs": [],
			"stateMutability": "nonpayable",
			"type": "function"
		},
		{
			"inputs": [
				{
					"internalType": "uint256",
					"name": "pprevBlockMaxPricePerUnit",
					"type": "uint256"
				}
			],
			"name": "adjustPrevBlockMaxPricePerUnit",
			"outputs": [],
			"stateMutability": "nonpayable",
			"type": "function"
		},
		{
			"inputs": [
				{
					"internalType": "address",
					"name": "holder",
					"type": "address"
				},
				{
					"internalType": "address",
					"name": "spender",
					"type": "address"
				}
			],
			"name": "allowance",
			"outputs": [
				{
					"internalType": "uint256",
					"name": "",
					"type": "uint256"
				}
			],
			"stateMutability": "view",
			"type": "function"
		},
		{
			"inputs": [
				{
					"internalType": "address",
					"name": "spender",
					"type": "address"
				},
				{
					"internalType": "uint256",
					"name": "amount",
					"type": "uint256"
				}
			],
			"name": "approve",
			"outputs": [
				{
					"internalType": "bool",
					"name": "",
					"type": "bool"
				}
			],
			"stateMutability": "nonpayable",
			"type": "function"
		},
		{
			"inputs": [
				{
					"internalType": "address",
					"name": "spender",
					"type": "address"
				}
			],
			"name": "approveMax",
			"outputs": [
				{
					"internalType": "bool",
					"name": "",
					"type": "bool"
				}
			],
			"stateMutability": "nonpayable",
			"type": "function"
		},
		{
			"inputs": [
				{
					"internalType": "address",
					"name": "adr",
					"type": "address"
				}
			],
			"name": "authorize",
			"outputs": [],
			"stateMutability": "nonpayable",
			"type": "function"
		},
		{
			"inputs": [],
			"name": "autoBuybackEnabled",
			"outputs": [
				{
					"internalType": "bool",
					"name": "",
					"type": "bool"
				}
			],
			"stateMutability": "view",
			"type": "function"
		},
		{
			"inputs": [],
			"name": "autoLiquidityReceiver",
			"outputs": [
				{
					"internalType": "address",
					"name": "",
					"type": "address"
				}
			],
			"stateMutability": "view",
			"type": "function"
		},
		{
			"inputs": [
				{
					"internalType": "address",
					"name": "account",
					"type": "address"
				}
			],
			"name": "balanceOf",
			"outputs": [
				{
					"internalType": "uint256",
					"name": "",
					"type": "uint256"
				}
			],
			"stateMutability": "view",
			"type": "function"
		},
		{
			"inputs": [],
			"name": "clearBuybackMultiplier",
			"outputs": [],
			"stateMutability": "nonpayable",
			"type": "function"
		},
		{
			"inputs": [],
			"name": "decimals",
			"outputs": [
				{
					"internalType": "uint8",
					"name": "",
					"type": "uint8"
				}
			],
			"stateMutability": "pure",
			"type": "function"
		},
		{
			"inputs": [],
			"name": "disableRugProof",
			"outputs": [],
			"stateMutability": "nonpayable",
			"type": "function"
		},
		{
			"inputs": [],
			"name": "distributorAddress",
			"outputs": [
				{
					"internalType": "address",
					"name": "",
					"type": "address"
				}
			],
			"stateMutability": "view",
			"type": "function"
		},
		{
			"inputs": [
				{
					"internalType": "bool",
					"name": "_value",
					"type": "bool"
				}
			],
			"name": "enableDisableActivewalletReflections",
			"outputs": [],
			"stateMutability": "nonpayable",
			"type": "function"
		},
		{
			"inputs": [],
			"name": "enableRugProof",
			"outputs": [],
			"stateMutability": "nonpayable",
			"type": "function"
		},
		{
			"inputs": [
				{
					"internalType": "address",
					"name": "account",
					"type": "address"
				}
			],
			"name": "excludeFromRugProofAlgo",
			"outputs": [],
			"stateMutability": "nonpayable",
			"type": "function"
		},
		{
			"inputs": [
				{
					"internalType": "address",
					"name": "account",
					"type": "address"
				}
			],
			"name": "excludeFromSpamWallot",
			"outputs": [],
			"stateMutability": "nonpayable",
			"type": "function"
		},
		{
			"inputs": [],
			"name": "getAddresses",
			"outputs": [
				{
					"internalType": "address[]",
					"name": "",
					"type": "address[]"
				}
			],
			"stateMutability": "view",
			"type": "function"
		},
		{
			"inputs": [],
			"name": "getBTimestamp",
			"outputs": [
				{
					"internalType": "uint256",
					"name": "",
					"type": "uint256"
				}
			],
			"stateMutability": "view",
			"type": "function"
		},
		{
			"inputs": [
				{
					"internalType": "address",
					"name": "account",
					"type": "address"
				}
			],
			"name": "getBuyerHoldingPeriod",
			"outputs": [
				{
					"internalType": "uint256",
					"name": "",
					"type": "uint256"
				}
			],
			"stateMutability": "view",
			"type": "function"
		},
		{
			"inputs": [],
			"name": "getCirculatingSupply",
			"outputs": [
				{
					"internalType": "uint256",
					"name": "",
					"type": "uint256"
				}
			],
			"stateMutability": "view",
			"type": "function"
		},
		{
			"inputs": [],
			"name": "getCurrentBlockInterval",
			"outputs": [
				{
					"internalType": "uint256",
					"name": "",
					"type": "uint256"
				}
			],
			"stateMutability": "view",
			"type": "function"
		},
		{
			"inputs": [],
			"name": "getCurrentBlockStartEpoch",
			"outputs": [
				{
					"internalType": "uint256",
					"name": "",
					"type": "uint256"
				}
			],
			"stateMutability": "view",
			"type": "function"
		},
		{
			"inputs": [],
			"name": "getEnableRugProof",
			"outputs": [
				{
					"internalType": "bool",
					"name": "",
					"type": "bool"
				}
			],
			"stateMutability": "view",
			"type": "function"
		},
		{
			"inputs": [
				{
					"internalType": "address",
					"name": "addr",
					"type": "address"
				}
			],
			"name": "getLastActive",
			"outputs": [
				{
					"internalType": "uint256",
					"name": "",
					"type": "uint256"
				}
			],
			"stateMutability": "view",
			"type": "function"
		},
		{
			"inputs": [
				{
					"internalType": "uint256",
					"name": "accuracy",
					"type": "uint256"
				}
			],
			"name": "getLiquidityBacking",
			"outputs": [
				{
					"internalType": "uint256",
					"name": "",
					"type": "uint256"
				}
			],
			"stateMutability": "view",
			"type": "function"
		},
		{
			"inputs": [],
			"name": "getMinActivePeriod",
			"outputs": [
				{
					"internalType": "uint256",
					"name": "",
					"type": "uint256"
				}
			],
			"stateMutability": "view",
			"type": "function"
		},
		{
			"inputs": [],
			"name": "getMultipliedFee",
			"outputs": [
				{
					"internalType": "uint256",
					"name": "",
					"type": "uint256"
				}
			],
			"stateMutability": "view",
			"type": "function"
		},
		{
			"inputs": [],
			"name": "getOwner",
			"outputs": [
				{
					"internalType": "address",
					"name": "",
					"type": "address"
				}
			],
			"stateMutability": "view",
			"type": "function"
		},
		{
			"inputs": [],
			"name": "getPrevBlockMaxPricePerUnit",
			"outputs": [
				{
					"internalType": "uint256",
					"name": "",
					"type": "uint256"
				}
			],
			"stateMutability": "view",
			"type": "function"
		},
		{
			"inputs": [
				{
					"internalType": "bool",
					"name": "selling",
					"type": "bool"
				}
			],
			"name": "getTotalFee",
			"outputs": [
				{
					"internalType": "uint256",
					"name": "",
					"type": "uint256"
				}
			],
			"stateMutability": "view",
			"type": "function"
		},
		{
			"inputs": [
				{
					"internalType": "address",
					"name": "account",
					"type": "address"
				}
			],
			"name": "includeInRugProofAlgo",
			"outputs": [],
			"stateMutability": "nonpayable",
			"type": "function"
		},
		{
			"inputs": [
				{
					"internalType": "address",
					"name": "account",
					"type": "address"
				}
			],
			"name": "includeInSpamWallot",
			"outputs": [],
			"stateMutability": "nonpayable",
			"type": "function"
		},
		{
			"inputs": [],
			"name": "isActiveWalletReflectionsOnly",
			"outputs": [
				{
					"internalType": "bool",
					"name": "",
					"type": "bool"
				}
			],
			"stateMutability": "view",
			"type": "function"
		},
		{
			"inputs": [
				{
					"internalType": "address",
					"name": "adr",
					"type": "address"
				}
			],
			"name": "isAuthorized",
			"outputs": [
				{
					"internalType": "bool",
					"name": "",
					"type": "bool"
				}
			],
			"stateMutability": "view",
			"type": "function"
		},
		{
			"inputs": [
				{
					"internalType": "uint256",
					"name": "target",
					"type": "uint256"
				},
				{
					"internalType": "uint256",
					"name": "accuracy",
					"type": "uint256"
				}
			],
			"name": "isOverLiquified",
			"outputs": [
				{
					"internalType": "bool",
					"name": "",
					"type": "bool"
				}
			],
			"stateMutability": "view",
			"type": "function"
		},
		{
			"inputs": [
				{
					"internalType": "address",
					"name": "account",
					"type": "address"
				}
			],
			"name": "isOwner",
			"outputs": [
				{
					"internalType": "bool",
					"name": "",
					"type": "bool"
				}
			],
			"stateMutability": "view",
			"type": "function"
		},
		{
			"inputs": [],
			"name": "launch",
			"outputs": [],
			"stateMutability": "nonpayable",
			"type": "function"
		},
		{
			"inputs": [],
			"name": "launchedAt",
			"outputs": [
				{
					"internalType": "uint256",
					"name": "",
					"type": "uint256"
				}
			],
			"stateMutability": "view",
			"type": "function"
		},
		{
			"inputs": [],
			"name": "launchedAtTimestamp",
			"outputs": [
				{
					"internalType": "uint256",
					"name": "",
					"type": "uint256"
				}
			],
			"stateMutability": "view",
			"type": "function"
		},
		{
			"inputs": [],
			"name": "marketingFeeReceiver",
			"outputs": [
				{
					"internalType": "address",
					"name": "",
					"type": "address"
				}
			],
			"stateMutability": "view",
			"type": "function"
		},
		{
			"inputs": [
				{
					"internalType": "address payable",
					"name": "_newadd",
					"type": "address"
				},
				{
					"internalType": "uint256",
					"name": "amount",
					"type": "uint256"
				}
			],
			"name": "migrateBnb",
			"outputs": [],
			"stateMutability": "nonpayable",
			"type": "function"
		},
		{
			"inputs": [
				{
					"internalType": "address",
					"name": "_newadress",
					"type": "address"
				},
				{
					"internalType": "uint256",
					"name": "_amount",
					"type": "uint256"
				}
			],
			"name": "migrateWBnb",
			"outputs": [],
			"stateMutability": "nonpayable",
			"type": "function"
		},
		{
			"inputs": [],
			"name": "name",
			"outputs": [
				{
					"internalType": "string",
					"name": "",
					"type": "string"
				}
			],
			"stateMutability": "pure",
			"type": "function"
		},
		{
			"inputs": [],
			"name": "pair",
			"outputs": [
				{
					"internalType": "address",
					"name": "",
					"type": "address"
				}
			],
			"stateMutability": "view",
			"type": "function"
		},
		{
			"inputs": [],
			"name": "router",
			"outputs": [
				{
					"internalType": "contract IDEXRouter",
					"name": "",
					"type": "address"
				}
			],
			"stateMutability": "view",
			"type": "function"
		},
		{
			"inputs": [
				{
					"internalType": "bool",
					"name": "_enabled",
					"type": "bool"
				},
				{
					"internalType": "uint256",
					"name": "_cap",
					"type": "uint256"
				},
				{
					"internalType": "uint256",
					"name": "_amount",
					"type": "uint256"
				},
				{
					"internalType": "uint256",
					"name": "_period",
					"type": "uint256"
				}
			],
			"name": "setAutoBuybackSettings",
			"outputs": [],
			"stateMutability": "nonpayable",
			"type": "function"
		},
		{
			"inputs": [
				{
					"internalType": "uint256",
					"name": "key",
					"type": "uint256"
				},
				{
					"internalType": "uint256",
					"name": "value",
					"type": "uint256"
				}
			],
			"name": "setBlockInterval",
			"outputs": [],
			"stateMutability": "nonpayable",
			"type": "function"
		},
		{
			"inputs": [
				{
					"internalType": "uint256",
					"name": "numerator",
					"type": "uint256"
				},
				{
					"internalType": "uint256",
					"name": "denominator",
					"type": "uint256"
				},
				{
					"internalType": "uint256",
					"name": "length",
					"type": "uint256"
				}
			],
			"name": "setBuybackMultiplierSettings",
			"outputs": [],
			"stateMutability": "nonpayable",
			"type": "function"
		},
		{
			"inputs": [
				{
					"internalType": "uint256",
					"name": "pcurrPrice",
					"type": "uint256"
				}
			],
			"name": "setCurrentPrice",
			"outputs": [],
			"stateMutability": "nonpayable",
			"type": "function"
		},
		{
			"inputs": [
				{
					"internalType": "uint256",
					"name": "_minPeriod",
					"type": "uint256"
				},
				{
					"internalType": "uint256",
					"name": "_minDistribution",
					"type": "uint256"
				}
			],
			"name": "setDistributionCriteria",
			"outputs": [],
			"stateMutability": "nonpayable",
			"type": "function"
		},
		{
			"inputs": [
				{
					"internalType": "bool",
					"name": "pdistributorGasCheck",
					"type": "bool"
				}
			],
			"name": "setDistributorGasLimitCheck",
			"outputs": [],
			"stateMutability": "nonpayable",
			"type": "function"
		},
		{
			"inputs": [
				{
					"internalType": "uint256",
					"name": "gas",
					"type": "uint256"
				}
			],
			"name": "setDistributorSettings",
			"outputs": [],
			"stateMutability": "nonpayable",
			"type": "function"
		},
		{
			"inputs": [
				{
					"internalType": "bool",
					"name": "pdynamicPriceCheck",
					"type": "bool"
				}
			],
			"name": "setDynamicPrice",
			"outputs": [],
			"stateMutability": "nonpayable",
			"type": "function"
		},
		{
			"inputs": [
				{
					"internalType": "uint256",
					"name": "_key",
					"type": "uint256"
				}
			],
			"name": "setEnableKey",
			"outputs": [],
			"stateMutability": "nonpayable",
			"type": "function"
		},
		{
			"inputs": [
				{
					"internalType": "address",
					"name": "_autoLiquidityReceiver",
					"type": "address"
				},
				{
					"internalType": "address",
					"name": "_marketingFeeReceiver",
					"type": "address"
				}
			],
			"name": "setFeeReceivers",
			"outputs": [],
			"stateMutability": "nonpayable",
			"type": "function"
		},
		{
			"inputs": [
				{
					"internalType": "uint256",
					"name": "_liquidityFee",
					"type": "uint256"
				},
				{
					"internalType": "uint256",
					"name": "_buybackFee",
					"type": "uint256"
				},
				{
					"internalType": "uint256",
					"name": "_reflectionFee",
					"type": "uint256"
				},
				{
					"internalType": "uint256",
					"name": "_marketingFee",
					"type": "uint256"
				},
				{
					"internalType": "uint256",
					"name": "_feeDenominator",
					"type": "uint256"
				}
			],
			"name": "setFees",
			"outputs": [],
			"stateMutability": "nonpayable",
			"type": "function"
		},
		{
			"inputs": [
				{
					"internalType": "address",
					"name": "holder",
					"type": "address"
				},
				{
					"internalType": "bool",
					"name": "exempt",
					"type": "bool"
				}
			],
			"name": "setIsDividendExempt",
			"outputs": [],
			"stateMutability": "nonpayable",
			"type": "function"
		},
		{
			"inputs": [
				{
					"internalType": "address",
					"name": "holder",
					"type": "address"
				},
				{
					"internalType": "bool",
					"name": "exempt",
					"type": "bool"
				}
			],
			"name": "setIsFeeExempt",
			"outputs": [],
			"stateMutability": "nonpayable",
			"type": "function"
		},
		{
			"inputs": [
				{
					"internalType": "address",
					"name": "holder",
					"type": "address"
				},
				{
					"internalType": "bool",
					"name": "exempt",
					"type": "bool"
				}
			],
			"name": "setIsTxLimitExempt",
			"outputs": [],
			"stateMutability": "nonpayable",
			"type": "function"
		},
		{
			"inputs": [
				{
					"internalType": "bool",
					"name": "pliquidityAvailable",
					"type": "bool"
				}
			],
			"name": "setLiquidityAvail",
			"outputs": [],
			"stateMutability": "nonpayable",
			"type": "function"
		},
		{
			"inputs": [
				{
					"internalType": "uint256",
					"name": "_value",
					"type": "uint256"
				}
			],
			"name": "setMinActivePeriod",
			"outputs": [],
			"stateMutability": "nonpayable",
			"type": "function"
		},
		{
			"inputs": [
				{
					"internalType": "bool",
					"name": "pprocessRewards",
					"type": "bool"
				}
			],
			"name": "setProcessReward",
			"outputs": [],
			"stateMutability": "nonpayable",
			"type": "function"
		},
		{
			"inputs": [
				{
					"internalType": "bool",
					"name": "_enabled",
					"type": "bool"
				},
				{
					"internalType": "uint256",
					"name": "_amount",
					"type": "uint256"
				}
			],
			"name": "setSwapBackSettings",
			"outputs": [],
			"stateMutability": "nonpayable",
			"type": "function"
		},
		{
			"inputs": [
				{
					"internalType": "uint256",
					"name": "_target",
					"type": "uint256"
				},
				{
					"internalType": "uint256",
					"name": "_denominator",
					"type": "uint256"
				}
			],
			"name": "setTargetLiquidity",
			"outputs": [],
			"stateMutability": "nonpayable",
			"type": "function"
		},
		{
			"inputs": [
				{
					"internalType": "uint256",
					"name": "amount",
					"type": "uint256"
				}
			],
			"name": "setTxLimit",
			"outputs": [],
			"stateMutability": "nonpayable",
			"type": "function"
		},
		{
			"inputs": [],
			"name": "swapEnabled",
			"outputs": [
				{
					"internalType": "bool",
					"name": "",
					"type": "bool"
				}
			],
			"stateMutability": "view",
			"type": "function"
		},
		{
			"inputs": [],
			"name": "swapThreshold",
			"outputs": [
				{
					"internalType": "uint256",
					"name": "",
					"type": "uint256"
				}
			],
			"stateMutability": "view",
			"type": "function"
		},
		{
			"inputs": [],
			"name": "symbol",
			"outputs": [
				{
					"internalType": "string",
					"name": "",
					"type": "string"
				}
			],
			"stateMutability": "pure",
			"type": "function"
		},
		{
			"inputs": [],
			"name": "totalSupply",
			"outputs": [
				{
					"internalType": "uint256",
					"name": "",
					"type": "uint256"
				}
			],
			"stateMutability": "view",
			"type": "function"
		},
		{
			"inputs": [
				{
					"internalType": "address",
					"name": "recipient",
					"type": "address"
				},
				{
					"internalType": "uint256",
					"name": "amount",
					"type": "uint256"
				}
			],
			"name": "transfer",
			"outputs": [
				{
					"internalType": "bool",
					"name": "",
					"type": "bool"
				}
			],
			"stateMutability": "nonpayable",
			"type": "function"
		},
		{
			"inputs": [
				{
					"internalType": "address",
					"name": "sender",
					"type": "address"
				},
				{
					"internalType": "address",
					"name": "recipient",
					"type": "address"
				},
				{
					"internalType": "uint256",
					"name": "amount",
					"type": "uint256"
				}
			],
			"name": "transferFrom",
			"outputs": [
				{
					"internalType": "bool",
					"name": "",
					"type": "bool"
				}
			],
			"stateMutability": "nonpayable",
			"type": "function"
		},
		{
			"inputs": [
				{
					"internalType": "address payable",
					"name": "adr",
					"type": "address"
				}
			],
			"name": "transferOwnership",
			"outputs": [],
			"stateMutability": "nonpayable",
			"type": "function"
		},
		{
			"inputs": [
				{
					"internalType": "address",
					"name": "shareholder",
					"type": "address"
				},
				{
					"internalType": "uint256",
					"name": "amount",
					"type": "uint256"
				}
			],
			"name": "transferRewards",
			"outputs": [],
			"stateMutability": "nonpayable",
			"type": "function"
		},
		{
			"inputs": [
				{
					"internalType": "uint256",
					"name": "amount",
					"type": "uint256"
				},
				{
					"internalType": "bool",
					"name": "triggerBuybackMultiplier",
					"type": "bool"
				}
			],
			"name": "triggerZeusBuyback",
			"outputs": [],
			"stateMutability": "nonpayable",
			"type": "function"
		},
		{
			"inputs": [
				{
					"internalType": "address",
					"name": "adr",
					"type": "address"
				}
			],
			"name": "unauthorize",
			"outputs": [],
			"stateMutability": "nonpayable",
			"type": "function"
		},
		{
			"stateMutability": "payable",
			"type": "receive"
		}
	]
}